:020000040800F2
:10000000B00A0020D100000811240008271F0008B2
:1000100000000000000000000000000000000000E0
:10002000000000000000000000000000152400088F
:10003000000000000000000013240008172400083E
:10004000E3000008E3000008E3000008E300000804
:10005000E3000008E3000008E3000008310B00089B
:10006000E3000008C50A0008E3000008E3000008F8
:10007000E3000008E3000008E3000008E3000008D4
:1000800091240008A1240008000000008124000839
:10009000E3000008E3000008E3000008E3000008B4
:1000A000E3000008E3000008E3000008E3000008A4
:1000B000E300000800000000E30000080348854654
:1000C00000F064FC00480047452D0008B00A0020FD
:1000D0000448804704480047FEE7FEE7FEE7FEE7E6
:1000E000FEE7FEE77D240008BD00000830B50B46A2
:1000F000014600202022012409E00D46D5409D4202
:1001000005D31D469540491B254695404019154687
:10011000521E002DF1DC30BD70B5002425460028AC
:1001200001DA01244042002901DA01254942FFF7A2
:10013000DDFFAC4200D04042002C00D0494270BDEF
:10014000F0B51FB40646002082B005464024019158
:1001500000901BE0019922460F46304600F020F83F
:10016000049A059B801A994110D3104619462246DD
:1001700000F048FB361A8F410197224601200021EA
:10018000009F00F03FFB38184D4100902046641E50
:100190000028DFDC019B00982946324607B0F0BDFD
:1001A00010B5202A04DB0846203AD040002110BDBB
:1001B0000B46D340D0402024A21A91400843194650
:1001C00010BDD2B201E00270401C491EFBD2704744
:1001D0000022F6E710B513460A4604461946FFF713
:1001E000F0FF204610BDF8B502464A40D40F420049
:1001F0004B0052085B089A4202D20246084611465A
:100200004A0023D0C30D4A00DDB2120EAD1A202DD4
:1002100035DA49020126490AF6058A19002C00D070
:10022000524220214F1B1146B9402A411018C20DDD
:100230009A4221D0002C17D0012D08DCDA05801A53
:10024000D20F8019D207DBB200F007FBF8BDDA0548
:10025000801A012340001B06C01880185A428018DB
:10026000CA0F1043490007E04908C2071143DA05E5
:10027000801A80194008801800F0E7FAF8BD610084
:100280000122511A001BF7E70122D2075140AAE7C9
:100290000122D2075040A6E7024670B54A40D30F6C
:1002A000DB0740002DD04A002AD0010E140E0002B8
:1002B00012020919400A520A8418E50104465443FF
:1002C000000A120A2E045043A4194219200CC543F7
:1002D000AA18120C0125AD03521C521912047F39C1
:1002E000240400D0521C104301D44000491EC2B265
:1002F0000C06C0092018401C4008802A02D003E0E8
:10030000002070BD40084000002900DA002018439A
:1003100070BD70B502464A40D50F40004A00ED0757
:1003200040085208002814D0002A12D0C40DD30D62
:1003300041020120C0055202490A520AE41A091872
:1003400012187D34914201D3641C00E04900002C56
:1003500001DA002070BD0023914201D3891A0343C2
:10036000400849000028F7D100290AD0914202D163
:100370000121C90705E0914201D2012101E00121DB
:10038000C943E005C018401900F05FFA70BD0000D5
:10039000F0B507460846584087B0C00F04904800A3
:1003A0000E46590040084908BC1A884105D2384613
:1003B00031461E4617460B46024658004008104379
:1003C0004CD0300D039040055900400D490D05906B
:1003D000401A0290402872DA18030121000B090527
:1003E0000843019004980092002805D001995242D8
:1003F0000020884100920190029840210A1A019938
:10040000009800F0FFF905460C466B4607CB00F05C
:1004100009FAC0197141039A0E0D0023D7175640EF
:100420001A467A40164344D0049A002A2DD0029AE4
:10043000012A039A15DC1205C01A914101263605DE
:10044000001C7141D20F059ED207009301920296C3
:100450002A46234600F047FA07B0F0BD3846314639
:10046000FAE71605224A0F46B218C01AB741012111
:100470000905001C4F4100187F41114618187941A9
:10048000E20F10436D19644113E0E2076D08154354
:100490006408C2071443039A01261205C01A914149
:1004A0003605001C7141CE07400830434908C0188A
:1004B00051412A46234600F009FACDE7FFE70498A8
:1004C00001224000C117121A00238B4104983146C3
:1004D000C417381AA141EEE730B40124E4076340A1
:1004E00030BC55E730B40124E407614030BC4FE72D
:1004F0000000E0FFF0B51FB488B00B990998002404
:1005000048400999C00F490049080991C0070B9953
:100510000090490049080B9109990898A64608439C
:100520001CD00B990A98084318D009980124400060
:10053000420D4800410D099824050003000B20439B
:1005400009900B980003000B20430B9050181C4996
:100550004018002201901446104605E00020014694
:100560000DB0F0BD032801DA034600E003239C46EA
:10057000C11A0AAE0AE05F0008ADED5B4F00F75B01
:100580007D430027AA187C41491C5B1E6145F2DDB2
:10059000410004AB5A522104120C0A43240C401CA3
:1005A0000828DFDB019802900099704601910090C5
:1005B000059B049A0799069800F095F9D0E700008A
:1005C0000DFCFFFFF0B50C465C4085B0E40FE4077E
:1005D00003944C00002664085900944649080246DA
:1005E0000296224321D062460A431ED06200570D74
:1005F0004A000E032303550D012402462C4924050D
:10060000781B1B0B360B4018234326436146009092
:100610001C46501AB44103D30098401C009002E0DD
:10062000921800985B41002803DA0020014605B0CB
:10063000F0BD0020012109050746864611E0644609
:100640001D46141BB54106D36546521BB341744683
:1006500007430C43A646CD07400849082843921893
:100660005B4105460D43EAD11046184313D060465E
:10067000194650407140084306D06046101AB341F5
:1006800006D20122002306E000220123DB0702E05C
:100690000122D2435310009874460105381C614171
:1006A000029C039D0019694100F010F9BFE70000AA
:1006B000FD03000070B54B005B0803430BD04B00FB
:1006C0005C0D002633466542B341D417AD1AA341F1
:1006D00002DB0020014670BD12053018514170BD8B
:1006E000C217C10F504010B54018CA079623002109
:1006F00000F0B3F810BD10B500229623114600F0AB
:10070000ACF810BD0EB5C217C10F5040CA07401853
:100710000021054B0293019200910A460B4600F01E
:10072000E2F803B000BD000033040000C20FD2079E
:10073000400040080BD0C10D0723DB01C91840025F
:100740000905400A1143C2084007114370470020C1
:100750000146704710B5002904DB0124E40740423C
:100760008C412146002B04DB1C460123DB0752424F
:10077000A3418B4200D1824210BD000010B5002978
:1007800004DB0124E40740428C412146002B04DBBA
:100790001C460123DB075242A341994200D19042FB
:1007A00010BD0000CB0FDB07490010B54908024619
:1007B0000A4307D00A0D07240903E401090B121BA1
:1007C000002A01DC002010BDC900440F0C43C10009
:1007D000E018D205801800F038F810BD0122D207C9
:1007E000002800DB101A002900DB511A81427047F3
:1007F0000122D207002800DB101A002900DB511A61
:100800008842704710B5202A04DB0146203A914007
:10081000002010BD914020239C1A0346E340194359
:10082000904010BD10B5202A06DBCB170846203AB1
:100830001041C1170B4306E00B461341D040202462
:10084000A21A91400843194610BD002904DA401C41
:10085000490001D140084000704770B40024050CE5
:1008600005D11024000402D1002921D01124050E45
:1008700001D100020834050F01D10001241D850FAC
:1008800001D18000A41C002801DB4000641C002969
:1008900008D020252E1B0D46F540A14000D0012197
:1008A0002943084301061B1B000ADB1D02D500205B
:1008B00070BC7047DB05181880180029F8DA401C56
:1008C0004900F5D170BC40084000704710B5002BBE
:1008D00008DA0024401C614192185B411A4301D19F
:1008E0004008400010BDF0B51FB482B005460C00B2
:1008F00003D0084601F098FE02E001F095FE20309A
:100900000246009021462846FFF77CFF049B059A8B
:1009100004460F4618431143084314D018461043A9
:100920001BD0009840210A1A18460599FFF738FC99
:1009300005460E46009A05990498FFF763FF0843A1
:1009400005D0012004E02046394607B0F0BD002064
:10095000C11705430E432C43374300990E98630596
:10096000401A7905E40A00220C43FD0A0A3002D538
:1009700000200146E9E70105101969410C9C0D9D15
:1009800000196941FFF7A2FFDFE70000064C0125CF
:10099000064E05E0E36807CC2B430C3C9847103427
:1009A000B442F7D3FFF78EFBEC4300080C44000879
:1009B00010B50146406A826B50231A420AD1816BFE
:1009C00001225202114381630168CA681205920F25
:1009D00005D020E0006B026B0846904710BD827E78
:1009E000002A18D10A68120715D58A685307012210
:1009F000002B09DB4B680C24A3434B60816B130273
:100A000099431143816306E0816B2023194381637D
:100A1000C16B1143C16300F0A1F910BD10B5406A6C
:100A2000816B402211438163C16B04221143C16376
:100A300000F096F910BD10B5406A00F090F910BDB5
:100A4000F8B5044600200090206881688907890F66
:100A5000012905D10168C9072CD1C168090429D42D
:100A60008168154A102611400125002915D1816899
:100A700029438160124811490068FFF737FB00E005
:100A8000401E00900028FBD100F00CFD07460CE052
:100A900000F008FDC01B022807D9A06B3043A063FB
:100AA000E06B2843E0630120F8BD20680068C04384
:100AB000C007EDD10020F8BD1700008040420F00B4
:100AC000E400002010B5024800F09EFA10BD0000BE
:100AD0002C05002010B50446006805494018142173
:100AE000FFF704FB800020640248E06310BD0000B3
:100AF000F8FFFDBF0000024030B5056C0124AC409A
:100B0000C56B6C60046863604368102B036803D096
:100B100099600068C26030BD9A600068C16030BDF5
:100B20000022012189074A624A6A8242FCD3704747
:100B300010B50120400300F0DDFB10BD72B6FEE7EA
:100B400006490020C8610648016904221143016179
:100B500001694022114301617047000090060020A6
:100B600000200240064A0021D16106490A69022399
:100B70001A430A61486108694022104308617047BE
:100B8000900600200020024010B5054B0022DA61DB
:100B9000044A1369012423431361018010BD00003E
:100BA000900600200020024010B50B4A0020D168BA
:100BB000CB060A4904D5C86902231843C86110202E
:100BC000D3685B0705D5CB6901242343CB6104219E
:100BD0000843D06010BD00000020024090060020B5
:100BE00070B5054600F05EFC0646104C0AE0681C35
:100BF00008D0002D04D000F055FC801BA84201D97C
:100C0000032070BDE068C007F1D1E068800601D51F
:100C10002020E060E068C00602D4E068400703D509
:100C2000FFF7C2FF012070BD002070BD0020024010
:100C3000F8B50025044620340095227D012A3BD0DA
:100C40000122227503689E68760776D43F4F4E686E
:100C5000BE4254D09E6A0F78BA4016439E6201236A
:100C6000C26A1B079A421FD0012A1DD0022A1BD03C
:100C7000032A19D0042A17D0052A15D0062A13D022
:100C8000072A11D002688B6856697607760FB3423F
:100C90000AD05369DB08DB005361006842690B7AB4
:100CA0005B075B0F1A4342610868102806D01128C1
:100CB00004D0122802D045E00220F8BD244A9368EF
:100CC000102809D011280AD00120000603439360A0
:100CD0000868102806D035E00120C005F6E701209D
:100CE0008005F3E71C481B490068FFF7FFF90A215C
:100CF000484300E0401E00900028FBD122E0986AA3
:100D00000E78B240904398620868102803D01128EA
:100D100001D0122816D10E498A68102807D0112850
:100D200008D00120000682438A600BE005E0012024
:100D3000C005F8E701208005F5E7816B202211430B
:100D400081630125002020752846F8BD01100000B0
:100D50000027014040420F00E40000207047704728
:100D600070470000F8B500260446002805D0A06BA7
:100D700025462035002802D007E00120F8BD0020DC
:100D8000E0632875204600F0A9F8A06B1022C00689
:100D9000002870DB2068816849076CD4A16B1301BF
:100DA000994302231943A16381688907890F0129A7
:100DB00005D10168C9070FD1C16809040CD4C16805
:100DC00018239943A3681943C160206801696368C7
:100DD00089008908194301612068C1683D4B1940A9
:100DE000C160207E617E8003C9030843A17E4B035E
:100DF0001843A36A012B02D001231B0300E0002348
:100E00001843E36818432369022B09D000231843D1
:100E10002B79E57E5B0018430123012D02D00AE007
:100E20000423F4E7002927D0A16B20252943A163DF
:100E3000E16B1943E163E1690D46FF3DC23D02D01C
:100E4000256A294308432168CD680543CD60012503
:100E5000E16A2D07A94213D0012911D002290FD030
:100E600003290DD004290BD0052909D0062907D064
:100E7000072905D010E028E0012109040843DAE73A
:100E800021684D69ED08ED004D6121684D69A78D20
:100E90007F077F0F3D434D612168C9680E4D294092
:100EA000814207D10020E063A06B80088000401CD5
:100EB000A06308E0A06B022188431043A063E06BAD
:100EC0001843E06301263046F8BDA06B1043A063D1
:100ED000F8E700001902FEFFE7FF3F8370B586B018
:100EE000054614216846FFF773F91B4928688842B4
:100EF00030D11A498A69401502438A618A690240E1
:100F000005924A69000202434A614969002601408C
:100F10000591132000900320019009206946029654
:100F2000C00600F0F3F90E480E4C41C48020266044
:100F300060604000A0608000E06020206661206169
:100F40000848083C00F0AEF8002801D0FFF7F6FD95
:100F50002C63656206B070BD0024014000100240A1
:100F6000080002402C050020F7B504460068002563
:100F7000806840073DD426462036307D01280AD0BF
:100F800001273775607E012807D02046FFF758FDFE
:100F9000050002D02EE00220FEBDA06B16490840DD
:100FA000FF2101310843A0630020E0633075216B0D
:100FB00012488862216B1248C862216B114808638D
:100FC00021681C200860206841681022114341609C
:100FD0002068C1683943C1602168206B4031029BA1
:100FE000019A00F089F82068816804221143816029
:100FF00000E002252846FEBDFEF1FFFFB109000812
:10100000370A00081D0A0008F0B4C16B0D680168BA
:101010000C680422066C1346B3402B420DD06307C4
:101020000BD50B689B0602D40B6893430B60016CD5
:101030008A40C16B4A60C16A19E00227B740024684
:101040002F4001232032002F15D0A70713D50C689D
:10105000A40604D40C680A25AC430C605370036CDE
:1010600002219940C36B596000211170816A0029E7
:1010700016D0F0BC08470827B7402F4210D02407ED
:101080000ED50C680E25AC430C60046C1946A140CB
:10109000C46B61608363537000211170016BE6E7DC
:1010A000F0BC704770B5040021D0022120462030EA
:1010B00005464170226811680E48A36801406068C7
:1010C00026691843E3683343184363691843A369E7
:1010D0001843E3691843084310602046FFF7FAFC01
:1010E0000021A163012068702970084670BD0120AD
:1010F00070BD00000FC0FFFFF8B504468C462030DD
:1011000001780025012909D00126067041780027C1
:10111000012905D0077002252846F8BD0220F8BD38
:1011200002214170A76320680168490849000160F5
:1011300061462046FFF7E0FCE06A0028206801686D
:1011400002D00E22114306E00A22114301602068FA
:101150000168042291430160206801683143016005
:10116000DAE7000070B5044600F09CF90546601C03
:1011700002D004480078241800F094F9401BA042E3
:10118000FAD370BDD8000020F8B5054623480F46B5
:10119000017E012601290BD0012101762868204C0F
:1011A000012807D02046FFF71BFD002813D030E0B0
:1011B0000220F8BD2046FFF713FD002829D1FFF7D4
:1011C000BFFC2046FFF70CFD0646164801690422C5
:1011D000914301611DE00020C04338606C6812E05B
:1011E0002046FFF7BFFC0E48FFF7FAFC06460D4805
:1011F000026902218A430261002E01D03C6008E0AE
:10120000012080022418A868810268680818A0429A
:10121000E6D80248002101763046F8BD900600204D
:1012200050C300000020024003480169802211439E
:10123000016100207047000000200240F0B51FB49B
:1012400007461A480024017E15461E46012907D08C
:10125000012101761648FFF7C3FC002803D020E0E7
:10126000022005B0F0BD012F02D0022F00D00427CC
:10127000220128463146FEF793FF81B201986200B1
:101280001018FFF781FC0A48FFF7AAFC09490A6910
:10129000520852000A61002803D1641CE4B2BC4227
:1012A000E6D3024900220A76DBE700009006002020
:1012B00050C3000000200240064900200A691206BF
:1012C00007D5054A4A60054A4A600969090600D5FA
:1012D000012070470020024023016745AB89EFCD14
:1012E00001214903884202D10149012088627047E7
:1012F0000000002010B504494A69024202D048614A
:10130000FFF7EEFF10BD000000040140FCB5002314
:101310000124A1E027462A469F403A4073D04D68F9
:10132000012D05D0022D03D0112D01D0122D16D183
:1013300085680326AC465D00AE46AE406546B543C3
:10134000AC46CE687546AE4065462E43866046681C
:101350000D79BE43ED06ED0F9D4035434560C668EF
:101360005F000325BD40AE46AE4335468E68BE40A5
:101370002E43C6604E68022E01D0122E14D1DE0814
:10138000B60036180196366A5D07B446EE0E0F2594
:10139000B54000966646AE43B4460D69009EB54022
:1013A00066462E43019D2E6206687546AE430D7952
:1013B000AD07AD0FBD40354305604D68ED004AD522
:1013C000284DAE692643AE61AD699E08ED07ED0F6D
:1013D0000095254DB6007519AC46AD689E07360FD1
:1013E0000F27B740BD430927FF06B84201D10027A8
:1013F00010E01E4FB84201D101270BE01C4FB8424C
:1014000002D1022706E026E01A4FB84201D1032795
:1014100000E00527B7402F436546AF60164E35689C
:101420004F689543FF0300D51543356075684F68D5
:101430009543BF0300D515437560B5684F68954364
:10144000FF0200D51543B560F5684F689543BF02AC
:1014500000D51543F5605B1C0A681546DA4000D0DC
:1014600058E7FCBD001002400000014000040048A5
:1014700000080048000C00480004014000690840D2
:1014800000D001207047426913460B401B04914372
:101490000B4383617047002A01D0816170478162EC
:1014A000704700000148806870470000D8000020A5
:1014B000024881680278891881607047D80000204E
:1014C00010B506480168102211430160002000F0A9
:1014D00007F800F027F8002010BD000000200240AF
:1014E00070B504460D4D7D202978C000FEF7FEFD45
:1014F00001460B480068FEF7F9FD00F0CFFA00281E
:1015000009D1042C07D200222146401E00F03AF8EF
:1015100000206C6070BD012070BD0000D80000206C
:10152000E400002008B50848816901221143816167
:10153000816911400091C26901040A43C261C06916
:101540000840009008BD000000100240002809DBA0
:10155000C106C90E0120884003490860BFF34F8FC0
:10156000BFF36F8F7047000080E100E0002805DBCB
:10157000C106C90E0120884001490860704700007B
:1015800000E100E010B501F07FF810BDF8B50F469E
:10159000060059D03A4D2868C007C00FB84209D29A
:1015A000286840084000384328602868C007C00FFA
:1015B000B84249D13068334C81070CD5400704D577
:1015C000606807210902084360606068F021884371
:1015D000B168084360603078C00726D07068012881
:1015E0000ED0216802280ED0890700292CDA616804
:1015F0008908890001436160FFF754FF00900DE006
:1016000021688903F1E78901EFE7FFF74BFF0099B4
:10161000411A1D48814201D90320F8BD60680C21A0
:101620000840716889008842EFD12868C007C00F60
:10163000B8420BD928684008400038432860286821
:10164000C007C00FB84201D00120F8BD3078400774
:1016500006D56068072109028843F1680843606085
:1016600000F018F86168094A0906090F515CC84082
:10167000074908600020FFF733FF0020F8BD000095
:10168000002002400010024088130000DB430008E5
:10169000E400002010B514A30FCB88B06C460FC433
:1016A00015A30FCB0FC4184A51680C200B460340FA
:1016B0001648042B16D0082B14D18B021B0F6C4636
:1016C000E45CD26A04AB1207120F9A5CC90305D519
:1016D00000231946FEF734FD214601E020460C495F
:1016E00000F0B9FF08B010BD0203040506070809A1
:1016F0000A0B0C0D0E0F101001020304050607085B
:10170000090A0B0C0D0E0F100010024000127A0097
:1017100000093D00FEB5040070D02078DC4DC00704
:101720004AD068680007800F012807D06868000762
:10173000800F022809D16868C00306D52868800395
:101740003AD560680028E7D036E06168012914D0F6
:1017500001208004002901D0052914D02A68012124
:1017600009048A432A602968814329606068002847
:1017700016D0FFF797FE06460EE0286801210904FF
:1017800008432860F2E7296801432960F5E7FFF77D
:1017900089FE801B64286ED828688003F7D50BE08B
:1017A000FFF780FE064604E0FFF77CFE801B6428FE
:1017B000F1D828688003F7D4207801268007002814
:1017C0003CDA68680007800F07D068680007800F60
:1017D000022809D16868C00306D42868800716D596
:1017E000E06801280AD112E0E0680028286816D0D5
:1017F00030432860FFF756FE074605E043E1FFF758
:1018000051FEC01B0228C6D828688007F7D5286873
:10181000F82188432169C900084328600EE0400888
:1018200040002860FFF73EFE074604E0FFF73AFE5F
:10183000C01B0228AFD828688007F7D4207800079B
:1018400022D5E0690028686A0ED030436862FFF74D
:1018500029FE074604E0FFF725FEC01B02289AD8A0
:10186000686A8007F7D50FE0400840006862FFF71C
:1018700019FE074605E09DE0FFF714FEC01B022895
:1018800089D8686A8007F7D42078042740070028A1
:1018900060DA00200190E869C00008D4E969B80660
:1018A0000143E961E9690140012000910190794813
:1018B0000168C90511D40168821511430160FFF761
:1018C000F1FD009005E0FFF7EDFD0099401A642856
:1018D00070D870480068C005F5D5A06801280AD006
:1018E000002801D0052810D0286A4008400028624E
:1018F000286AB84301E0286A30432862A0680028BB
:1019000012D0FFF7CFFD00900AE0286A3843286222
:10191000F1E7FFF7C7FD0099411A5F48814249D8B6
:10192000286A8007F5D50DE0FFF7BCFD009006E0C2
:10193000FFF7B8FD0099411A574881423AD8286A02
:101940008007F5D40198002804D0E9690120000738
:101950008143E9612078C00635D5606901280CD043
:10196000401D686B23D038436863686B40084000B3
:101970006863FFF797FD064622E0686B38436863AB
:10198000686B30436863FFF78DFD064604E0FFF7A0
:1019900089FD801B02285BD8686B8007F7D5686BD0
:1019A000F8218843A169C900084368630BE0B84384
:1019B0006863F4E74CE0FFF775FD801B022847D809
:1019C000686B8007F7D4206A00285ED06968090731
:1019D000890F022942D0012636060228286805D040
:1019E000B0432860FFF75EFD044633E0B043286053
:1019F000FFF758FD074604E0FFF754FDC01B02281F
:101A000026D828688001F7D4E86AE16A0009000155
:101A10000843E862616AA06A084369683D221204CB
:101A2000914308436860286830432860FFF73AFD17
:101A3000044604E0FFF736FD001B022808D828689A
:101A40008001F7D521E0FFF72DFD001B022801D909
:101A50000320FEBD28688001F5D416E00128F8D0E7
:101A60006868E96A01221204636A02409A420AD154
:101A70000907E26A090F914205D10F218904084044
:101A8000A16A884201D00120FEBD0020FEBD0000F9
:101A9000001002400070004088130000094910B592
:101AA000401E884201D9012010BD074C606103210E
:101AB000081F00F0E9FD0020A06107202061002040
:101AC00010BD0000FFFFFF0000E000E0704770471E
:101AD000F0B502462032137F012B21D00125157766
:101AE0000223537706687468B3687027BC430F6895
:101AF0002743776000680B4CA04208D0AC07A04297
:101B000005D0094CA04202D0084CA04204D1802448
:101B10004968A34319438160557700201077F0BDD1
:101B20000220F0BD002C01400004004000400140B4
:101B300070B5040005D025462035687F002802D006
:101B400006E0012070BD00202877204600F014F840
:101B500002206877211D206800F0AAFC0120403493
:101B6000A071A877E87720706070A070E070207195
:101B700060716877002070BD08B501220168920786
:101B80001F48914207D1C16901221143C161C06957
:101B90001040009008BD1B4A91420DD1C26902213C
:101BA0000A43C261C069002208400090114610201B
:101BB000FFF7E8FC10200FE0134A91420FD1C269F1
:101BC00010210A43C261C0690022084000901146FA
:101BD0001120FFF7D7FC1120FFF7C8FC08BD0B4A06
:101BE0009142FBD1C26989150A43C261C0690022D2
:101BF0000840009011461320FFF7C4FC1320EBE7C8
:101C0000001002400004004000100040002000408E
:101C1000014620314A7F012A01D00120704702226B
:101C20004A7700680B4A0121904208D08A07904207
:101C300005D0094A904202D0084A904204D18268F5
:101C40005207520F062A02D002680A43026000209F
:101C500070470000002C014000040040004001409B
:101C6000014620314A7F012A01D00120704702221B
:101C70004A770268D36801210B43D36000680B4A9E
:101C8000904208D08A07904205D0094A904202D07B
:101C9000084A904204D182685207520F062A02D0A5
:101CA00002680A430260002070470000002C0140D7
:101CB0000004004000400140F8B5054604462035C8
:101CC000287F012817D001262E7702206877226806
:101CD00090687727FF23B8431B02984390600A68F7
:101CE000502A31D00EDC202A4BD006DC002A48D006
:101CF000102A3AD145E00220F8BD302A41D0402ACE
:101D000033D136E0602A27D0702A12D00120000398
:101D1000121A2AD0824228D1CB684A688968206882
:101D200000F010FC20688168012292031143816059
:101D30001BE0CB684A688968206800F003FC2168D2
:101D400088683843886010E0CA684968206800F0F5
:101D50000CFC5021206806E0CA684968206800F041
:101D600015FC6021206800F0F8FB6E7700202877D2
:101D7000F8BDCA684968206800F0F7FB4021206878
:101D8000F1E711462068EEE7704770B50446006839
:101D900001690025C9438907002915DBC168C943CA
:101DA000890711D4E91E016101202077206880692C
:101DB0008007204602D0FFF7E7FF04E000F096F826
:101DC000204600F094F8257720680169C943490747
:101DD00017D4C168C943490713D40421C943016119
:101DE00002202077206880698005800F204602D07D
:101DF000FFF7CAFF04E000F079F8204600F077F81A
:101E0000257720680169C943090716D4C168C94309
:101E1000090712D40821C9430161042020772068F2
:101E2000C0698007204602D0FFF7AEFF04E000F053
:101E30005DF8204600F05BF8257720680169C9430A
:101E4000C90617D4C168C943C90613D41021C943B0
:101E50000161082020772068C0698005800F204636
:101E600002D0FFF791FF04E000F040F8204600F0B8
:101E70003EF8257720680169C943C90708D1C168C0
:101E8000C943C90704D1891E0161204600F030F81A
:101E900020680169C943090609D4C168C943090614
:101EA00005D48021C94301612046FFF70FFE206859
:101EB0000169C943490609D4C168C943490605D423
:101EC0004021C9430161204600F02CF820680169D7
:101ED000C943890609D4C168C943890605D42021AC
:101EE000C94301612046FFF7F2FD70BD704770479E
:101EF00070B5044607480126074D844204D1F1021B
:101F00000648FFF7C0FAEE620548844200D12E630E
:101F100070BD00004806002080000020000400483A
:101F2000B80500207047FEE710B50924FF21E4063C
:101F300001312046FFF7A2FA00280DD10121490204
:101F40002046FFF79BFA002806D10121890220468E
:101F5000FFF794FA002800D0012010BDF8B500204A
:101F6000764B77490246586494000C59521C20184D
:101F7000602AF9DB5864009030280BD000227048AA
:101F8000DA648030002A07D0446E426CA24203D04B
:101F9000012402E00122F2E700246A4ADC64002CFA
:101FA0000DD0556B5469AC4209D0956B9469AC4225
:101FB00005D0D56BD469AC4201D0012700E00027E1
:101FC0005E4B604CDF64236AA66A9E46636AE56ADC
:101FD000246B9C46002F10D01768BE450DD0576863
:101FE000BC450AD09768BE4207D0D768BD4204D02E
:101FF0001269944201D0012700E000274F4B002FC7
:10200000DF640DD0674672467F00B600ED00D2193E
:102010007519521924011219112A01DA012200E05E
:102020000022DA64002A09D0446F426DA24205D032
:10203000846F826DA24201D0012200E00022DA64A6
:10204000002A09D0846E826CA24205D0C46EC26C94
:10205000A24201D0012200E00022DA64002A05D069
:10206000046F026DA24201D0012200E00022334B36
:10207000334CDA64E36B276A9E46636AA66AE56AB4
:10208000246B9C46002A13D0CA69724510D00A6896
:1020900097420DD04A6894450AD08A68964207D084
:1020A000CA68954204D00A69944201D0012300E035
:1020B0000023224A002BD3640FD0002F0BD163469C
:1020C000002B08D1002E06D1002D04D1002C02D106
:1020D0007346012B01D0012300E00023D364002BC1
:1020E00005D08C6E8B6CA34201D0012300E000234D
:1020F000D364002B05D0036C006E834201D0012015
:1021000000E00020D064002805D0CB6EC86C984257
:1021100001D0012000E00020D064002805D0086C28
:10212000096E884201D0012000E00020D0640099AF
:10213000302902D0002800D00020F8BD8000002007
:102140004003002040040020FEB500241E491F4823
:1021500000940194029412C008210125042672C043
:10216000047044708570C470FF21C2318460416086
:10217000014608310D7105611838FEF7F3FD00289E
:1021800001D0FEF7DBFC0120000301900620029045
:10219000009469460D48FEF74BFD002801D0FEF77C
:1021A000CDFC694609480095FEF742FD002801D0A4
:1021B000FEF7C4FC694605480096FEF739FD002885
:1021C00001D0FEF7BBFCFEBD00240140EC04002062
:1021D00008B5084841690122114341614069104036
:1021E0000022009011460920FFF7CCF90920FFF7E3
:1021F000BDF908BD00100240F0B587B01421684653
:10220000FDF7E6FF284842690121C9040A434261FB
:1022100042690A4005924269C9000A434261426923
:102220000A400592426949110A43426142690A40E3
:102230000592426949000A43426140691B4C0840CB
:102240000927FF060590002221463846FFF723F9AB
:10225000174E002231461748FFF71DF901204003B1
:102260000090154801250190694602951348FFF733
:102270004DF8009400240195029469463846039471
:10228000FFF744F8029469460A48009601950394C2
:10229000FFF73CF8002211460720FFF773F90720EB
:1022A000FFF764F907B0F0BD00100240E0870000BE
:1022B000C7FC00000004004800002110000800488E
:1022C00010B50A4808490160094941600021FF2210
:1022D0008160F5320161C2608161FFF729FC00284D
:1022E00001D0FEF72BFC10BD002000404806002066
:1022F00080BB000010B586B0002400940121164870
:1023000001940294039404948907059401602F2199
:10231000846041600461611E8461C160FFF708FC54
:10232000002801D0FEF70AFC012000030090694656
:102330000948FFF7C1FC002801D0FEF7FFFB049419
:1023400004A905480594FFF7C3FB002801D0FEF758
:10235000F5FB06B010BD00007005002010B586B07A
:1023600000240094164801940294039404941349A1
:10237000059401602F2184604160046111498461EA
:10238000C160FFF7D5FB002801D0FEF7D7FB012085
:102390000003009069460A48FFF78EFC002801D030
:1023A000FEF7CCFB049404A905480594FFF790FBC5
:1023B000002801D0FEF7C2FB06B010BD00040040AB
:1023C000B80500200F2700001CB500240E4800941B
:1023D0000C49019401600D4984604160632184616E
:1023E000C160FFF7A5FB002801D0FEF7A7FB009412
:1023F000694605480194FFF76BFB002801D0FEF702
:102400009DFB1CBD00100040000600207FBB0000AB
:10241000FEE77047704710B5FFF74AF810BD30B5BA
:1024200091B030216846FDF7D3FE002411200F94AF
:102430000090012001900590102006900E9400035A
:10244000099000010D9402250A900C9408950B94B4
:102450006846FFF75FF9002801D072B6FEE7072053
:102460000C900E9401210D950F940CA8FFF78EF897
:10247000002801D072B6FEE711B030BD70470000F1
:1024800010B50248FFF781FC10BD0000480600208F
:1024900010B50248FFF779FC10BD0000B805002018
:1024A00010B50248FFF771FC10BD000000060020C7
:1024B000F0B502681D4B0124A4071D4D984203D0BE
:1024C000A04201D0A84203D17026B2434E683243E5
:1024D000184E194F98420DD0A0420BD0A84209D0F7
:1024E000164CA04206D0B04204D0B84202D0144CE0
:1024F000A04204D103242402A243CC6822438024B6
:10250000A2434C69224302608A68C2620A688262FE
:10251000984206D0B04204D0B84202D0084A904255
:1025200001D10969016301214161F0BD002C014025
:1025300000040040004001400044014000200040F1
:102540000048014030B58468FF252D021B0213436B
:10255000AC430B432343836030BD826870239A43AE
:102560000A4307210A438260704730B5036A046A50
:102570006408640004628469F025AC4312012243BC
:102580000A24A3430B438261036230BD30B5036A62
:102590001024A34303628469036A0F252D031203E9
:1025A000AC432243A024A343090119438261016281
:1025B00030BD000070B516460D460446FEF77CFEA1
:1025C0000A48002162C00A490C38FEF7DDFD2246A8
:1025D000002329460220FEF731FE002803D10449DA
:1025E00001201C398867FEF71FFE70BDC004002063
:1025F0001C000020F0B50A4C0A4B00218A00002084
:10260000A2584D011646C6402F18F607F60FBF0018
:10261000401CDE512028F5DB491C0329EEDBF0BD10
:10262000E0040020400300202021020C01D01021F2
:102630001046020A01D010460839020901D010469E
:10264000091F820801D01046891E420801D0881E49
:102650007047081A7047F8B5040C8BB2264682B250
:102660005E430D0C1046370C584336048019002188
:10267000794116466E43370C360480197941264657
:102680006E438919F8BD00008307FF22DB0E9A40D4
:102690008907090E9940002808DB830809489B0038
:1026A0001B18186890430843186070470007000F14
:1026B0000838830804489B001B18D86990430843D6
:1026C000D861704700E400E000ED00E002E008C8D7
:1026D000121F08C1002AFAD170477047002001E09C
:1026E00001C1121F002AFBD17047000010B5012262
:1026F00040210248FEF7CFFE10BD00000004004854
:1027000010B5002240210248FEF7C5FE10BD0000B2
:1027100000040048002808D07D23DB00194602226F
:10272000521C8A42FCDB401EF8D1704710B50122D2
:1027300080210248FEF7AFFE10BD000000040048F3
:1027400010B5002280210248FEF7A5FE10BD000052
:102750000004004810B5FFF7D3FF0520FFF7DAFFAC
:10276000FFF7C4FF0220FFF7D5FFFFF7C9FF10BD39
:1027700010B5FFF7BBFFFFF7D9FF0220FFF7CAFF35
:10278000FFF7DEFF10BD10B5FFF7BAFF0220FFF71D
:10279000C1FFFFF7D5FF0220FFF7BCFFFFF7A6FF41
:1027A0000220FFF7B7FFFFF7C1FF10BD70B5044669
:1027B0000025FFF7A5FFE00702D0FFF7B7FF01E014
:1027C000FFF7BEFF0320FFF7A5FF6408FFF78EFFAA
:1027D0000320FFF79FFF6D1C082DEADB70BD000092
:1027E00010B5FDF7A3FF054A054BFDF783FE054A2B
:1027F000054BFDF7CDFDFDF7D5FF10BD3F575BB194
:10280000BFEC8E3FEC2FBB270F0BA53FF1B582B07D
:102810000298FDF78BFF164A164BFDF76BFE0F462D
:10282000029906460846FDF737FD0090FDF77EFF4A
:10283000114A124BFDF75EFE04460D4602990098C0
:10284000FDF72AFDFDF772FF0D4A0E4BFDF752FE14
:1028500022462B46FDF79CFD32463B46FDF73CFEEB
:10286000094A0A4BFDF794FDFDF79CFFFEBD0000F1
:102870008250620076A8D43FBABB10A3CE79393F0C
:1028800093C92565BDDE8EBEB537D7B4BB015F40A9
:10289000F8B5224801250446016F8034012912D081
:1028A0000246506D00260A27926C009203290CD034
:1028B000042909D1FDF714FF0099FDF7E5FCA907EC
:1028C00088420CDB18E0A561F8BD4042FDF708FF27
:1028D0000099FDF788FC01218907884201DAA66189
:1028E000F8BD0F4942180F498A4201D2A761F8BDCD
:1028F0000D498842E7DCF8BD09490A4A43180749EF
:102900009342C96C03D209488142EFDAE7E7064AED
:102910009042F0DD06488142E8DBD4E70000002069
:10292000FFFFBFBFFFFF7F000000E0400000084244
:102930000000144270B501F009FD1F4801690A68E2
:102940001E490A60426912684A60806900688860AE
:10295000FFF750FE00F0CAF81948FFF781F919484F
:10296000FFF77EF91848FFF753F913490322D031D6
:102970001648FEF7F9FA01220925D403ED0621468F
:102980002846FEF788FD3220FEF7ECFB00222146A8
:102990002846FEF780FD3220FEF7E4FB01222146A7
:1029A0002846FEF778FD3220FEF7DCFB00222146A8
:1029B0002846FEF770FD70BD00000020E0040020F6
:1029C00048060020B805002070050020EC04002017
:1029D000F8B50125AD0209246E10AF10E406401CC5
:1029E0005DD001280AD002283AD00B2856D12946BA
:1029F0002046FEF743FD002822D11BE02946204651
:102A0000FEF73CFD002805D131462046FEF736FD95
:102A100000280CD0002231462046FEF73CFD002263
:102A200029462046FEF737FD6420FEF79BFB012276
:102A3000394630E039462046FEF720FD00280CD00C
:102A4000002239462046FEF726FD00222946204670
:102A5000FEF721FD6420FEF785FB012231461AE0D6
:102A600031462046FEF70AFD002805D139462046AA
:102A7000FEF704FD00280CD0002239462046FEF760
:102A80000AFD002231462046FEF705FD6420FEF7D0
:102A900069FB012229462046FEF7FDFCF8BD002215
:102AA00039462046FEF7F7FC002231462046FEF765
:102AB000F2FC0022EEE70000F0B50A480A4C0022C2
:102AC00000219300C15055016F18BF00E759C65847
:102AD0008F403E43491CC6502029F5DB521C032A77
:102AE000EEDBF0BDE004002040030020F8B5FFF766
:102AF00035FA8349002808647ED00020814C0864A0
:102B0000626E4D6B5300D3180A468032AB4206D03A
:102B1000002D04D1506110617B4D4866A8609C4631
:102B20004B630B6F64269E46764B0A2780335D69A4
:102B300075439E697E43AD19DE69AE190125652E88
:102B40000CD004DC012E07D00B2E11D10AE06E2E22
:102B50000AD06F2E0CD10AE00D6701E0022604E0D6
:102B6000486705E0032600E004260E67F8E74D6796
:102B70006349096F8E4508D061494E6F002E04D11C
:102B8000506110614866604988605E6A196A760023
:102B900089199E6ADF6AB600FF001B6BF619891956
:102BA0001B01CB18564910334B65636D0A267343DE
:102BB000A66D9B190B2B0BD093619063A36C0A2617
:102BC0007343E66C9B198B660B2B03D0012602E046
:102BD0009563F3E700264C4B49491E61236DCB6793
:102BE0008B6B48498039002B04D1CB6B012B01D171
:102BF000434B5864434900E080E080394E6A0B6AD9
:102C000076009B198E6ACF6AB600FF00F619096B31
:102C10009B1909013A4F5918BB6D994200D0906435
:102C2000384B803BDB6B5E009B19BB6300D137499F
:102C3000B965216E4B00C918F96300D0F860314CBA
:102C4000803CE16E012902D0002903D003E0156227
:102C5000956100E010626046002821D0042001F058
:102C6000A7FB7D21786DC9004843796B64225143ED
:102C70004118B86B0A2250430818F96B4018786263
:102C8000396F012901D0022902D1796F002903D0BF
:102C9000002101F0A9FA06E0002101F013FB02E097
:102CA000002001F085FB786B002804D0206C8006A2
:102CB000000E01F07DFBFFF7FFFE134C02221434DF
:102CC00020683969FFF776FC022260687969FFF7AE
:102CD00071FC0322A068B969FFF76CFC0122092589
:102CE000D403ED0621462846FEF7D5FB3220FEF739
:102CF00039FA002221462846FEF7CDFBF8BD000038
:102D000000000020C0030020CC0400201027000099
:102D100010B50720FEF71AFC012149030748FEF70A
:102D2000ADFB002803D100F0D3FEFFF7DFFE04491E
:102D3000002088620720FEF719FC10BD000800483B
:102D400000000020FEF7BCFBFFF769FBFFF754FA19
:102D5000FFF73EFAFFF7B4FAFFF7F6F9FFF7CAFA02
:102D6000FFF7FCFAFFF730FBFFF7E4FD0E4C002500
:102D70002646803EE06A002802D000F0F3FEE562BD
:102D8000206B002802D001F0BFF8256300F00EF898
:102D9000A06B012801D1FFF77BFDB06A0128E9D1C2
:102DA000FFF7B6FFE6E7000080000020F8B5F44822
:102DB0000126406F0025F34C002829D0F048F24B43
:102DC0000146826C096F9A4203DD032901D0032179
:102DD00006E0EE4FEE4BBA4204DA042929D0042172
:102DE00001670FE0042924D0032925D004290FD03E
:102DF000BA420DDD01290BD0032909D0E2498A42EC
:102E000006DA0667DE4980314D610D614566A560D1
:102E1000DB48E04F006F01287ED002287DD00328D8
:102E20000DD004287AD1D64880304069002876D069
:102E3000A9E39A42E5DCEBE79A42E2DBD8E7D04827
:102E40008030406900284FD101214903D248FEF764
:102E500015FB00280FD0012100224903CE48FEF7C0
:102E60001AFB012100228903CB48FEF714FBC4485A
:102E7000C565056638E00121C903C748FEF7FEFABB
:102E8000002818D0BE48006EFDF73CFC0022D2435B
:102E9000FDF710FC0022C14BFDF794FB012300223B
:102EA0009B07FDF76BFC06D201214903BA48FEF7E8
:102EB000E5FA002807D001214903B748FEF7DEFAFA
:102EC000002807D010E001210022C903B248FEF714
:102ED000E2FA09E00121C903AF48FEF7CFFA002862
:102EE00002D1A74880304661A548416B032930D004
:102EF000002997D180304069012893D14103A64829
:102F0000FEF7BCFA002812D0012100224903A24892
:102F1000FEF7C1FA002203E0FCE34BE1D1E0ABE2B3
:102F2000012189039C48FEF7B6FA9548C565944986
:102F300080310869002870DB9948F862A660552046
:102F4000C000266060608E4845660020C043E56092
:102F500064E28B4980314A69012ACAD10969002992
:102F600001DB0A2903D1864980310D614566844819
:102F7000406DFDF7B5FB8249896CFDF789F90121A8
:102F80008907884204DC7E488030006A00280BD024
:102F9000012149038048FEF771FA002804D17848DE
:102FA0008030006C002839D07548406F002853D01D
:102FB000002040004042FDF793FB00907048406DB8
:102FC000FDF78EFB6E49896CFDF762F90099FDF7FC
:102FD00005FC04D26A488030006A002804D06848A2
:102FE0008030006C002847D06548C06EFDF78AFB32
:102FF0000022D243FDF75EFB0022684BFDF7E2FAA8
:103000000022684BFDF7BAFB36D201214903624822
:10301000FEF734FA012821D02EE071E05848C06D47
:10302000FDF770FB0022D243FDF744FB00225B4B0F
:10303000FDF7C8FA00225B4BFDF7A0FB1CD2012272
:1030400051035548FEF727FA012291035248FEF733
:1030500022FA4B48C5660FE00120AAE701210022B1
:1030600049034D48FEF717FA0121002289034A4817
:10307000FEF711FA4248C565414880308069FFF784
:10308000A7FC3F48803003698038426E19461143DF
:1030900075D001468031002B08D0012B0BD0022BBC
:1030A00012D0032B0DD1002A16D023E0A268002AEB
:1030B00007D10E6122E0002A7AD01BE02661E5608C
:1030C0006060F8BD022205E0002A72D0A268002AE2
:1030D000F7D103220A6111E03349F9620221A660A7
:1030E0002160FF219131C9E3806E0B287ED0012041
:1030F0002061F8BDA268002AE4D0F8BD4566F8BD9D
:10310000A268002AFBD1411C03D0821C18D0C01C2D
:10311000DBE02348F8620220A66020604120C00066
:10312000174F60607D66FEF7FFFE002800D001208B
:103130001E214843E060124880304560BE66FDE3D2
:103140000F48456680304068FDF7DCFA0022D24324
:10315000FDF7B0FA0022154BFDF710FB03D3FEF785
:10316000E3FE0028CBD10E48F8620020C043FFF7F1
:103170002FFC02200249C0438031086172E1A3E1C3
:1031800000000020CC0400200000D8410000B8411D
:103190000000C841000400400004004800004E4008
:1031A000C3090000000008408713000000003E40F3
:1031B000FEE3FEE3F8484069002855D101214903A8
:1031C000F648FEF75BF9002811D0012100224903DF
:1031D000F248FEF760F9012100228903EF48FEF76B
:1031E0005AF9ED488038C565056635E04AE30121A6
:1031F000C903EA48FEF742F9002819D0E6488038AA
:10320000006EFDF77FFA0022D243FDF753FA002249
:10321000E34BFDF7D7F9012300229B07FDF7AEFA38
:1032200006D201210022C903DC48FEF734F913E07D
:1032300001214903D948FEF721F900280CD10121C9
:10324000C903D648FEF71AF9002805D1D2484B2108
:10325000466109014560C161FEF766FE002803D0A2
:103260000020C043FFF7B4FBCB488038416B0329F3
:1032700030D0002900D042E7803040690128FAD1DF
:103280004103C648FEF7FAF800280ED001210022BB
:103290004903C248FEF7FFF8012100228903BF4815
:1032A000FEF7F9F8BC488038C565BB4908690028B5
:1032B00000DB41E6A268002ADDD1411C7ED0B64980
:1032C000821C7CD0C21C7BD0001D0028D3D1B24808
:1032D000803813E7B0494A69012ACCD1096900292D
:1032E00001DB0A2902D1AC490D614566AA48803844
:1032F000C06DFDF707FA0022D243FDF7DBF900228B
:10330000A74BFDF75FF90022A64BFDF737FA24D251
:1033100001214903A148FEF7B1F800281DD19E48BC
:10332000C069FDF7EFF90022D243FDF7C3F900228F
:103330009B4BFDF747F900229B4BFDF71FFA0CD280
:103340009A48F862012251039448FEF7A4F801223A
:1033500091039248FEF79FF826E0012149038F4828
:10336000FEF78CF8012821D18B48C069FDF7CAF916
:103370000022D243FDF79EF90022894BFDF722F986
:1033800000228B4BFDF7FAF910D2012100224903EC
:103390008248FEF780F80121002289037F48FEF76A
:1033A0007AF87D488038C5657B48C5617A48806970
:1033B000FFF70EFB78480269803802E017E02FE043
:1033C00035E0436E114619437ED07349002A00D17F
:1033D0006CE6012A00D092E6002B00D08AE6734802
:1033E000F8620220A6602060FF20693066E66F4820
:1033F000F8620220A66020604120674FC000803F35
:1034000060607D66FEF790FD002800D001201E213F
:103410004843E06001206049C043BE660861F8BDD2
:103420005D48803845660220C0434D60F6E75A4843
:103430004068FDF767F90022D243FDF73BF900220F
:103440005C4BFDF79BF903D3FEF76EFD0028E6D138
:103450005648F8620020C043FFF7BAFA03214E48ED
:10346000C94301610220A6602060F02060604A48E4
:1034700080384566E560F8BD012149034748FDF7FE
:10348000FDFF00280FD00121002249034348FEF729
:1034900002F80121002289034048FDF7FCFF3E4865
:1034A0008038C56505660121C9033C48FDF7E6FF84
:1034B000002806D0012149033848FDF7DFFF002826
:1034C0002ED03548803800E0BFE2006EFDF71AF9D3
:1034D0000022D243FDF7EEF80022314BFDF772F8DF
:1034E0000022354BFDF74AF934D32B488038006E63
:1034F000FDF708F90022D243FDF7DCF80022284B43
:10350000FDF760F8012300229B07FDF723F92AD27B
:103510000121C9032148FDF7B1FF00281AD022E09C
:103520001D488038006EFDF7EDF80022D243FDF70C
:10353000C1F800221A4BFDF745F8012300229B0732
:10354000FDF71CF91FD201210022C9031348FDF722
:10355000A2FF18E0FEF7E8FC002804D00E488038EF
:10356000406F002809D0FEF7DFFC002809D00A4888
:103570008038406F012804D005E00020C043FFF7E9
:1035800027FA0548466104488038416B032947D033
:10359000002913D06FE700008000002000040048DD
:1035A00000004E400000084000001C40C30900001D
:1035B0000000144000003E4000000440803040699C
:1035C0000128E7D14103FB48FDF758FF00280ED042
:1035D000012100224903F748FDF75DFF0121002288
:1035E0008903F448FDF757FFF348C5650566F248BF
:1035F000006EFDF787F80022D243FDF75BF800224A
:10360000EE4BFCF7DFFF012300229B07FDF7B6F826
:1036100005D201210022C903E648FDF73CFFC4E1C1
:10362000E54980314A69012AB4D10969002903DAE0
:10363000E14980310D614566DF48E149C06C88424F
:1036400010DD01214903DB48FDF718FF012804D1F3
:10365000D94880308069FFF7BBF9D748803040698E
:1036600001287DD1D448406DFDF73AF8D249896CE4
:10367000FCF70EFE03218907884204D8CE4880302B
:10368000006A002806D001214903CA48FDF7F6FE6A
:1036900000281CD0C848406F00283CD000204000C3
:1036A000FDF729F80090C448406DFDF719F8C249AC
:1036B000896CFCF7EDFD0099FDF79AF857D20121CE
:1036C0004903BC48FDF7DAFE012826D04FE0BA488E
:1036D000C06DFDF717F80022D243FCF7EBFF002284
:1036E000B64BFCF76FFF0022B64BFDF747F83ED212
:1036F00001225103AF48FDF7CEFE01229103AD48F0
:10370000FDF7C9FE0122D103AA48FDF7C4FEAA486D
:10371000C5662CE0FDE00120C1E7A7488030006AC3
:10372000002824D1A448416F002920D1C06EFCF7A5
:10373000E9FF0022D243FCF7BDFF00229F4BFCF7BC
:1037400041FF00229F4BFDF719F810D20121002202
:1037500049039848FDF79FFE00220121890300E0FC
:103760005AE09448FDF797FE9348C5650566012128
:1037700049039048FDF782FE002836D10121C90394
:103780008C48FDF77BFE01282FD18B48416F002923
:103790002BD1006EFCF7B6FF0022D243FCF78AFF64
:1037A0000022864BFCF70EFF0022874BFCF7E6FF5A
:1037B00003D20020C043FFF70BF97F48006EFCF7EF
:1037C000A1FF0022D243FCF775FF00227B4BFCF7E0
:1037D000F9FE012300229B07FCF7D0FF05D201214F
:1037E0000022C9037348FDF756FE012149037148C1
:1037F000FDF744FE01280FD16F487449C06C884220
:1038000001DD002203E07249884205DA012201212C
:1038100089036848FDF73FFE6748803002698038B9
:10382000436E114619430BD001468031002A00D166
:103830003CE4012A0ED0022A17D0032A24D03AE011
:103840006448F862A660266055202661C000E560E5
:10385000606030E0002B00D04CE45E48F86202204B
:10386000A6602060FF20B93028E4002B00D02DE4B2
:103870005949F962A660FF214131266061601E212D
:10388000E16031E4002033E4002B26D0A06800285A
:1038900000D0F0E5012149034648FDF7EFFD00287F
:1038A00026D0FEF741FB002822D00221424880307A
:1038B000016180384566404C803420690A28E8D18F
:1038C000012149033B48FDF7D9FD0128E1D1FEF76D
:1038D0002BFB0028DDD002200AE43F48F8620220DA
:1038E000A6602060FF204130E56060603248C8E794
:1038F0000A21DBE70161F8BDA268002AFBD14A1C5E
:103900006CD0891CF7D12C494D660221C943456012
:10391000F0E7012149032748FDF7B0FD002818D042
:103920000121002249032348FDF7B5FD01210022B2
:1039300089032048FDF7AFFD1F4800E0BFE00121EB
:10394000C565C9031B48FDF799FD002801D01A4839
:1039500005660121C9031748FDF790FD00281ED018
:10396000012149031348FDF789FD002817D11248AA
:10397000006EFCF7C7FE0022D243FCF79BFE00223C
:103980000E4BFCF71FFE012300229B07FCF7F6FEFF
:1039900005D201210022C9030648FDF77CFD064837
:1039A000406B03282FD00028A5D10020C04316E08B
:1039B0005EE06DE0000400480000002000004E4082
:1039C0000000F041000008400000F83F00003842CD
:1039D00000003042C30900008713000061E0FEF7D9
:1039E000F7FF38480169002986DB3749F962A6608C
:1039F0005521C90026606160014680394D6600216D
:103A0000C943E56076E72F4801690A2901D00029FA
:103A100003DA2C49056180394D662A488069FEF732
:103A2000D7FF284801698038426E0B4613430CD0FB
:103A3000244B002910D0012913D0022920D00329BA
:103A4000B2D1002A0FD1FFF747FB1F48F862A660EA
:103A50005520C0002660C9E4A1680029A4D11E61D8
:103A600037E4002A04D0A16800299DD102210DE08D
:103A70001548F8620220A66020604120C000B5E42D
:103A8000002A05D0A16800298ED10321196120E404
:103A90000E49F962A660FF2126609131E560616000
:103AA000EFE60949F9620221A6602160B921890087
:103AB0006160044980391E224D66E2608E660121F4
:103AC000C94317E780000020C309000087130000E6
:103AD000F8B50126204D760331462846FDF7CEFC89
:103AE0000028F9D031462846FDF7C8FC0028F9D156
:103AF0001A4C0027E762276331462846FDF7BEFCD3
:103B00000028F9D008E0206B401C2063A068FDF776
:103B100007F8206B322805DC31462846FDF7AEFC5D
:103B20000028F0D1A168206B48434B21090188424D
:103B300005DDE06A012182000948815003E0E06A66
:103B4000810007484750E06A401CE0626028D2DBF1
:103B50006068FDF707FBF8BD000800480000002082
:103B600040030020F8B501214903DC48FDF786FC3D
:103B700000282ED00020DA4CD84DE16D40180121EC
:103B8000E06549032846FDF779FCE16E6F014018B6
:103B9000E06639462846FDF771FC216E254640183F
:103BA0008035206668680126401C6860E869401C12
:103BB000E861E068401CE060606C401C6064A86CD8
:103BC000401CA864206A401C2062206F042802D098
:103BD00005E00120CFE7FEF7A7F900280AD0206F03
:103BE000032801D0022822D13946BC48FDF746FC03
:103BF00000281CD0A16B002902D0A86C0F283ADD48
:103C0000E06B002834D17D23626DDB00E0685A430D
:103C1000C30F1B185B085B00C01AFF232D335843EA
:103C200010180A22514340186062216F1BE0216F77
:103C3000042903D0032901D0022919D1A06B00283F
:103C400002D0AA6C0F2A16DDE26B002A10D17D2368
:103C5000626DDB005A43636B64277B43D2180A23EF
:103C600058431018606202291ED0002100F0BCFAEF
:103C7000A06B00286CD0A86C0A2819DAC007C017FE
:103C80008000001D00F094FB7D21A06DC900484319
:103C9000616B642251434118A06B0A2250430818FB
:103CA000E16B4018606230E0002100F00BFBDFE7C1
:103CB0000F282DDAE06B00280DD0E068FCF722FD1C
:103CC0000022D243FCF7F6FC0022864BFCF756FD9F
:103CD00001D2002000E0042000F06AFB7D21606D2D
:103CE000C9004843616B642251434118A06B0A220A
:103CF00050430818E16B40186062216F012901D020
:103D0000022902D1616F00297ED0002100F06CFAF7
:103D1000A06DFCF7F7FC07460091606CFCF7F2FC25
:103D20000022D243FCF7C6FC00226F4BFCF74AFC92
:103D30003A46009BFCF722FD0AD8206C002807D0E9
:103D40006A490020C86380314E644866FEF7CEFEA3
:103D5000E06B00280DD0E068FCF7D4FC0022D243D1
:103D6000FCF7A8FC00225F4BFCF708FD01D200F035
:103D700073FA00275A483D4680308760C7605C4828
:103D80007900405AFCF7B7FC2946FCF72CFA7F1C57
:103D90000546642FF3DB524D56498035EF60FCF742
:103DA000B8FA0746A860686AFCF79AFC00903846A3
:103DB000FEF72CFD0099FCF716FA494900278864A4
:103DC000AF60EF603D462C4649486900C830405A14
:103DD000FCF791FC2146FCF706FA6D1C0446642DA5
:103DE000F2DB3F4C43498034E560FCF792FA05462C
:103DF000A060A06AFCF774FC00902846FEF706FD60
:103E00000099FCF7F0F900E036E035493D46C8641A
:103E1000A760E7603C4635486900C838405AFCF75F
:103E20006AFC2146FCF7DFF96D1C0446642DF2DBC9
:103E30002B4C30498034E560FCF76BFAA060FEF74C
:103E4000CFFC274D0121286549032448FDF716FBC7
:103E500000281AD0E86EFCF755FC0022D243FCF78C
:103E600029FC0022244BFCF789FC0ED22349286D43
:103E7000884205DD666308E0002100F023FA47E789
:103E80001F49884201DA02206063286F032801D0AD
:103E900002280ED11B49E86C884202DA216C002905
:103EA00008D01649884204DD206C012801D127641E
:103EB0002F62F8BD286AFCF725FC0022D243FCF7EC
:103EC000F9FB0022084BFCF77DFB012300229B0736
:103ED000FCF754FCEDD22664F8BD00000004004855
:103EE00000000020000024400020AC4040030020DF
:103EF000E80000200000C84200003E4000004041B1
:103F0000000040400000A040F8B5B249B24C0D4658
:103F1000D03D28880B884200A3524B88C834A35256
:103F200023468988C83399526421401CFCF7DEF887
:103F3000AA4E29802C46B0688034012869D1E06BF4
:103F4000401CC117890F091889088900401AE063CD
:103F50003169002901D0032811D00020696E9F4AE1
:103F600040186866012173688902126883426FDB1A
:103F70009B4F012A05D03840032812D003E00120CE
:103F8000ECE780070DD00022012189029548FDF75A
:103F900082FA30680128686E05D03840022812D0B5
:103FA00004E00122F0E7384001280CD0002204216F
:103FB0008C48FDF770FA30680128686E05D03840EB
:103FC000012811D004E00122F1E7384002280BD08B
:103FD000002202218348FDF75EFA30680128686EEE
:103FE00004D0800716D004E00122F2E7384003280D
:103FF00010D000227B4F01213846FDF74CFA0121F9
:1040000089023846FDF73AFA00280ED0E06B002806
:1040100002D066E00122EDE73068012802D10122DA
:10402000114613E00122042110E004213846FDF777
:1040300025FA00280DD0E06B002852D13068012805
:1040400002D10122910201E001220221384646E01C
:1040500019E002213846FDF711FA002806D0E06B7E
:1040600000283ED130680128DCD0D8E7012138464D
:10407000FDF704FA002834D0E06B002831D1306815
:104080000128E1D0DDE7AF6E012F0CD12F6F012F9A
:1040900003D0032F01D0022F01D1022A2AD0042FEE
:1040A00001D1012A26D0002232277A43F7687A43C9
:1040B000D218824215DC0020B0604A4E02463046DB
:1040C000FDF7E9F9002204213046FDF7E4F900226A
:1040D00002213046FDF7DFF9002201213046FDF7CD
:1040E000DAF90927E86FFF0600285CD0686B03281F
:1040F00002D058E00122D7E7FDF716FF002852D082
:104100002068810743D1364DE12636010C35B04297
:1041100002DA000710D002E028400C280CD0002260
:10412000012109032F48FDF7B6F92068B04205DAEE
:104130002840042811D004E00122F1E72840082893
:104140000BD0002220213846FDF7A5F92068B042A7
:1041500005DA2840082811D004E00122F2E72840BF
:1041600004280BD0002240213846FDF794F920683E
:10417000B04205DA28400C2813D003E00122F2E710
:1041800000070ED0002280213846FDF784F9206810
:10419000E121401C49012060884201DB00202060B1
:1041A000F8BD0122EFE70121002209030D48FDF7C8
:1041B00072F9002220213846FDF76DF900224021D6
:1041C0003846FDF768F9002280213846FDF763F98B
:1041D000F8BD0000D0000020E8000020CC04002042
:1041E0000300008000040048F3B583B00024194E9A
:1041F00080276D460A21FBF78FFF715C2955022C41
:1042000006D10499002903D06A4691783943917008
:10421000641C052CEEDBFEF7ABFA4020FEF7C6FA75
:10422000FEF798FAFEF7AFFAFEF7A2FAC020FEF703
:10423000BDFAFEF78FFA00240426301B285CFEF737
:10424000B5FAFEF787FA641C052CF6DBFEF79BFA3D
:1042500005B0F0BDCA4300087CB500206C46802143
:1042600003E0002801D0022801D1402200E0002212
:104270002254022820D0401C0528F2DBFEF778FAF1
:104280004020FEF793FAFEF765FAFEF77CFAFEF798
:104290006FFAC020FEF78AFAFEF75CFA00250426C2
:1042A000701B205CFEF782FAFEF754FA6D1C052D98
:1042B000F6DBFEF768FA7CBDA0780843A070032007
:1042C000D5E70000F3B583B000246D461E4F80266D
:1042D00003E0022C01DD402004E00A210398FBF7F3
:1042E0001BFF785C2855022C06D10498002803D0C7
:1042F00069468878304388700A210398FBF70CFFE1
:10430000641C0390052CE4DBFEF732FA4020FEF734
:104310004DFAFEF71FFAFEF736FAFEF729FAC0202B
:10432000FEF744FAFEF716FA00240426301B285C38
:10433000FEF73CFAFEF70EFA641C052CF6DBFEF7DE
:1043400022FA05B0F0BD0000CA43000810B51648B7
:1043500086B04269012189040A43426142690A40E8
:10436000059242690A434261406908400590142160
:104370006846FBF72DFF01200290112001900320D9
:1043800003904020094C009069462046FCF7BEFF90
:104390008020009069462046FCF7B8FF082000F016
:1043A00007F806B010BD00000010024000040048ED
:1043B00010B50446FEF7DCF98734E0B2FEF7F6F9F3
:1043C000FEF7C8F9FEF7DFF910BD3F065B4F666DDB
:1043D0007D077F6F777C395E7971000000000000F7
:1043E0000000000102030406070809000C4400084D
:1043F00000000020E8000000CC260008F44400087B
:10440000E8000020C8090000DC26000800000000C9
:1044100000000000640000000000000000E0000850
:1044200000E4000800E80008000000004038000038
:10443000000000000000000000000000000000007C
:10444000000000000000000000000000000000006C
:10445000000000000000000000000000000000005C
:10446000000000000000000000000000000000004C
:10447000000000000000000000000000000000003C
:10448000000000000000000000000000000000002C
:10449000000000000000000000000000000000001C
:1044A000000000000000000000000000000000000C
:1044B00000000000000000000000000000000000FC
:1044C00000000000000000000000000000000000EC
:1044D00000000000000000000000000000000000DC
:1044E00000000000010000000400000000000000C7
:0444F00000127A003C
:04000005080000BD32
:00000001FF
