:020000040800F2
:10000000680A0020D1000008BD220008DF1F000898
:1000100000000000000000000000000000000000E0
:10002000000000000000000000000000C1220008E5
:100030000000000000000000BF220008C3220008EA
:10004000E3000008E3000008E3000008E300000804
:10005000E3000008E3000008E3000008F9090008D5
:10006000E30000088D090008E3000008E300000831
:10007000E3000008E3000008E3000008E3000008D4
:100080003D230008E3000008000000002D230008C5
:10009000E3000008E3000008E3000008E3000008B4
:1000A000E3000008E3000008E3000008E3000008A4
:1000B000E300000800000000E30000080348854654
:1000C00000F0C8FB00480047A9290008680A002082
:1000D0000448804704480047FEE7FEE7FEE7FEE7E6
:1000E000FEE7FEE729230008BD00000830B50B46F7
:1000F000014600202022012409E00D46D5409D4202
:1001000005D31D469540491B254695404019154687
:10011000521E002DF1DC30BD70B5002425460028AC
:1001200001DA01244042002901DA01254942FFF7A2
:10013000DDFFAC4200D04042002C00D0494270BDEF
:10014000F0B51FB40646002082B005464024019158
:1001500000901BE0019922460F46304600F020F83F
:10016000049A059B801A994110D3104619462246DD
:1001700000F0ACFA361A8F41019722460120002187
:10018000009F00F0A3FA38184D4100902046641EED
:100190000028DFDC019B00982946324607B0F0BDFD
:1001A00010B5202A04DB0846203AD040002110BDBB
:1001B0000B46D340D0402024A21A91400843194650
:1001C00010BDD2B201E00270401C491EFBD2704744
:1001D0000022F6E710B513460A4604461946FFF713
:1001E000F0FF204610BDF8B502464A40D40F420049
:1001F0004B0052085B089A4202D20246084611465A
:100200004A0023D0C30D4A00DDB2120EAD1A202DD4
:1002100035DA49020126490AF6058A19002C00D070
:10022000524220214F1B1146B9402A411018C20DDD
:100230009A4221D0002C17D0012D08DCDA05801A53
:10024000D20F8019D207DBB200F06BFAF8BDDA05E5
:10025000801A012340001B06C01880185A428018DB
:10026000CA0F1043490007E04908C2071143DA05E5
:10027000801A80194008801800F04BFAF8BD610020
:100280000122511A001BF7E70122D2075140AAE7C9
:100290000122D2075040A6E7F0B50746084658406D
:1002A00087B0C00F049048000E4659004008490826
:1002B000BC1A884105D2384631461E4617460B46C1
:1002C00002465800400810434CD0300D03904005C2
:1002D0005900400D490D0590401A0290402872DAED
:1002E00018030121000B09050843019004980092AE
:1002F000002805D0019952420020884100920190C7
:10030000029840210A1A0199009800F0DFF9054689
:100310000C466B4607CB00F0E9F9C0197141039A0E
:100320000E0D0023D71756401A467A40164344D084
:10033000049A002A2DD0029A012A039A15DC12058C
:10034000C01A914101263605001C7141D20F059E4D
:10035000D2070093019202962A46234600F027FA1C
:1003600007B0F0BD38463146FAE71605224A0F4677
:10037000B218C01AB74101210905001C4F410018ED
:100380007F41114618187941E20F10436D196441FD
:1003900013E0E2076D0815436408C2071443039A8B
:1003A00001261205C01A91413605001C7141CE0785
:1003B000400830434908C01851412A46234600F0FE
:1003C000E9F9CDE7FFE7049801224000C117121AAE
:1003D00000238B4104983146C417381AA141EEE737
:1003E00030B40124E407634030BC55E730B4012445
:1003F000E407614030BC4FE70000E0FFF0B51FB4F8
:1004000088B00B990998002448400999C00F490009
:1004100049080991C0070B990090490049080B91C0
:1004200009990898A64608431CD00B990A980843D6
:1004300018D0099801244000420D4800410D099848
:1004400024050003000B204309900B980003000BC8
:1004500020430B9050181C4940180022019014466C
:10046000104605E0002001460DB0F0BD032801DA7A
:10047000034600E003239C46C11A0AAE0AE05F006F
:1004800008ADED5B4F00F75B7D430027AA187C4168
:10049000491C5B1E6145F2DD410004AB5A52210448
:1004A000120C0A43240C401C0828DFDB0198029040
:1004B0000099704601910090059B049A079906984F
:1004C00000F075F9D0E700000DFCFFFFF0B50C4619
:1004D0005C4085B0E40FE40703944C0000266408F8
:1004E00059009446490802460296224321D06246AA
:1004F0000A431ED06200570D4A000E032303550D18
:10050000012402462C492405781B1B0B360B40188E
:1005100023432643614600901C46501AB44103D33E
:100520000098401C009002E0921800985B4100285F
:1005300003DA0020014605B0F0BD002001210905C5
:100540000746864611E064461D46141BB54106D396
:100550006546521BB341744607430C43A646CD077C
:1005600040084908284392185B4105460D43EAD1EB
:100570001046184313D06046194650407140084356
:1005800006D06046101AB34106D20122002306E0CD
:1005900000220123DB0702E00122D243531000981E
:1005A00074460105381C6141029C039D0019694194
:1005B00000F0F0F8BFE70000FD03000070B54B004D
:1005C0005B0803430BD04B005C0D002633466542AD
:1005D000B341D417AD1AA34102DB0020014670BD20
:1005E00012053018514170BDC217C10F504010B5EF
:1005F0004018CA079623002100F093F810BD0000B0
:100600000EB5C217C10F5040CA0740180021054B54
:100610000293019200910A460B4600F0C8F803B01D
:1006200000BD0000330400000EB505490291002111
:1006300000910A460B46019100F0B9F803B000BDE5
:100640003304000010B5002904DB0124E407404214
:100650008C412146002B04DB1C460123DB07524260
:10066000A341994200D1904210BD0000CB0FDB079F
:10067000490010B5490802460A4307D00A0D07246D
:100680000903E401090B121B002A01DC002010BD44
:10069000C900440F0C43C100E018D205801800F0D7
:1006A00038F810BD0122D207002800DB101A0029FB
:1006B00000DB511A814270470122D207002800DB7B
:1006C000101A002900DB511A8842704710B5202A01
:1006D00004DB0146203A9140002010BD91402023C8
:1006E0009C1A0346E3401943904010BD10B5202AE0
:1006F00006DBCB170846203A1041C1170B4306E032
:100700000B461341D0402024A21A914008431946B9
:1007100010BD002904DA401C490001D14008400006
:10072000704770B40024050C05D11024000402D1D8
:10073000002921D01124050E01D100020834050F33
:1007400001D10001241D850F01D18000A41C0028C7
:1007500001DB4000641C002908D020252E1B0D461B
:10076000F540A14000D001212943084301061B1B8D
:10077000000ADB1D02D5002070BC7047DB0518188D
:1007800080180029F8DA401C4900F5D170BC4008F7
:100790004000704710B5002B08DA0024401C61416E
:1007A00092185B411A4301D14008400010BDF0B5DA
:1007B0001FB482B005460C0003D0084601F068FE65
:1007C00002E001F065FE20300246009021462846F6
:1007D000FFF77CFF049B059A04460F46184311431C
:1007E000084314D0184610431BD0009840210A1A21
:1007F00018460599FFF7D4FC05460E46009A059960
:100800000498FFF763FF084305D0012004E0204669
:10081000394607B0F0BD0020C11705430E432C43F5
:10082000374300990E986305401A7905E40A0022BF
:100830000C43FD0A0A3002D500200146E9E7010514
:10084000101969410C9C0D9D00196941FFF7A2FF29
:10085000DFE70000064C0125064E05E0E36807CC03
:100860002B430C3C98471034B442F7D3FFF72AFCD3
:1008700080300008A030000810B50146406A826B45
:1008800050231A420AD1816B012252021143816323
:100890000168CA681205920F05D020E0006B026B58
:1008A0000846904710BD827E002A18D10A681207B8
:1008B00015D58A6853070122002B09DB4B680C24ED
:1008C000A3434B60816B130299431143816306E09C
:1008D000816B202319438163C16B1143C16300F015
:1008E000A1F910BD10B5406A816B402211438163AC
:1008F000C16B04221143C16300F096F910BD10B51D
:10090000406A00F090F910BDF8B504460020009050
:10091000206881688907890F012905D10168C90705
:100920002CD1C168090429D48168154A10261140C8
:100930000125002915D18168294381601248114998
:100940000068FFF7D3FB00E0401E00900028FBD1B9
:1009500000F00CFD07460CE000F008FDC01B02286B
:1009600007D9A06B3043A063E06B2843E06301200C
:10097000F8BD20680068C043C007EDD10020F8BD75
:100980001700008040420F009400002010B502487C
:1009900000F09EFA10BD00002C05002010B50446A2
:1009A0000068054940181421FFF7A0FB800020646F
:1009B0000248E06310BD0000F8FFFDBF00000240E8
:1009C00030B5056C0124AC40C56B6C600468636095
:1009D0004368102B036803D099600068C26030BD83
:1009E0009A600068C16030BD0022012189074A6217
:1009F0004A6A8242FCD3704710B50120400300F0E0
:100A0000DDFB10BD72B6FEE706490020C86106484E
:100A1000016904221143016101694022114301610E
:100A2000704700004806002000200240064A0021CE
:100A3000D16106490A6902231A430A6148610869BB
:100A40004022104308617047480600200020024001
:100A500010B5054B0022DA61044A136901242343CF
:100A60001361018010BD00004806002000200240F4
:100A700010B50B4A0020D168CB060A4904D5C869D5
:100A800002231843C8611020D3685B0705D5CB69E2
:100A900001242343CB6104210843D06010BD000032
:100AA000002002404806002070B5054600F05EFCBC
:100AB0000646104C0AE0681C08D0002D04D000F057
:100AC00055FC801BA84201D9032070BDE068C00717
:100AD000F1D1E068800601D52020E060E068C00622
:100AE00002D4E068400703D5FFF7C2FF012070BDC4
:100AF000002070BD00200240F8B5002504462034D7
:100B00000095227D012A3BD00122227503689E6850
:100B1000760776D43F4F4E68BE4254D09E6A0F7817
:100B2000BA4016439E620123C26A1B079A421FD035
:100B3000012A1DD0022A1BD0032A19D0042A17D05B
:100B4000052A15D0062A13D0072A11D002688B680F
:100B500056697607760FB3420AD05369DB08DB008B
:100B60005361006842690B7A5B075B0F1A4342616D
:100B70000868102806D0112804D0122802D045E0B9
:100B80000220F8BD244A9368102809D011280AD001
:100B900001200006034393600868102806D035E062
:100BA0000120C005F6E701208005F3E71C481B493A
:100BB0000068FFF79BFA0A21484300E0401E0090BE
:100BC0000028FBD122E0986A0E78B24090439862E8
:100BD0000868102803D0112801D0122816D10E4918
:100BE0008A68102807D0112808D001200006824307
:100BF0008A600BE005E00120C005F8E701208005D0
:100C0000F5E7816B202211438163012500202075C7
:100C10002846F8BD011000000027014040420F00A7
:100C2000940000207047704770470000F8B5002618
:100C30000446002805D0A06B25462035002802D0A8
:100C400007E00120F8BD0020E0632875204600F091
:100C5000A9F8A06B1022C006002870DB206881680C
:100C600049076CD4A16B1301994302231943A16373
:100C700081688907890F012905D10168C9070FD14A
:100C8000C16809040CD4C16818239943A3681943A7
:100C9000C16020680169636889008908194301619E
:100CA0002068C1683D4B1940C160207E617E800391
:100CB000C9030843A17E4B031843A36A012B02D04A
:100CC00001231B0300E000231843E3681843236952
:100CD000022B09D0002318432B79E57E5B001843D3
:100CE0000123012D02D00AE00423F4E7002927D0D4
:100CF000A16B20252943A163E16B1943E163E169FD
:100D00000D46FF3DC23D02D0256A294308432168B4
:100D1000CD680543CD600125E16A2D07A94213D0B6
:100D2000012911D002290FD003290DD004290BD09D
:100D3000052909D0062907D0072905D010E028E0A9
:100D4000012109040843DAE721684D69ED08ED0047
:100D50004D6121684D69A78D7F077F0F3D434D6130
:100D60002168C9680E4D2940814207D10020E06307
:100D7000A06B80088000401CA06308E0A06B0221EB
:100D800088431043A063E06B1843E06301263046BC
:100D9000F8BDA06B1043A063F8E700001902FEFF46
:100DA000E7FF3F8370B586B0054614216846FFF71C
:100DB0000FFA1B492868884230D11A498A694015C0
:100DC00002438A618A69024005924A69000202432D
:100DD0004A6149690026014005911F2000900320C7
:100DE0000190092069460296C00600F0F3F90E480A
:100DF0000E4C41C48020266060604000A0608000EE
:100E0000E0602020666120610848083C00F0AEF8F0
:100E1000002801D0FFF7F6FD2C63656206B070BDB7
:100E20000024014000100240080002402C05002070
:100E3000F7B5044600680025806840073DD4264683
:100E40002036307D01280AD001273775607E0128C1
:100E500007D02046FFF758FD050002D02EE0022003
:100E6000FEBDA06B16490840FF2101310843A06375
:100E70000020E0633075216B12488862216B1248B4
:100E8000C862216B1148086321681C200860206833
:100E900041681022114341602068C1683943C16034
:100EA0002168206B4031029B019A00F089F820688C
:100EB000816804221143816000E002252846FEBDBE
:100EC000FEF1FFFF79080008FF080008E5080008A8
:100ED000F0B4C16B0D6801680C680422066C1346FF
:100EE000B3402B420DD063070BD50B689B0602D491
:100EF0000B6893430B60016C8A40C16B4A60C16A06
:100F000019E00227B74002462F4001232032002F6C
:100F100015D0A70713D50C68A40604D40C680A25BD
:100F2000AC430C605370036C02219940C36B596051
:100F300000211170816A002916D0F0BC08470827EB
:100F4000B7402F4210D024070ED50C680E25AC43B5
:100F50000C60046C1946A140C46B616083635370DC
:100F600000211170016BE6E7F0BC704770B504001A
:100F700021D00221204620300546417022681168A8
:100F80000E48A3680140606826691843E36833434C
:100F9000184363691843A3691843E3691843084376
:100FA00010602046FFF7FAFC0021A1630120687061
:100FB0002970084670BD012070BD00000FC0FFFF02
:100FC000F8B504468C46203001780025012909D067
:100FD0000126067041780027012905D007700225F7
:100FE0002846F8BD0220F8BD02214170A7632068A1
:100FF000016849084900016061462046FFF7E0FCAE
:10100000E06A00282068016802D00E22114306E041
:101010000A221143016020680168042291430160A3
:101020002068016831430160DAE7000070B50446CA
:1010300000F09CF90546601C02D004480078241892
:1010400000F094F9401BA042FAD370BD8800002044
:10105000F8B5054623480F46017E012601290BD02D
:10106000012101762868204C012807D02046FFF78F
:101070001BFD002813D030E00220F8BD2046FFF70A
:1010800013FD002829D1FFF7BFFC2046FFF70CFD18
:101090000646164801690422914301611DE00020C3
:1010A000C04338606C6812E02046FFF7BFFC0E4872
:1010B000FFF7FAFC06460D48026902218A430261E5
:1010C000002E01D03C6008E0012080022418A868AE
:1010D000810268680818A042E6D80248002101761B
:1010E0003046F8BD4806002050C3000000200240F2
:1010F000034801698022114301610020704700000C
:1011000000200240F0B51FB407461A480024017EB3
:1011100015461E46012907D0012101761648FFF722
:10112000C3FC002803D020E0022005B0F0BD012F51
:1011300002D0022F00D00427220128463146FFF7B3
:101140002FF881B2019862001018FFF781FC0A485D
:10115000FFF7AAFC09490A69520852000A610028EF
:1011600003D1641CE4B2BC42E6D3024900220A76F1
:10117000DBE700004806002050C3000000200240CA
:10118000064900200A69120607D5054A4A60054A41
:101190004A600969090600D5012070470020024015
:1011A00023016745AB89EFCD01214903884202D174
:1011B00001490120C86170470000002010B50449B2
:1011C0004A69024202D04861FFF7EEFF10BD0000FD
:1011D00000040140FCB500230124A1E027462A4673
:1011E0009F403A4073D04D68012D05D0022D03D0A9
:1011F000112D01D0122D16D185680326AC465D0055
:10120000AE46AE406546B543AC46CE687546AE4088
:1012100065462E43866046680D79BE43ED06ED0FA8
:101220009D4035434560C6685F000325BD40AE461E
:10123000AE4335468E68BE402E43C6604E68022ED1
:1012400001D0122E14D1DE08B60036180196366A87
:101250005D07B446EE0E0F25B54000966646AE43D8
:10126000B4460D69009EB54066462E43019D2E6230
:1012700006687546AE430D79AD07AD0FBD403543E9
:1012800005604D68ED004AD5284DAE692643AE6134
:10129000AD699E08ED07ED0F0095254DB600751957
:1012A000AC46AD689E07360F0F27B740BD430927F0
:1012B000FF06B84201D1002710E01E4FB84201D10D
:1012C00001270BE01C4FB84202D1022706E026E0BE
:1012D0001A4FB84201D1032700E00527B7402F433A
:1012E0006546AF60164E35684F689543FF0300D5DD
:1012F0001543356075684F689543BF0300D51543A6
:101300007560B5684F689543FF0200D51543B56019
:10131000F5684F689543BF0200D51543F5605B1C27
:101320000A681546DA4000D058E7FCBD00100240BC
:10133000000001400004004800080048000C00487C
:10134000000401400069084000D001207047426954
:1013500013460B401B0491430B4383617047002AE3
:1013600001D0816170478162704700000148806848
:1013700070470000880000200248816802788918C0
:10138000816070478800002010B50648016810226F
:1013900011430160002000F007F800F027F800205A
:1013A00010BD00000020024070B504460D4D7D20A8
:1013B0002978C000FEF79AFE01460B480068FEF748
:1013C00095FE00F0CFFA002809D1042C07D20022A4
:1013D0002146401E00F03AF800206C6070BD0120EC
:1013E00070BD0000880000209400002008B5084867
:1013F0008169012211438161816911400091C269B3
:1014000001040A43C261C0690840009008BD0000A1
:1014100000100240002809DBC106C90E01208840E7
:1014200003490860BFF34F8FBFF36F8F7047000011
:1014300080E100E0002805DBC106C90E01208840DC
:10144000014908607047000000E100E010B501F0BC
:101450004FF810BDF8B50F46060059D03A4D286830
:10146000C007C00FB84209D228684008400038437E
:1014700028602868C007C00FB84249D13068334C93
:1014800081070CD5400704D560680721090208438D
:1014900060606068F0218843B1680843606030781C
:1014A000C00726D0706801280ED0216802280ED00F
:1014B000890700292CDA6168890889000143616085
:1014C000FFF754FF00900DE021688903F1E78901DF
:1014D000EFE7FFF74BFF0099411A1D48814201D900
:1014E0000320F8BD60680C210840716889008842BB
:1014F000EFD12868C007C00FB8420BD92868400850
:101500004000384328602868C007C00FB84201D0A7
:101510000120F8BD3078400706D560680721090230
:101520008843F1680843606000F018F86168094A70
:101530000906090F515CC840074908600020FFF701
:1015400033FF0020F8BD00000020024000100240E0
:10155000881300006F3000089400002010B514A319
:101560000FCB88B06C460FC415A30FCB0FC4184A1D
:1015700051680C200B4603401648042B16D0082B4C
:1015800014D18B021B0F6C46E45CD26A04AB1207C9
:10159000120F9A5CC90305D500231946FEF7D0FD4A
:1015A000214601E020460C4900F089FF08B010BD3B
:1015B00002030405060708090A0B0C0D0E0F101094
:1015C0000102030405060708090A0B0C0D0E0F1093
:1015D0000010024000127A0000093D00FEB5040030
:1015E00070D02078DC4DC0074AD068680007800FB3
:1015F000012807D068680007800F022809D16868B1
:10160000C00306D5286880033AD560680028E7D073
:1016100036E06168012914D001208004002901D03E
:10162000052914D02A68012109048A432A602968FF
:10163000814329606068002816D0FFF797FE0646B0
:101640000EE028680121090408432860F2E72968B0
:1016500001432960F5E7FFF789FE801B64286ED8F7
:1016600028688003F7D50BE0FFF780FE064604E00C
:10167000FFF77CFE801B6428F1D828688003F7D42C
:1016800020780126800700283CDA68680007800F70
:1016900007D068680007800F022809D16868C00376
:1016A00006D42868800716D5E06801280AD112E020
:1016B000E0680028286816D030432860FFF756FEFF
:1016C000074605E043E1FFF751FEC01B0228C6D8DC
:1016D00028688007F7D52868F82188432169C90060
:1016E000084328600EE0400840002860FFF73EFEF7
:1016F000074604E0FFF73AFEC01B0228AFD828686F
:101700008007F7D42078000722D5E0690028686AAE
:101710000ED030436862FFF729FE074604E0FFF76A
:1017200025FEC01B02289AD8686A8007F7D50FE00B
:10173000400840006862FFF719FE074605E09DE09B
:10174000FFF714FEC01B022889D8686A8007F7D407
:10175000207804274007002860DA00200190E8691B
:10176000C00008D4E969B8060143E961E9690140AC
:1017700001200091019079480168C90511D40168E0
:10178000821511430160FFF7F1FD009005E0FFF7BE
:10179000EDFD0099401A642870D870480068C005B3
:1017A000F5D5A06801280AD0002801D0052810D05E
:1017B000286A400840002862286AB84301E0286A85
:1017C00030432862A068002812D0FFF7CFFD0090B8
:1017D0000AE0286A38432862F1E7FFF7C7FD00995D
:1017E000411A5F48814249D8286A8007F5D50DE043
:1017F000FFF7BCFD009006E0FFF7B8FD0099411A25
:10180000574881423AD8286A8007F5D401980028C1
:1018100004D0E969012000078143E9612078C0060E
:1018200035D5606901280CD0401D686B23D0384342
:101830006863686B400840006863FFF797FD0646E1
:1018400022E0686B38436863686B30436863FFF776
:101850008DFD064604E0FFF789FD801B02285BD85A
:10186000686B8007F7D5686BF8218843A169C900C8
:10187000084368630BE0B8436863F4E74CE0FFF7A4
:1018800075FD801B022847D8686B8007F7D4206A53
:1018900000285ED069680907890F022942D0012615
:1018A00036060228286805D0B0432860FFF75EFDA1
:1018B000044633E0B0432860FFF758FD074604E0D4
:1018C000FFF754FDC01B022826D828688001F7D4F2
:1018D000E86AE16A000900010843E862616AA06AF7
:1018E000084369683D2212049143084368602868F0
:1018F00030432860FFF73AFD044604E0FFF736FD69
:10190000001B022808D828688001F7D521E0FFF7DE
:101910002DFD001B022801D90320FEBD286880018F
:10192000F5D416E00128F8D06868E96A01221204AB
:10193000636A02409A420AD10907E26A090F91429A
:1019400005D10F2189040840A16A884201D00120F5
:10195000FEBD0020FEBD00000010024000700040EF
:1019600088130000094910B5401E884201D90120A2
:1019700010BD074C60610321081F00F0B9FD002075
:10198000A06107202061002010BD0000FFFFFF00C4
:1019900000E000E070477047F0B502462032137F48
:1019A000012B21D00125157702235377066874682F
:1019B000B3687027BC430F682743776000680B4CFF
:1019C000A04208D0AC07A04205D0094CA04202D0EA
:1019D000084CA04204D180244968A3431943816084
:1019E000557700201077F0BD0220F0BD002C01409B
:1019F000000400400040014070B5040005D02546B9
:101A00002035687F002802D006E0012070BD00204C
:101A10002877204600F014F802206877211D2068FE
:101A200000F094FC01204034A071A877E877207082
:101A30006070A070E070207160716877002070BDE8
:101A400008B50122016892071748914207D1C16980
:101A500001221143C161C0691040009008BD134AC2
:101A600091420DD1C26902210A43C261C0690022BC
:101A70000840009011461020FFF7E8FC10200FE00E
:101A80000B4A9142EAD1C26989150A43C261C06911
:101A900000220840009011461320FFF7D7FC1320C6
:101AA000FFF7C8FC08BD0000001002400004004021
:101AB00000200040014620314A7F012A01D0012048
:101AC000704702224A7700680B4A0121904208D0F1
:101AD0008A07904205D0094A904202D0084A9042B3
:101AE00004D182685207520F062A02D002680A43C4
:101AF0000260002070470000002C014000040040FC
:101B000000400140014620314A7F012A01D00120D6
:101B1000704702224A770268D36801210B43D360E1
:101B200000680B4A904208D08A07904205D0094AC3
:101B3000904202D0084A904204D182685207520F64
:101B4000062A02D002680A430260002070470000A3
:101B5000002C01400004004000400140F8B505465B
:101B600004462035287F012817D001262E77022031
:101B70006877226890687727FF23B8431B02984351
:101B800090600A68502A31D00EDC202A4BD006DC47
:101B9000002A48D0102A3AD145E00220F8BD302A68
:101BA00041D0402A33D136E0602A27D0702A12D0A3
:101BB00001200003121A2AD0824228D1CB684A6839
:101BC0008968206800F00CFC20688168012292037B
:101BD000114381601BE0CB684A688968206800F087
:101BE000FFFB216888683843886010E0CA6849684C
:101BF000206800F008FC5021206806E0CA684968A7
:101C0000206800F011FC6021206800F0F4FB6E7782
:101C100000202877F8BDCA684968206800F0F3FB07
:101C200040212068F1E711462068EEE7704770B563
:101C30000446006801690025C9438907002915DBAE
:101C4000C168C943890711D4E91E016101202077C9
:101C5000206880698007204602D0FFF7E7FF04E094
:101C600000F096F8204600F094F825772068016986
:101C7000C943490717D4C168C943490713D404218C
:101C8000C943016102202077206880698005800FA8
:101C9000204602D0FFF7CAFF04E000F079F82046A2
:101CA00000F077F8257720680169C943090716D441
:101CB000C168C943090712D40821C943016104203E
:101CC00020772068C0698007204602D0FFF7AEFF6A
:101CD00004E000F05DF8204600F05BF8257720680E
:101CE0000169C943C90617D4C168C943C90613D4D9
:101CF0001021C9430161082020772068C069800550
:101D0000800F204602D0FFF791FF04E000F040F87A
:101D1000204600F03EF8257720680169C943C907CD
:101D200008D1C168C943C90704D1891E0161204691
:101D300000F030F820680169C943090609D4C16878
:101D4000C943090605D48021C94301612046FFF734
:101D500021FE20680169C943490609D4C168C94305
:101D6000490605D44021C9430161204600F036F9F7
:101D700020680169C943890609D4C168C943890635
:101D800005D42021C94301612046FFF704FE70BD40
:101D900070477047F8B5064689488A4F00258A4C37
:101DA000864235D10121C9028848FFF7D0FAA06CDC
:101DB0002946401CA064E06C401CE064206F65670D
:101DC000401CA567206728464A00BA5A491C1018CB
:101DD0000A29F9DBA1670A21FEF79EF9606700F086
:101DE00033FC6567A567A063764A2846014614322E
:101DF0004300D35A401C59180A28F9DB0A46A06749
:101E00000A211046FEF788F9606700F01DFCE063C8
:101E10006F4886427ED16B4920880A3943000A8880
:101E2000FA524A881E31CA520A21401CFEF75EF956
:101E3000684E2180B068684F012866D13069616DB5
:101E4000401860657168814246DB3168012903D022
:101E50003840032810D001E080070DD00022012176
:101E600089025A48FFF77BFA30680128606D05D077
:101E70003840022812D004E00122F0E7384001285F
:101E80000CD0002204215148FFF769FA306801287C
:101E9000606D05D03840012811D004E00122F1E73F
:101EA000384002280BD0002202214848FFF757FA99
:101EB00030680128606D04D080070BD004E0012257
:101EC000F2E73840032805D0002201213F48FFF700
:101ED00046FA1AE00122F8E7E26D012A0CD1226EDF
:101EE000012A02D06E2A04D006E03268022A1CD0F1
:101EF00002E03268012A18D0002232235A43F368E4
:101F00005A435118814200DCB560A06E002854D0BD
:101F1000A06A00E051E003284FD1E126E06EB60050
:101F2000B04204DA800712D004E00122E5E738402D
:101F300003280CD00022012109032448FFF70FFADF
:101F4000E06EB04205DA3840012812D004E00122E8
:101F5000F1E7384002280CD0002209202021C006D9
:101F6000FFF7FDF9E06EB04205DA3840022812D0E2
:101F700004E00122F1E7384001280CD000220920BA
:101F80004021C006FFF7EBF9E06EB04205DA3840B9
:101F9000032813D003E00122F1E780070ED00022CE
:101FA00009208021C006FFF7DAF9E06EE121401C2C
:101FB000C900E066884200DBE566F8BD0122EFE774
:101FC00000060020A20000200000002000040048BD
:101FD000B8050020D4040020030000807047FEE70D
:101FE00010B50924FF21E40601312046FFF7AAF9C4
:101FF00000280DD1012149022046FFF7A3F900284E
:1020000006D1012189022046FFF79CF9002800D063
:10201000012010BDFEB500242849294800940194F0
:10202000029412C008210125042672C00470447075
:102030008570C470FF21C23184604160014608315F
:102040000D7105611838FEF7F1FD002801D0FEF78B
:10205000D9FC01200003009401900324694618482C
:102060000294FEF749FD002801D0FEF7CBFC69463B
:1020700013480095FEF740FD002801D0FEF7C2FC92
:102080000220009069460E48FEF736FD002801D078
:10209000FEF7B8FC69460A480094FEF72DFD0028BB
:1020A00001D0FEF7AFFC694605480096FEF724FD17
:1020B000002801D0FEF7A6FCFEBD00000024014070
:1020C000EC04002008B50848416901221143416130
:1020D000406910400022009011460920FFF7B6F930
:1020E0000920FFF7A7F908BD00100240F0B587B03E
:1020F00014216846FEF76CF8284842690121C9049A
:102100000A43426142690A4005924269C9000A4392
:10211000426142690A400592426949110A4342619B
:1021200042690A400592426949000A434261406996
:102130001B4D08400927FF06059000222946384616
:10214000FFF70DF9174E002231461748FFF707F940
:102150000120400300901548002401906946029434
:102160001348FFF737F80095012502946946384671
:1021700001950394FFF72EF8029469460A480096E9
:1021800001950394FFF726F8002211460720FFF778
:102190005DF90720FFF74EF907B0F0BD00100240CF
:1021A000E0870000C7FC0000000400480000211088
:1021B0000008004810B50A48084901600949416013
:1021C0000021FF228160F5320161C2608161FFF769
:1021D00013FC002801D0FEF715FC10BD00200040C4
:1021E0000006002080BB000010B586B000240094DB
:1021F00001211648019402940394049489070594DC
:1022000001602F21846041600461611E8461C160AE
:10221000FFF7F2FB002801D0FEF7F4FB01200003DA
:10222000009069460948FFF799FC002801D0FEF7A5
:10223000E9FB049404A905480594FFF7ADFB0028C9
:1022400001D0FEF7DFFB06B010BD000070050020D6
:1022500010B586B0002400941648019402940394AB
:1022600004941349059401602F2184604160046146
:1022700011498461C160FFF7BFFB002801D0FEF760
:10228000C1FB01200003009069460A48FFF766FC85
:10229000002801D0FEF7B6FB049404A90548059474
:1022A000FFF77AFB002801D0FEF7ACFB06B010BDAB
:1022B00000040040B80500201F4E0000FEE77047F4
:1022C000704710B5FFF758F810BD30B591B0302108
:1022D0006846FDF77DFF002411200F940090012037
:1022E00001900590102006900E94000309900001C3
:1022F0000D9402250A900C9408950B946846FFF7FC
:102300006DF9002801D072B6FEE707200C900E94FC
:1023100001210D950F940CA8FFF79CF8002801D01F
:1023200072B6FEE711B030BD7047000010B502482C
:10233000FFF77DFC10BD00000006002010B502482C
:10234000FFF775FC10BD0000B8050020F0B502686D
:102350001D4B0124A4071D4D984203D0A04201D07B
:10236000A84203D17026B2434E683243184E194F2B
:1023700098420DD0A0420BD0A84209D0164CA042E2
:1023800006D0B04204D0B84202D0144CA04204D1CE
:1023900003242402A243CC6822438024A2434C6934
:1023A000224302608A68C2620A688262984206D04A
:1023B000B04204D0B84202D0084A904201D1096923
:1023C000016301214161F0BD002C01400004004087
:1023D000004001400044014000200040004801400E
:1023E00030B58468FF252D021B021343AC430B4319
:1023F0002343836030BD826870239A430A430721D8
:102400000A438260704730B5036A046A6408640056
:1024100004628469F025AC43120122430A24A343D9
:102420000B438261036230BD30B5036A1024A343BD
:1024300003628469036A0F252D031203AC43224310
:10244000A024A343090119438261016230BD000049
:1024500070B516460D460446FEF792FE0A48002166
:1024600062C00A490C38FEF7F3FD224600232946D4
:102470000220FEF747FE002803D104490120143949
:102480004866FEF735FE70BDC80400201400002029
:102490002021020C01D010211046020A01D0104662
:1024A0000839020901D01046091F820801D01046E0
:1024B000891E420801D0881E7047081A7047F8B577
:1024C000040C8BB2264682B25E430D0C1046370CCC
:1024D0005843360480190021794116466E43370C63
:1024E00036048019794126466E438919F8BD0000EB
:1024F0008307FF22DB0E9A408907090E99400028C6
:1025000008DB830809489B001B18186890430843A0
:10251000186070470007000F0838830804489B00C4
:102520001B18D86990430843D861704700E400E065
:1025300000ED00E002E008C8121F08C1002AFAD12D
:1025400070477047002001E001C1121F002AFBD133
:102550007047000010B5012240210248FEF7FFFE3F
:1025600010BD00000004004810B5002240210248C0
:10257000FEF7F5FE10BD000000040048002808D05A
:102580007D23DB0019460222521C8A42FCDB401EDE
:10259000F8D1704710B5012280210248FEF7DFFE16
:1025A00010BD00000004004810B500228021024840
:1025B000FEF7D5FE10BD00000004004810B5FFF77F
:1025C000D3FF0520FFF7DAFFFFF7C4FF0220FFF774
:1025D000D5FFFFF7C9FF10BD10B5FFF7BBFFFFF731
:1025E000D9FF0220FFF7CAFFFFF7DEFF10BD10B5CD
:1025F000FFF7BAFF0220FFF7C1FFFFF7D5FF022068
:10260000FFF7BCFFFFF7A6FF0220FFF7B7FFFFF7BA
:10261000C1FF10BD70B504460025FFF7A5FFE00718
:1026200002D0FFF7B7FF01E0FFF7BEFF0320FFF77F
:10263000A5FF6408FFF78EFF0320FFF79FFF6D1CC7
:10264000082DEADB70BD0000FEB50446FDF7ECFF87
:10265000154A164BFDF7D2FE0090204660430191CB
:102660000746FDF7E1FF124A124BFDF7C7FE05468C
:1026700038460E466043FDF7D7FF0F4A0F4BFDF774
:10268000BDFE2A463346FDF707FE019B009AFDF783
:10269000A7FE0B4A0B4BFDF7FFFD0B4A0B4BFDF75B
:1026A000FBFDFDF7E3FFFEBDC7293A92CB7FD03F8C
:1026B0009E1848066FFE353FFB2DD6C06A368CBE8D
:1026C0007B14AE47E1AA54403333333333B3304045
:1026D000F8B50125AD0209246E10AF10E406401CC8
:1026E0005DD001280AD002283AD00B2856D12946BD
:1026F0002046FEF727FE002822D11BE0294620466F
:10270000FEF720FE002805D131462046FEF71AFECE
:1027100000280CD0002231462046FEF720FE002281
:1027200029462046FEF71BFEC820FEF77FFC01224B
:10273000394630E039462046FEF704FE00280CD02A
:10274000002239462046FEF70AFE0022294620468E
:10275000FEF705FEC820FEF769FC012231461AE0AB
:1027600031462046FEF7EEFD002805D139462046C9
:10277000FEF7E8FD00280CD0002239462046FEF77F
:10278000EEFD002231462046FEF7E9FDC820FEF7A7
:102790004DFC012229462046FEF7E1FDF8BD00224E
:1027A00039462046FEF7DBFD002231462046FEF783
:1027B000D6FD0022EEE70000F8B57949774C4A6C67
:1027C000486E824202D042008018A0627448803075
:1027D0004369426B93420ED08569826B95420AD061
:1027E000C66BC269B24206D0642673430A2675439B
:1027F0005B199A182266076A0268974219D0456ADF
:102800004268954215D0836A8268934211D0C668A7
:10281000C26AB2420DD0066B0069864209D06800D8
:102820009B00D20038189A18801832018018103096
:1028300020644A6F486D90420BD08B6F8A6D9A422C
:1028400007D0012363630A2358438018534A803218
:1028500050608A6C886E82420ED0CB6EC86C9842F3
:102860000AD00A235A431018E0650B2801D0012032
:1028700000E000204B4A10610A6F086D904200D0C2
:10288000A066474D803D286A2A68864690421FD040
:10289000686A6A68844690421AD0AB6AA868834224
:1028A00016D0EA6AE868824212D02E69286BB042DC
:1028B0000ED0EE6B9B007700F619E662674676460F
:1028C0007F00D200F6199A18B2180001101860643F
:1028D0000A6C086E824202D0410040182063A06A50
:1028E00000282DD0042000F0ADFBE06A002814D0B1
:1028F0007D22616CD2005143A26A64235A43891835
:102900000A2250430818216B40180021A06100F0F2
:102910002FFB7D200001FEF789FB7D21206CC90083
:102920004843A16A642251434118E06A0A22504395
:102930000818216B40180021A06100F019FB02E08B
:10294000002000F07FFB296E286C884206D0A16A27
:10295000002903D08006000E00F074FB0222E1681B
:10296000A06AFFF775FD03222169206CFFF770FD57
:10297000606B012811D10020606301220925D40376
:10298000ED0621462846FEF7EAFC3220FEF74EFB14
:10299000002221462846FEF7E2FCF8BD0000002098
:1029A0004C010020D404002008B5FEF7EDFCFFF731
:1029B0008CFCFFF79BFBFFF785FBFFF7FBFBFFF7AB
:1029C00029FBFFF711FCFFF743FC00F009FBFB4C70
:1029D000E0680068A062032839D0002000F032FBD4
:1029E000F748FFF78FF8F748FFF78CF8F648FFF73E
:1029F00061F80522F549F648FEF71AFA0122092581
:102A0000D603ED0631462846FEF7A9FC3220FEF734
:102A10000DFB002231462846FEF7A1FC3220FEF7CE
:102A200005FB012231462846FEF799FC3220FEF7CD
:102A3000FDFA002231462846FEF791FCE54F0025BD
:102A4000206E652842D01DDC01283FD176E1206947
:102A500000682064042000F0F5FA7D20216CC0009D
:102A60004143E26A0A204243206B89180818FF306C
:102A70002D30A0610A20FEF7D9FA0021A06900F0EC
:102A800077FAADE76E28E0D1CC48803000680028A6
:102A900017D1012149033846FEF754FC00280CD019
:102AA0000121002249033846FEF759FC012100228A
:102AB00089033846FEF753FCA564C04801218030E5
:102AC0000160A06A032802D000287CD0ECE1E06F0E
:102AD000401C00D1E567B94880300068012873D1F7
:102AE0008107A06BFDF77FFB0090206CFDF77CFD5C
:102AF0000099FDF7E1FD28D2A06CFDF781FD0022D1
:102B0000D243FDF75BFD0022B34BFDF7DFFC002253
:102B1000B24BFDF797FD0ED2012251033846FEF766
:102B20001EFC012291033846FEF719FC01223146B2
:102B30003846FEF714FCAA49E06B884226DD9F4820
:102B400080304068FFF7C4FD20E001218907A06BB9
:102B5000FDF79AFB0090206CFDF746FD0099FDF70C
:102B6000A1FD13D2012149033846FEF7EBFB0128F2
:102B70000CD1410300223846FEF7F1FB012100226F
:102B800089033846FEF7EBFBA564E56401214903A0
:102B90003846FEF7D7FB00282CD1E06CFDF730FD5E
:102BA0000022D243FDF70AFD00228B4BFDF78EFC7D
:102BB00000228C4BFDF746FD03D20020C043FFF7F7
:102BC00087FDE06C01E076E014E0FDF719FD0022DE
:102BD000D243FDF7F3FC00227F4BFDF777FC012386
:102BE00000229B07FDF72EFD04D200223146384615
:102BF000FEF7B5FBE06F616D02460A4308D000287E
:102C00007DD001280FD002281CD0032825D03FE01A
:102C1000754801215522C560D200816006C08160DF
:102C200036E0012017E000296AD16F4902220A60CC
:102C3000012088604122D200CD604A60086133E102
:102C4000022008E0002978D16748012181601DE158
:102C5000016129E10320E06725E1002904D06248F1
:102C6000806800280AD01FE15F48012181600221AD
:102C700000E1E16D0B297DD00121E9E70121490344
:102C80003846FEF75FFB002806D002206565E06746
:102C9000E06F0A2802D007E10A20F7E70121490383
:102CA0003846FEF74FFB012846D1FFF799F9002877
:102CB00042D002203FE0012149033846FEF742FBA3
:102CC00000280DD00121002249033846FEF747FBBA
:102CD0000121002289033846FEF741FBA564E56423
:102CE000E06CFDF78DFC0022D243FDF767FC00226B
:102CF000394BFDF7EBFB002201239B0701E096E037
:102D0000A7E0FDF79FFC04D2002231463846FEF7CB
:102D100026FB0020C043FFF7DBFCE06F00284CDB04
:102D2000314801218160022101605521C9004160C3
:102D30000020C0436565E067B6E092E001214903E9
:102D40003846FEF7FFFA002813D00121002249037C
:102D50003846FEF704FB0121002289033846FEF7BE
:102D6000FEFA31463846A564FEF7ECFA002800D09A
:102D7000E56400E091E031463846FEF7E3FA0028CA
:102D800015D0E06CFDF73CFC0022D243FDF716FCA9
:102D90000022114BFDF79AFB012300229B07FDF750
:102DA00051FC04D2002231463846FEF7D8FAA06A18
:102DB00003281BD00028ACD076E070E00000002093
:102DC00000060020B80500207005002098000020B3
:102DD000EC0400200004004800004E4000000840C1
:102DE0000000F0410000F83FD4040020E06F0A2802
:102DF00001D0401C00D1E56737484068FFF768FC08
:102E0000E06F616D02460A4308D000280FD0012808
:102E100013D0022823D0032832D045E02F490120C7
:102E20005522CD60D200886005C188603CE02B4807
:102E30008068002800D1F4E636E0002909D127484F
:102E400002220260012181604122D200C5604260FD
:102E5000FEE622488068002800D1F1E624E000293F
:102E600005D01E488068002800D1F3E61CE01B480E
:102E7000012181600160FF219131C5604160F8E668
:102E80000029E6D115480121816002210160FF215E
:102E9000913141601E21C160EBE60021D8E60F4868
:102EA0008068002800D16565E069012800D0C7E589
:102EB0000720FEF7AFFA012149030948FEF742FA5D
:102EC000002803D100F00EF8FFF776FC0720E5613B
:102ED000FEF7B0FAB4E5000080000020D404002022
:102EE00000080048F8B501261E4D760331462846F5
:102EF000FEF728FA0028F9D031462846FEF722FAD4
:102F00000028F9D1184C002727626762314628460D
:102F1000FEF718FA0028F9D008E0606A401C6062E9
:102F2000A068FDF761FD606AC82805DC31462846C7
:102F3000FEF708FA0028F0D1606A0C2805DD216A46
:102F400001208A000949885003E0206A810007486F
:102F50004750206A401C20626028D6DB6068FEF77C
:102F600065F8F8BD0008004800000020CC000020F3
:102F7000F3B583B00024194E80276D460A21FDF772
:102F8000CBF8715C2955022C06D10499002903D095
:102F90006A46917839439170641C052CEEDBFFF78B
:102FA0001BFB4020FFF736FBFFF708FBFFF71FFB7B
:102FB000FFF712FBC020FFF72DFBFFF7FFFA0024FD
:102FC0000426301B285CFFF725FBFFF7F7FA641C8B
:102FD000052CF6DBFFF70BFB05B0F0BD5E300008FB
:102FE00010B5164886B04269012189040A4342613E
:102FF00042690A40059242690A43426140690840B9
:10300000059014216846FDF7E3F801200290112095
:103010000190032003904020094C0090694620460F
:10302000FEF7D8F88020009069462046FEF7D2F8D7
:10303000082000F007F806B010BD000000100240A4
:103040000004004810B50446FFF7C6FA8734E0B222
:10305000FFF7E0FAFFF7B2FAFFF7C9FA10BD3F0633
:103060005B4F666D7D077F6F777C395E79710000FD
:103070000000000000000001020304060708090028
:10308000A03000080000002098000000342500084F
:103090003831000898000020D009000044250008BD
:1030A00000000000640000006400000000E0000870
:1030B00000E8000800000000000000000000000020
:1030C0000000000000000000000000000000000000
:1030D00000000000000000000000000000000000F0
:1030E00000000000000000000000000000000000E0
:1030F00000000000000000000000000000000000D0
:1031000000000000000000000000000000000000BF
:1031100000000000000000000000000000000000AF
:10312000000000000000000001000000040000009A
:083130000000000000127A000B
:04000005080000BD32
:00000001FF
