:020000040800F2
:10000000880A0020D1000008392500088B2100084B
:1000100000000000000000000000000000000000E0
:100020000000000000000000000000003D25000866
:1000300000000000000000003B2500083F250008EC
:10004000E3000008E3000008E3000008E300000804
:10005000E3000008E3000008E3000008F9090008D5
:10006000E30000088D090008E3000008E300000831
:10007000E3000008E3000008E3000008E3000008D4
:10008000B9250008E300000800000000A9250008C9
:10009000E3000008E3000008E3000008E3000008B4
:1000A000E3000008E3000008E3000008E3000008A4
:1000B000E300000800000000E30000080348854654
:1000C00000F0C8FB00480047A52C0008880A002063
:1000D0000448804704480047FEE7FEE7FEE7FEE7E6
:1000E000FEE7FEE7A5250008BD00000830B50B4679
:1000F000014600202022012409E00D46D5409D4202
:1001000005D31D469540491B254695404019154687
:10011000521E002DF1DC30BD70B5002425460028AC
:1001200001DA01244042002901DA01254942FFF7A2
:10013000DDFFAC4200D04042002C00D0494270BDEF
:10014000F0B51FB40646002082B005464024019158
:1001500000901BE0019922460F46304600F020F83F
:10016000049A059B801A994110D3104619462246DD
:1001700000F0ACFA361A8F41019722460120002187
:10018000009F00F0A3FA38184D4100902046641EED
:100190000028DFDC019B00982946324607B0F0BDFD
:1001A00010B5202A04DB0846203AD040002110BDBB
:1001B0000B46D340D0402024A21A91400843194650
:1001C00010BDD2B201E00270401C491EFBD2704744
:1001D0000022F6E710B513460A4604461946FFF713
:1001E000F0FF204610BDF8B502464A40D40F420049
:1001F0004B0052085B089A4202D20246084611465A
:100200004A0023D0C30D4A00DDB2120EAD1A202DD4
:1002100035DA49020126490AF6058A19002C00D070
:10022000524220214F1B1146B9402A411018C20DDD
:100230009A4221D0002C17D0012D08DCDA05801A53
:10024000D20F8019D207DBB200F06BFAF8BDDA05E5
:10025000801A012340001B06C01880185A428018DB
:10026000CA0F1043490007E04908C2071143DA05E5
:10027000801A80194008801800F04BFAF8BD610020
:100280000122511A001BF7E70122D2075140AAE7C9
:100290000122D2075040A6E7F0B50746084658406D
:1002A00087B0C00F049048000E4659004008490826
:1002B000BC1A884105D2384631461E4617460B46C1
:1002C00002465800400810434CD0300D03904005C2
:1002D0005900400D490D0590401A0290402872DAED
:1002E00018030121000B09050843019004980092AE
:1002F000002805D0019952420020884100920190C7
:10030000029840210A1A0199009800F0DFF9054689
:100310000C466B4607CB00F0E9F9C0197141039A0E
:100320000E0D0023D71756401A467A40164344D084
:10033000049A002A2DD0029A012A039A15DC12058C
:10034000C01A914101263605001C7141D20F059E4D
:10035000D2070093019202962A46234600F027FA1C
:1003600007B0F0BD38463146FAE71605224A0F4677
:10037000B218C01AB74101210905001C4F410018ED
:100380007F41114618187941E20F10436D196441FD
:1003900013E0E2076D0815436408C2071443039A8B
:1003A00001261205C01A91413605001C7141CE0785
:1003B000400830434908C01851412A46234600F0FE
:1003C000E9F9CDE7FFE7049801224000C117121AAE
:1003D00000238B4104983146C417381AA141EEE737
:1003E00030B40124E407634030BC55E730B4012445
:1003F000E407614030BC4FE70000E0FFF0B51FB4F8
:1004000088B00B990998002448400999C00F490009
:1004100049080991C0070B990090490049080B91C0
:1004200009990898A64608431CD00B990A980843D6
:1004300018D0099801244000420D4800410D099848
:1004400024050003000B204309900B980003000BC8
:1004500020430B9050181C4940180022019014466C
:10046000104605E0002001460DB0F0BD032801DA7A
:10047000034600E003239C46C11A0AAE0AE05F006F
:1004800008ADED5B4F00F75B7D430027AA187C4168
:10049000491C5B1E6145F2DD410004AB5A52210448
:1004A000120C0A43240C401C0828DFDB0198029040
:1004B0000099704601910090059B049A079906984F
:1004C00000F075F9D0E700000DFCFFFFF0B50C4619
:1004D0005C4085B0E40FE40703944C0000266408F8
:1004E00059009446490802460296224321D06246AA
:1004F0000A431ED06200570D4A000E032303550D18
:10050000012402462C492405781B1B0B360B40188E
:1005100023432643614600901C46501AB44103D33E
:100520000098401C009002E0921800985B4100285F
:1005300003DA0020014605B0F0BD002001210905C5
:100540000746864611E064461D46141BB54106D396
:100550006546521BB341744607430C43A646CD077C
:1005600040084908284392185B4105460D43EAD1EB
:100570001046184313D06046194650407140084356
:1005800006D06046101AB34106D20122002306E0CD
:1005900000220123DB0702E00122D243531000981E
:1005A00074460105381C6141029C039D0019694194
:1005B00000F0F0F8BFE70000FD03000070B54B004D
:1005C0005B0803430BD04B005C0D002633466542AD
:1005D000B341D417AD1AA34102DB0020014670BD20
:1005E00012053018514170BDC217C10F504010B5EF
:1005F0004018CA079623002100F093F810BD0000B0
:100600000EB5C217C10F5040CA0740180021054B54
:100610000293019200910A460B4600F0C8F803B01D
:1006200000BD0000330400000EB505490291002111
:1006300000910A460B46019100F0B9F803B000BDE5
:100640003304000010B5002904DB0124E407404214
:100650008C412146002B04DB1C460123DB07524260
:10066000A341994200D1904210BD0000CB0FDB079F
:10067000490010B5490802460A4307D00A0D07246D
:100680000903E401090B121B002A01DC002010BD44
:10069000C900440F0C43C100E018D205801800F0D7
:1006A00038F810BD0122D207002800DB101A0029FB
:1006B00000DB511A814270470122D207002800DB7B
:1006C000101A002900DB511A8842704710B5202A01
:1006D00004DB0146203A9140002010BD91402023C8
:1006E0009C1A0346E3401943904010BD10B5202AE0
:1006F00006DBCB170846203A1041C1170B4306E032
:100700000B461341D0402024A21A914008431946B9
:1007100010BD002904DA401C490001D14008400006
:10072000704770B40024050C05D11024000402D1D8
:10073000002921D01124050E01D100020834050F33
:1007400001D10001241D850F01D18000A41C0028C7
:1007500001DB4000641C002908D020252E1B0D461B
:10076000F540A14000D001212943084301061B1B8D
:10077000000ADB1D02D5002070BC7047DB0518188D
:1007800080180029F8DA401C4900F5D170BC4008F7
:100790004000704710B5002B08DA0024401C61416E
:1007A00092185B411A4301D14008400010BDF0B5DA
:1007B0001FB482B005460C0003D0084601F0C0FF0C
:1007C00002E001F0BDFF203002460090214628469D
:1007D000FFF77CFF049B059A04460F46184311431C
:1007E000084314D0184610431BD0009840210A1A21
:1007F00018460599FFF7D4FC05460E46009A059960
:100800000498FFF763FF084305D0012004E0204669
:10081000394607B0F0BD0020C11705430E432C43F5
:10082000374300990E986305401A7905E40A0022BF
:100830000C43FD0A0A3002D500200146E9E7010514
:10084000101969410C9C0D9D00196941FFF7A2FF29
:10085000DFE70000064C0125064E05E0E36807CC03
:100860002B430C3C98471034B442F7D3FFF72AFCD3
:10087000203900084039000810B50146406A826BF3
:1008800050231A420AD1816B012252021143816323
:100890000168CA681205920F05D020E0006B026B58
:1008A0000846904710BD827E002A18D10A681207B8
:1008B00015D58A6853070122002B09DB4B680C24ED
:1008C000A3434B60816B130299431143816306E09C
:1008D000816B202319438163C16B1143C16300F015
:1008E000A1F910BD10B5406A816B402211438163AC
:1008F000C16B04221143C16300F096F910BD10B51D
:10090000406A00F090F910BDF8B504460020009050
:10091000206881688907890F012905D10168C90705
:100920002CD1C168090429D48168154A10261140C8
:100930000125002915D18168294381601248114998
:100940000068FFF7D3FB00E0401E00900028FBD1B9
:1009500000F00CFD07460CE000F008FDC01B02286B
:1009600007D9A06B3043A063E06B2843E06301200C
:10097000F8BD20680068C043C007EDD10020F8BD75
:100980001700008040420F00A400002010B502486C
:1009900000F09EFA10BD00004805002010B5044686
:1009A0000068054940181421FFF7A0FB800020646F
:1009B0000248E06310BD0000F8FFFDBF00000240E8
:1009C00030B5056C0124AC40C56B6C600468636095
:1009D0004368102B036803D099600068C26030BD83
:1009E0009A600068C16030BD0022012189074A6217
:1009F0004A6A8242FCD3704710B50120400300F0E0
:100A0000DDFB10BD72B6FEE706490020C86106484E
:100A1000016904221143016101694022114301610E
:100A2000704700006806002000200240064A0021AE
:100A3000D16106490A6902231A430A6148610869BB
:100A400040221043086170476806002000200240E1
:100A500010B5054B0022DA61044A136901242343CF
:100A60001361018010BD00006806002000200240D4
:100A700010B50B4A0020D168CB060A4904D5C869D5
:100A800002231843C8611020D3685B0705D5CB69E2
:100A900001242343CB6104210843D06010BD000032
:100AA000002002406806002070B5054600F05EFC9C
:100AB0000646104C0AE0681C08D0002D04D000F057
:100AC00055FC801BA84201D9032070BDE068C00717
:100AD000F1D1E068800601D52020E060E068C00622
:100AE00002D4E068400703D5FFF7C2FF012070BDC4
:100AF000002070BD00200240F8B5002504462034D7
:100B00000095227D012A3BD00122227503689E6850
:100B1000760776D43F4F4E68BE4254D09E6A0F7817
:100B2000BA4016439E620123C26A1B079A421FD035
:100B3000012A1DD0022A1BD0032A19D0042A17D05B
:100B4000052A15D0062A13D0072A11D002688B680F
:100B500056697607760FB3420AD05369DB08DB008B
:100B60005361006842690B7A5B075B0F1A4342616D
:100B70000868102806D0112804D0122802D045E0B9
:100B80000220F8BD244A9368102809D011280AD001
:100B900001200006034393600868102806D035E062
:100BA0000120C005F6E701208005F3E71C481B493A
:100BB0000068FFF79BFA0A21484300E0401E0090BE
:100BC0000028FBD122E0986A0E78B24090439862E8
:100BD0000868102803D0112801D0122816D10E4918
:100BE0008A68102807D0112808D001200006824307
:100BF0008A600BE005E00120C005F8E701208005D0
:100C0000F5E7816B202211438163012500202075C7
:100C10002846F8BD011000000027014040420F00A7
:100C2000A40000207047704770470000F8B5002608
:100C30000446002805D0A06B25462035002802D0A8
:100C400007E00120F8BD0020E0632875204600F091
:100C5000A9F8A06B1022C006002870DB206881680C
:100C600049076CD4A16B1301994302231943A16373
:100C700081688907890F012905D10168C9070FD14A
:100C8000C16809040CD4C16818239943A3681943A7
:100C9000C16020680169636889008908194301619E
:100CA0002068C1683D4B1940C160207E617E800391
:100CB000C9030843A17E4B031843A36A012B02D04A
:100CC00001231B0300E000231843E3681843236952
:100CD000022B09D0002318432B79E57E5B001843D3
:100CE0000123012D02D00AE00423F4E7002927D0D4
:100CF000A16B20252943A163E16B1943E163E169FD
:100D00000D46FF3DC23D02D0256A294308432168B4
:100D1000CD680543CD600125E16A2D07A94213D0B6
:100D2000012911D002290FD003290DD004290BD09D
:100D3000052909D0062907D0072905D010E028E0A9
:100D4000012109040843DAE721684D69ED08ED0047
:100D50004D6121684D69A78D7F077F0F3D434D6130
:100D60002168C9680E4D2940814207D10020E06307
:100D7000A06B80088000401CA06308E0A06B0221EB
:100D800088431043A063E06B1843E06301263046BC
:100D9000F8BDA06B1043A063F8E700001902FEFF46
:100DA000E7FF3F8370B586B0054614216846FFF71C
:100DB0000FFA1B492868884230D11A498A694015C0
:100DC00002438A618A69024005924A69000202432D
:100DD0004A6149690026014005911F2000900320C7
:100DE0000190092069460296C00600F0F3F90E480A
:100DF0000E4C41C48020266060604000A0608000EE
:100E0000E0602020666120610848083C00F0AEF8F0
:100E1000002801D0FFF7F6FD2C63656206B070BDB7
:100E20000024014000100240080002404805002054
:100E3000F7B5044600680025806840073DD4264683
:100E40002036307D01280AD001273775607E0128C1
:100E500007D02046FFF758FD050002D02EE0022003
:100E6000FEBDA06B16490840FF2101310843A06375
:100E70000020E0633075216B12488862216B1248B4
:100E8000C862216B1148086321681C200860206833
:100E900041681022114341602068C1683943C16034
:100EA0002168206B4031029B019A00F089F820688C
:100EB000816804221143816000E002252846FEBDBE
:100EC000FEF1FFFF79080008FF080008E5080008A8
:100ED000F0B4C16B0D6801680C680422066C1346FF
:100EE000B3402B420DD063070BD50B689B0602D491
:100EF0000B6893430B60016C8A40C16B4A60C16A06
:100F000019E00227B74002462F4001232032002F6C
:100F100015D0A70713D50C68A40604D40C680A25BD
:100F2000AC430C605370036C02219940C36B596051
:100F300000211170816A002916D0F0BC08470827EB
:100F4000B7402F4210D024070ED50C680E25AC43B5
:100F50000C60046C1946A140C46B616083635370DC
:100F600000211170016BE6E7F0BC704770B504001A
:100F700021D00221204620300546417022681168A8
:100F80000E48A3680140606826691843E36833434C
:100F9000184363691843A3691843E3691843084376
:100FA00010602046FFF7FAFC0021A1630120687061
:100FB0002970084670BD012070BD00000FC0FFFF02
:100FC000F8B504468C46203001780025012909D067
:100FD0000126067041780027012905D007700225F7
:100FE0002846F8BD0220F8BD02214170A7632068A1
:100FF000016849084900016061462046FFF7E0FCAE
:10100000E06A00282068016802D00E22114306E041
:101010000A221143016020680168042291430160A3
:101020002068016831430160DAE7000070B50446CA
:1010300000F09CF90546601C02D004480078241892
:1010400000F094F9401BA042FAD370BD9800002034
:10105000F8B5054623480F46017E012601290BD02D
:10106000012101762868204C012807D02046FFF78F
:101070001BFD002813D030E00220F8BD2046FFF70A
:1010800013FD002829D1FFF7BFFC2046FFF70CFD18
:101090000646164801690422914301611DE00020C3
:1010A000C04338606C6812E02046FFF7BFFC0E4872
:1010B000FFF7FAFC06460D48026902218A430261E5
:1010C000002E01D03C6008E0012080022418A868AE
:1010D000810268680818A042E6D80248002101761B
:1010E0003046F8BD6806002050C3000000200240D2
:1010F000034801698022114301610020704700000C
:1011000000200240F0B51FB407461A480024017EB3
:1011100015461E46012907D0012101761648FFF722
:10112000C3FC002803D020E0022005B0F0BD012F51
:1011300002D0022F00D00427220128463146FFF7B3
:101140002FF881B2019862001018FFF781FC0A485D
:10115000FFF7AAFC09490A69520852000A610028EF
:1011600003D1641CE4B2BC42E6D3024900220A76F1
:10117000DBE700006806002050C3000000200240AA
:10118000064900200A69120607D5054A4A60054A41
:101190004A600969090600D5012070470020024015
:1011A00023016745AB89EFCD01214903884202D174
:1011B00001490120486270470000002010B5044931
:1011C0004A69024202D04861FFF7EEFF10BD0000FD
:1011D00000040140FCB500230124A1E027462A4673
:1011E0009F403A4073D04D68012D05D0022D03D0A9
:1011F000112D01D0122D16D185680326AC465D0055
:10120000AE46AE406546B543AC46CE687546AE4088
:1012100065462E43866046680D79BE43ED06ED0FA8
:101220009D4035434560C6685F000325BD40AE461E
:10123000AE4335468E68BE402E43C6604E68022ED1
:1012400001D0122E14D1DE08B60036180196366A87
:101250005D07B446EE0E0F25B54000966646AE43D8
:10126000B4460D69009EB54066462E43019D2E6230
:1012700006687546AE430D79AD07AD0FBD403543E9
:1012800005604D68ED004AD5284DAE692643AE6134
:10129000AD699E08ED07ED0F0095254DB600751957
:1012A000AC46AD689E07360F0F27B740BD430927F0
:1012B000FF06B84201D1002710E01E4FB84201D10D
:1012C00001270BE01C4FB84202D1022706E026E0BE
:1012D0001A4FB84201D1032700E00527B7402F433A
:1012E0006546AF60164E35684F689543FF0300D5DD
:1012F0001543356075684F689543BF0300D51543A6
:101300007560B5684F689543FF0200D51543B56019
:10131000F5684F689543BF0200D51543F5605B1C27
:101320000A681546DA4000D058E7FCBD00100240BC
:10133000000001400004004800080048000C00487C
:10134000000401400069084000D001207047426954
:1013500013460B401B0491430B4383617047002AE3
:1013600001D0816170478162704700000148806848
:1013700070470000980000200248816802788918B0
:10138000816070479800002010B50648016810225F
:1013900011430160002000F007F800F027F800205A
:1013A00010BD00000020024070B504460D4D7D20A8
:1013B0002978C000FEF79AFE01460B480068FEF748
:1013C00095FE00F0CFFA002809D1042C07D20022A4
:1013D0002146401E00F03AF800206C6070BD0120EC
:1013E00070BD000098000020A400002008B5084847
:1013F0008169012211438161816911400091C269B3
:1014000001040A43C261C0690840009008BD0000A1
:1014100000100240002809DBC106C90E01208840E7
:1014200003490860BFF34F8FBFF36F8F7047000011
:1014300080E100E0002805DBC106C90E01208840DC
:10144000014908607047000000E100E010B501F0BC
:10145000A7F910BDF8B50F46060059D03A4D2868D7
:10146000C007C00FB84209D228684008400038437E
:1014700028602868C007C00FB84249D13068334C93
:1014800081070CD5400704D560680721090208438D
:1014900060606068F0218843B1680843606030781C
:1014A000C00726D0706801280ED0216802280ED00F
:1014B000890700292CDA6168890889000143616085
:1014C000FFF754FF00900DE021688903F1E78901DF
:1014D000EFE7FFF74BFF0099411A1D48814201D900
:1014E0000320F8BD60680C210840716889008842BB
:1014F000EFD12868C007C00FB8420BD92868400850
:101500004000384328602868C007C00FB84201D0A7
:101510000120F8BD3078400706D560680721090230
:101520008843F1680843606000F018F86168094A70
:101530000906090F515CC840074908600020FFF701
:1015400033FF0020F8BD00000020024000100240E0
:10155000881300000F390008A400002010B514A360
:101560000FCB88B06C460FC415A30FCB0FC4184A1D
:1015700051680C200B4603401648042B16D0082B4C
:1015800014D18B021B0F6C46E45CD26A04AB1207C9
:10159000120F9A5CC90305D500231946FEF7D0FD4A
:1015A000214601E020460C4901F0E1F808B010BDE9
:1015B00002030405060708090A0B0C0D0E0F101094
:1015C0000102030405060708090A0B0C0D0E0F1093
:1015D0000010024000127A0000093D00FEB5040030
:1015E00070D02078DC4DC0074AD068680007800FB3
:1015F000012807D068680007800F022809D16868B1
:10160000C00306D5286880033AD560680028E7D073
:1016100036E06168012914D001208004002901D03E
:10162000052914D02A68012109048A432A602968FF
:10163000814329606068002816D0FFF797FE0646B0
:101640000EE028680121090408432860F2E72968B0
:1016500001432960F5E7FFF789FE801B64286ED8F7
:1016600028688003F7D50BE0FFF780FE064604E00C
:10167000FFF77CFE801B6428F1D828688003F7D42C
:1016800020780126800700283CDA68680007800F70
:1016900007D068680007800F022809D16868C00376
:1016A00006D42868800716D5E06801280AD112E020
:1016B000E0680028286816D030432860FFF756FEFF
:1016C000074605E043E1FFF751FEC01B0228C6D8DC
:1016D00028688007F7D52868F82188432169C90060
:1016E000084328600EE0400840002860FFF73EFEF7
:1016F000074604E0FFF73AFEC01B0228AFD828686F
:101700008007F7D42078000722D5E0690028686AAE
:101710000ED030436862FFF729FE074604E0FFF76A
:1017200025FEC01B02289AD8686A8007F7D50FE00B
:10173000400840006862FFF719FE074605E09DE09B
:10174000FFF714FEC01B022889D8686A8007F7D407
:10175000207804274007002860DA00200190E8691B
:10176000C00008D4E969B8060143E961E9690140AC
:1017700001200091019079480168C90511D40168E0
:10178000821511430160FFF7F1FD009005E0FFF7BE
:10179000EDFD0099401A642870D870480068C005B3
:1017A000F5D5A06801280AD0002801D0052810D05E
:1017B000286A400840002862286AB84301E0286A85
:1017C00030432862A068002812D0FFF7CFFD0090B8
:1017D0000AE0286A38432862F1E7FFF7C7FD00995D
:1017E000411A5F48814249D8286A8007F5D50DE043
:1017F000FFF7BCFD009006E0FFF7B8FD0099411A25
:10180000574881423AD8286A8007F5D401980028C1
:1018100004D0E969012000078143E9612078C0060E
:1018200035D5606901280CD0401D686B23D0384342
:101830006863686B400840006863FFF797FD0646E1
:1018400022E0686B38436863686B30436863FFF776
:101850008DFD064604E0FFF789FD801B02285BD85A
:10186000686B8007F7D5686BF8218843A169C900C8
:10187000084368630BE0B8436863F4E74CE0FFF7A4
:1018800075FD801B022847D8686B8007F7D4206A53
:1018900000285ED069680907890F022942D0012615
:1018A00036060228286805D0B0432860FFF75EFDA1
:1018B000044633E0B0432860FFF758FD074604E0D4
:1018C000FFF754FDC01B022826D828688001F7D4F2
:1018D000E86AE16A000900010843E862616AA06AF7
:1018E000084369683D2212049143084368602868F0
:1018F00030432860FFF73AFD044604E0FFF736FD69
:10190000001B022808D828688001F7D521E0FFF7DE
:101910002DFD001B022801D90320FEBD286880018F
:10192000F5D416E00128F8D06868E96A01221204AB
:10193000636A02409A420AD10907E26A090F91429A
:1019400005D10F2189040840A16A884201D00120F5
:10195000FEBD0020FEBD00000010024000700040EF
:1019600088130000094910B5401E884201D90120A2
:1019700010BD074C60610321081F00F011FF00201B
:10198000A06107202061002010BD0000FFFFFF00C4
:1019900000E000E070477047F0B502462032137F48
:1019A000012B21D00125157702235377066874682F
:1019B000B3687027BC430F682743776000680B4CFF
:1019C000A04208D0AC07A04205D0094CA04202D0EA
:1019D000084CA04204D180244968A3431943816084
:1019E000557700201077F0BD0220F0BD002C01409B
:1019F000000400400040014070B5040005D02546B9
:101A00002035687F002802D006E0012070BD00204C
:101A10002877204600F014F802206877211D2068FE
:101A200000F0D2FD01204034A071A877E877207043
:101A30006070A070E070207160716877002070BDE8
:101A400008B50122016892071748914207D1C16980
:101A500001221143C161C0691040009008BD134AC2
:101A600091420DD1C26902210A43C261C0690022BC
:101A70000840009011461020FFF7E8FC10200FE00E
:101A80000B4A9142EAD1C26989150A43C261C06911
:101A900000220840009011461320FFF7D7FC1320C6
:101AA000FFF7C8FC08BD0000001002400004004021
:101AB00000200040014620314A7F012A01D0012048
:101AC000704702224A7700680B4A0121904208D0F1
:101AD0008A07904205D0094A904202D0084A9042B3
:101AE00004D182685207520F062A02D002680A43C4
:101AF0000260002070470000002C014000040040FC
:101B000000400140014620314A7F012A01D00120D6
:101B1000704702224A770268D36801210B43D360E1
:101B200000680B4A904208D08A07904205D0094AC3
:101B3000904202D0084A904204D182685207520F64
:101B4000062A02D002680A430260002070470000A3
:101B5000002C01400004004000400140F8B505465B
:101B600004462035287F012817D001262E77022031
:101B70006877226890687727FF23B8431B02984351
:101B800090600A68502A31D00EDC202A4BD006DC47
:101B9000002A48D0102A3AD145E00220F8BD302A68
:101BA00041D0402A33D136E0602A27D0702A12D0A3
:101BB00001200003121A2AD0824228D1CB684A6839
:101BC0008968206800F04AFD20688168012292033C
:101BD000114381601BE0CB684A688968206800F087
:101BE0003DFD216888683843886010E0CA6849680C
:101BF000206800F046FD5021206806E0CA68496868
:101C0000206800F04FFD6021206800F032FD6E7703
:101C100000202877F8BDCA684968206800F031FDC7
:101C200040212068F1E711462068EEE7704770B563
:101C30000446006801690025C9438907002915DBAE
:101C4000C168C943890711D4E91E016101202077C9
:101C5000206880698007204602D0FFF7E7FF04E094
:101C600000F096F8204600F094F825772068016986
:101C7000C943490717D4C168C943490713D404218C
:101C8000C943016102202077206880698005800FA8
:101C9000204602D0FFF7CAFF04E000F079F82046A2
:101CA00000F077F8257720680169C943090716D441
:101CB000C168C943090712D40821C943016104203E
:101CC00020772068C0698007204602D0FFF7AEFF6A
:101CD00004E000F05DF8204600F05BF8257720680E
:101CE0000169C943C90617D4C168C943C90613D4D9
:101CF0001021C9430161082020772068C069800550
:101D0000800F204602D0FFF791FF04E000F040F87A
:101D1000204600F03EF8257720680169C943C907CD
:101D200008D1C168C943C90704D1891E0161204691
:101D300000F030F820680169C943090609D4C16878
:101D4000C943090605D48021C94301612046FFF734
:101D500021FE20680169C943490609D4C168C94305
:101D6000490605D44021C9430161204600F00CFA20
:101D700020680169C943890609D4C168C943890635
:101D800005D42021C94301612046FFF704FE70BD40
:101D900070477047F1B5F34900980025F24C88422E
:101DA0007AD1F24E0121C9023046FFF7D0FA606DB8
:101DB000401C6065A06D401CA065A06F401CA06722
:101DC000204680300169491C0161E068401CE060E8
:101DD000206C401C2064606E042803D100F0D6F90A
:101DE00000280BD0606E032801D002281ED10121EB
:101DF000C9033046FFF7A6FA002817D0616B002907
:101E000002D0206C0F2811DD7D23E26CDB00606DB9
:101E10005A43C30F1B185B085B00C01AFF232D3306
:101E2000584310180A225143401813E0606E0428EA
:101E300016D1606B002802D0216C0F2913DD7D22A2
:101E4000E16CD2005143226B64235A4389180A2261
:101E500050430818A16B40180021206201F094FC47
:101E6000606B002861D0206C0A2816DAC007C01702
:101E70008000001D01F036FD7D21206DC900484322
:101E8000216B642251434118606B0A2250430818A9
:101E9000A16B401820622AE082E00F282ADAA06BAA
:101EA00000280DD0E068FEF7ABFB0022D243FEF71E
:101EB00085FB0022AE4BFEF7C5FB01D2002000E0FF
:101EC000042001F00FFD7D21E06CC9004843216B27
:101ED000642251434118606B0A2250430818A16BD9
:101EE00040182062616E012974D0022972D000214D
:101EF00001F04AFC206DFEF783FB06460F46206C7E
:101F0000FEF77EFB0022D243FEF758FB0022994BDE
:101F1000FEF7DCFA32463B46FEF794FB05D8256314
:101F200025640020656301F0DDFCA06B00280ED065
:101F3000E068FEF765FB0022D243FEF73FFB00227C
:101F40008B4BFEF77FFB02D2002001F0CBFC864ECC
:101F5000E5678036884A2946284635604B00D35AC3
:101F6000491C18180A29F9DB31600A21FEF7D4F858
:101F7000E06700F0C1FCE56760647F492A462846B7
:101F8000143135605300CB5A521C18180A2AF9DB59
:101F90000A213260FEF7C0F8E06700F0ADFCA064F3
:101FA0007649009888427DD1734A20880A3A4100D8
:101FB000714E1388735253881E3253520A21401CAB
:101FC000FEF794F86E4E2180B0686E4F012805D060
:101FD0006FE0FFE7002101F00FFC8BE73069E16D56
:101FE0004018E0657268824246DB3168012903D0FF
:101FF0003840032810D001E080070DD000220121D5
:1020000089025A48FFF7ABF930680128E06D05D026
:102010003840022812D004E00122F0E738400128BD
:102020000CD0002204215148FFF799F930680128AB
:10203000E06D05D03840012811D004E00122F1E71D
:10204000384002280BD0002202214848FFF787F9C8
:1020500030680128E06D04D080070BD004E0012235
:10206000F2E73840032805D0002201213F48FFF75E
:1020700076F91EE00122F8E7216E01290ED1616E8A
:10208000012903D0032901D0022902D13368022B90
:102090001DD0042902D13168012918D00021322332
:1020A000594300E05BE0F36859438918814200DC42
:1020B000B560206F002852D0206B03284FD1E12655
:1020C000606FB600B04204DA800712D004E001214C
:1020D000E5E7384003280CD00022012109032348FA
:1020E000FFF73DF9606FB04205DA3840012812D0A1
:1020F00004E00122F1E7384002280CD00022092038
:102100002021C006FFF72BF9606FB04205DA384096
:10211000022812D004E00122F1E7384001280CD057
:10212000002209204021C006FFF719F9606FB04274
:1021300005DA3840032813D003E00122F1E78007D5
:102140000ED0002209208021C006FFF708F9606F39
:10215000E121401CC9006067884200DB6567F8BD6B
:102160000122EFE71C0600200000002000040048C8
:10217000000024400020AC40B2000020D405002024
:10218000E4040020030000807047FEE710B5092436
:10219000FF21E40601312046FFF7D4F800280DD1D5
:1021A000012149022046FFF7CDF8002806D1012180
:1021B00089022046FFF7C6F8002800D0012010BD94
:1021C00032494A6E486C90425DD008468030436B7D
:1021D00042699A4257D0836B82699A4253D0C36B4B
:1021E000C2699A424FD00368026A9A424BD0436850
:1021F000426A9A4247D08368826A9A4243D0C3684F
:10220000C26A9A423FD0026B006982423BD04A6F59
:10221000486D904237D08A6F886D904233D08A6E75
:10222000886C90422FD0CA6EC86C90422BD00A6F37
:10223000086D904227D0084680380368026A9A42A7
:1022400021D04368426A9A421DD08368826A9A42CA
:1022500019D0C368C26A9A4215D00369026B9A42C8
:1022600011D0836E826C9A420DD00A6C096E8A423C
:1022700009D0C26EC16C914205D0016C006E8142E2
:1022800001D0012070470020704700005C01002051
:10229000FEB500242849294800940194029412C0F4
:1022A00008210125042672C0047044708570C47032
:1022B000FF21C23184604160014608310D71056122
:1022C0001838FEF7B3FC002801D0FEF79BFB012075
:1022D0000003009401900324694618480294FEF715
:1022E0000BFC002801D0FEF78DFB694613480095D2
:1022F000FEF702FC002801D0FEF784FB02200090CC
:1023000069460E48FEF7F8FB002801D0FEF77AFB7D
:1023100069460A480094FEF7EFFB002801D0FEF75B
:1023200071FB694605480096FEF7E6FB002801D0E0
:10233000FEF768FBFEBD00000024014008050020F8
:1023400008B50848416901221143416140691040C4
:102350000022009011460920FFF778F80920FFF7C6
:1023600069F808BD00100240F0B587B01421684636
:10237000FDF72EFF284842690121C9040A43426142
:1023800042690A4005924269C9000A4342614269B2
:102390000A400592426949110A43426142690A4072
:1023A0000592426949000A43426140691B4D084059
:1023B0000927FF060590002229463846FEF7CFFF81
:1023C000174E002231461748FEF7C9FF012040038F
:1023D0000090154800240190694602941348FEF7C6
:1023E000F9FE00950125029469463846019503944B
:1023F000FEF7F0FE029469460A48009601950394A0
:10240000FEF7E8FE002211460720FFF71FF807201D
:10241000FFF710F807B0F0BD00100240E0870000A1
:10242000C7FC00000004004800002110000800481C
:1024300010B50A4808490160094941600021FF229E
:102440008160F5320161C2608161FFF7D5FA002831
:1024500001D0FEF7D7FA10BD002000401C06002076
:1024600080BB000010B586B00024009401211648FE
:1024700001940294039404948907059401602F2128
:10248000846041600461611E8461C160FFF7B4FA39
:10249000002801D0FEF7B6FA01200003009069463B
:1024A0000948FFF75BFB002801D0FEF7ABFA049464
:1024B00004A905480594FFF76FFA002801D0FEF73C
:1024C000A1FA06B010BD00008C05002010B586B042
:1024D0000024009416480194029403940494134930
:1024E000059401602F218460416004611149846179
:1024F000C160FFF781FA002801D0FEF783FA0120BE
:102500000003009069460A48FFF728FB002801D025
:10251000FEF778FA049404A905480594FFF73CFAFD
:10252000002801D0FEF76EFA06B010BD000400408E
:10253000D40500201F4E0000FEE77047704710B51D
:10254000FEF71AFF10BD30B591B030216846FDF797
:102550003FFE002411200F9400900120019005906F
:10256000102006900E940003099000010D9402259E
:102570000A900C9408950B946846FFF72FF80028F2
:1025800001D072B6FEE707200C900E9401210D9544
:102590000F940CA8FEF75EFF002801D072B6FEE78C
:1025A00011B030BD7047000010B50248FFF73FFB87
:1025B00010BD00001C06002010B50248FFF737FBD5
:1025C00010BD0000D4050020F0B502681D4B0124A9
:1025D000A4071D4D984203D0A04201D0A84203D1C8
:1025E0007026B2434E683243184E194F98420DD0B0
:1025F000A0420BD0A84209D0164CA04206D0B0424F
:1026000004D0B84202D0144CA04204D103242402C6
:10261000A243CC6822438024A2434C692243026037
:102620008A68C2620A688262984206D0B04204D0C8
:10263000B84202D0084A904201D1096901630121E0
:102640004161F0BD002C0140000400400040014009
:1026500000440140002000400048014030B584683B
:10266000FF252D021B021343AC430B43234383601E
:1026700030BD826870239A430A4307210A4382606F
:10268000704730B5036A046A6408640004628469B0
:10269000F025AC43120122430A24A3430B43826179
:1026A000036230BD30B5036A1024A343036284691A
:1026B000036A0F252D031203AC432243A024A34336
:1026C000090119438261016230BD000070B51646F0
:1026D0000D460446FEF754FD0A48002162C00A492F
:1026E0000C38FEF7B5FC2246002329460220FEF7EF
:1026F00009FD002803D1044901201C39C866FEF7F2
:10270000F7FC70BDD80400201C000020F0B50A4C76
:102710000A4B00218A000020A2584D011646C640EF
:102720002F18F607F60FBF00401CDE512028F5DBFE
:10273000491C0329EEDBF0BDFC040020DC00002076
:102740002021020C01D010211046020A01D01046AF
:102750000839020901D01046091F820801D010462D
:10276000891E420801D0881E7047081A7047F8B5C4
:10277000040C8BB2264682B25E430D0C1046370C19
:102780005843360480190021794116466E43370CB0
:1027900036048019794126466E438919F8BD000038
:1027A0008307FF22DB0E9A408907090E9940002813
:1027B00008DB830809489B001B18186890430843EE
:1027C000186070470007000F0838830804489B0012
:1027D0001B18D86990430843D861704700E400E0B3
:1027E00000ED00E002E008C8121F08C1002AFAD17B
:1027F00070477047002001E001C1121F002AFBD181
:102800007047000010B5012240210248FEF7A7FDE5
:1028100010BD00000004004810B50022402102480D
:10282000FEF79DFD10BD000000040048002808D000
:102830007D23DB0019460222521C8A42FCDB401E2B
:10284000F8D1704710B5012280210248FEF787FDBC
:1028500010BD00000004004810B50022802102488D
:10286000FEF77DFD10BD00000004004810B5FFF725
:10287000D3FF0520FFF7DAFFFFF7C4FF0220FFF7C1
:10288000D5FFFFF7C9FF10BD10B5FFF7BBFFFFF77E
:10289000D9FF0220FFF7CAFFFFF7DEFF10BD10B51A
:1028A000FFF7BAFF0220FFF7C1FFFFF7D5FF0220B5
:1028B000FFF7BCFFFFF7A6FF0220FFF7B7FFFFF708
:1028C000C1FF10BD70B504460025FFF7A5FFE00766
:1028D00002D0FFF7B7FF01E0FFF7BEFF0320FFF7CD
:1028E000A5FF6408FFF78EFF0320FFF79FFF6D1C15
:1028F000082DEADB70BD0000FEB50446FDF794FE2E
:10290000154A164BFDF77AFD009020466043019171
:102910000746FDF789FE124A124BFDF76FFD05468B
:1029200038460E466043FDF77FFE0F4A0F4BFDF71A
:1029300065FD2A463346FDF7AFFC019B009AFDF783
:102940004FFD0B4A0B4BFDF7A7FC0B4A0B4BFDF75A
:10295000A3FCFDF78BFEFEBDC7293A92CB7FD03F8B
:102960009E1848066FFE353FFB2DD6C06A368CBEDA
:102970007B14AE47E1AA54403333333333B3304092
:10298000F8B50125AD0209246E10AF10E406012848
:102990000FD00ADC401C60D001285DD129462046BA
:1029A000FEF7D0FC002811D10AE00A281ED00B281F
:1029B00052D131462046FEF7C5FC00283AD133E01B
:1029C00031462046FEF7BEFC00280CD000223146DE
:1029D0002046FEF7C4FC002229462046FEF7BFFC35
:1029E000C820FEF723FB0122394632E02946204663
:1029F000FEF7A8FC002805D139462046FEF7A2FCC8
:102A000000280CD0002239462046FEF7A8FC002200
:102A100029462046FEF7A3FCC820FEF707FB01224B
:102A2000314616E0012213E039462046FEF78AFCC3
:102A30000028F7D0002239462046FEF790FC0022FD
:102A400031462046FEF78BFCC820FEF7EFFAE9E797
:102A500029462046FEF783FCF8BD00223946204671
:102A6000FEF77DFC002231462046FEF778FC00226E
:102A7000EEE70000F0B50A480A4C0022002193005E
:102A8000C15055016F18BF00E759C6588F403E43EB
:102A9000491CC6502029F5DB521C032AEEDBF0BD91
:102AA000FC040020DC000020F8B5FFF789FB794C1E
:102AB0000028E0637ED0784A0A26506E1346410013
:102AC00040188446206380335869642148439969DB
:102AD000656E71434018D9694118002065290AD0F4
:102AE00004DC012908D00B290FD108E06E2908D099
:102AF0006F290AD107E002216166A06605E0032183
:102B0000FAE70421F8E70121A1666249666E803187
:102B1000B54207D0A56E002D04D1886048605F4D96
:102B2000E065A8605E6A1D6A7600AD199E6ADF6A7C
:102B3000B600FF001B6BF619AD191B01EB18103323
:102B4000E364536D0A256B43956D5B19CB60936C01
:102B50000A256B43D56C5B1923660B2B01D001252D
:102B600000E000254D4B1D61136D23674A4D636BDB
:102B7000803D002B02D1EB6B012B0FD06E6A2B6ACC
:102B800076009B19AE6AEF6AB600FF00F6199B1932
:102B90002E6B36019B19266DB34200D02064EB6B7F
:102BA0005E009B1963630FD06E6A2B6A76009B19D7
:102BB000AE6A00E06CE0EF6AB600FF00F6199B1900
:102BC0002E6B36019B1900E0354B2365126E5300C6
:102BD000D218A26300D0E060EA6E012A02D0002A77
:102BE00005D005E0012048610B20C86000E0486185
:102BF000604600281ED0042000F074FE7D21E06CA9
:102C0000C9004843216B642251434118606B0A227A
:102C100050430818A16B40182062616E012905D04D
:102C2000022903D0002100F0AFFD06E0002100F0F2
:102C3000E3FD02E0002000F055FE206B002804D0E8
:102C4000286C8006000E00F04DFEFFF713FF134DB9
:102C50000222183528682169FFF738FD02226868CA
:102C60006169FFF733FD0322A868A169FFF72EFD14
:102C700001220925D403ED0621462846FEF76FFB05
:102C80003220FEF7D3F9002221462846FEF767FBE3
:102C9000F8BD0000000000205C010020E4040020DA
:102CA0001027000008B5FEF76FFBFFF74CFCFFF79D
:102CB0005BFBFFF745FBFFF7BBFBFFF7E9FAFFF70D
:102CC000D1FBFFF703FC00F0DBFDFE4C206901683F
:102CD000FD480160616909684160A1690968816016
:102CE000FFF714FDFFF7E0FEF848FEF70BFFF8488A
:102CF000FEF708FFF748FEF7DDFE0522F649F74824
:102D0000FEF796F801220925D703ED063946284635
:102D1000FEF725FB3220FEF789F9002239462846C6
:102D2000FEF71DFB3220FEF781F9012239462846C5
:102D3000FEF715FB3220FEF779F9002239462846C6
:102D4000FEF70DFB254680350026A06E002828D012
:102D5000E349606C884204DD626E032A01D00320DF
:102D600018E0E04A636E904203DA042B06D0042098
:102D700010E0042B02D0032B04D006E0DA4B98427B
:102D800007DC02E0D84B984203DB884209DA904224
:102D900007DD01206066AE60CB486E601838E665DE
:102DA0008660606E01287CD002287BD0032802D088
:102DB000042852D185E2A868002849D1012149039D
:102DC000CA48FEF7BFFA00280ED0012100224903AD
:102DD000C648FEF7C4FA012100228903C348FEF762
:102DE000BEFA6665A6652BE03946C048FEF7AAFA2A
:102DF000002816D0A06DFDF703FC0022D243FDF79A
:102E0000DDFB0022BA4BFDF761FB012300229B078B
:102E1000FDF718FC05D200223946B448FEF79FFAA8
:102E20000EE001214903B148FEF78CFA002807D1D2
:102E30003946AE48FEF786FA002801D10120A86085
:102E4000FFF7A4F9002803D00020C043FFF798FD46
:102E5000206B032802D0002872D031E2A868012834
:102E6000FBD16868002801DB0A2800D16E600121CF
:102E70008907606CFDF7B7F90090E06CFDF7B4FBD3
:102E80000099FDF70FFC02D3686900281DD0606D22
:102E9000FDF7B6FB0022D243FDF790FB0022944BD6
:102EA00001E096E3C5E0FDF711FB0022914BFDF731
:102EB000C9FB2ED2012251038C48FEF750FA0122A1
:102EC00091038A48FEF74BFA23E001218907606CE1
:102ED000FDF7DAF90090E06CFDF786FB0099FDF74D
:102EE000EBFB16D2012149038048FEF72BFA01289B
:102EF0000FD1686900280CD10121002249037B48C9
:102F0000FEF72DFA0121002289037848FEF727FAFF
:102F10006665E868FFF734FD6868E16D02460843BE
:102F20007ED0002A06D0012A0BD0022A79D0032AAB
:102F300078D0C3E3644818388068002873D0BDE3B4
:102F40001FE0002970D014E05F480121183881602B
:102F5000C1E25D4818388068002866D0AEE35A4860
:102F60000121183881600221A1E2012150E10021F4
:102F70004EE1554818388068002873D09EE3686099
:102F80009BE3A8680128D4D141035848FEF7DAF939
:102F900000280CD00121002249035448FEF7DFF934
:102FA0000121002289035148FEF7D9F96665686856
:102FB00000280ADB4448012118388160016055214E
:102FC000C9004160E665C660FFE23F49183989687B
:102FD0000029AED1411C03D0811C0FD0C01C6AE374
:102FE0003948022218380260012141228160D20052
:102FF00042601E22E665C260A6673CE1E665A06FFE
:10300000FDF7FEFA0022D243FDF7D8FA00223A4B30
:10301000FDF718FB8DD20020C043FFF7B1FC05E09F
:1030200062E13EE341E32AE232E347E20220C043A9
:103030003CE1A86800286BD1012149032B48FEF729
:1030400081F900280FD00121002249032748FEF70B
:1030500086F90121002289032448FEF780F966657C
:10306000A6654DE01BE239462048FEF76BF90028C3
:1030700016D0A06DFDF7C4FA0022D243FDF79EFAE8
:1030800000221B4BFDF722FA012300229B07FDF7CC
:10309000D9FA05D2002239461448FEF760F92FE02C
:1030A000012149031148FEF74DF9002828D139467E
:1030B0000E48FEF747F9002822D10120A8604B20D6
:1030C00000011BE000000020FC0400201C06002082
:1030D000D40500208C050020A80000200805002051
:1030E0000000D8410000B8410000C8410004004879
:1030F00000004E400000084000003E402861A667E6
:10310000FFF744F8002803D00020C043FFF738FC45
:10311000206B032802D000287CD0CFE2A8680128C9
:10312000FBD16868002801DB0A2800D16E60606D61
:10313000FDF766FA0022D243FDF740FA0022FB4B6E
:10314000FDF7C4F90022FA4BFDF77CFA21D20121E8
:103150004903F848FEF7F6F800281AD12869FDF768
:103160004FFA0022D243FDF729FA0022EF4BFDF778
:10317000ADF90022F04BFDF765FA0AD201225103A6
:10318000EC48FEF7ECF801229103EA48FEF7E7F875
:1031900023E001214903E748FEF7D4F801281DD1B7
:1031A0002869FDF72DFA0022D243FDF707FA002225
:1031B000DE4BFDF78BF90022E04BFDF743FA0DD211
:1031C000012100224903DB48FEF7C9F80121002252
:1031D0008903D848FEF7C3F866652E61E868FFF7F3
:1031E000CFFB6868E16D02460A437DD0002800D11C
:1031F000A0E6012891D1002901D0BAE60AE0D04822
:10320000022202600121FF2281606932C6604260B1
:10321000016153E2A8680128FBD14103C548FEF7CC
:1032200091F800280CD0012100224903C148FEF783
:1032300096F8012100228903BE48FEF790F86665E2
:103240006868002800DBB5E6BD4989680029E0D13F
:10325000411C05D0811C12D0C11C15D0001D2AE2D2
:10326000B74802220260012141228160D2004260FF
:103270001E22E665C2600120C0432166A7E1E66523
:103280000220C043A667A2E1A06FFDF7B9F90022B2
:10329000D243FDF793F90022AA4BFDF7D3F9B8D238
:1032A0000020C043FFF76CFB0320C0436860A448C4
:1032B0000121816002210160F0214160E665C66064
:1032C000FCE1A868002820D1012149039948FEF7B4
:1032D00039F800280FD00121002249039548FEF754
:1032E0003EF80022012100E0C9E189039148FEF780
:1032F00036F86665A6650120A860FEF747FF00283E
:1033000003D00020C043FFF73BFB206B032802D013
:1033100000287DD0D2E1A8680128D1D168680028B2
:1033200000DA6E6001218907606CFCF75CFF009099
:10333000E06CFDF759F90099FDF7BEF902D3686911
:10334000002826D0606DFDF75BF90022D243FDF71F
:1033500035F90022754BFDF7B9F80022744BFDF7E3
:1033600071F90ED2012251037248FDF7F8FF0122D4
:1033700091037048FDF7F3FF012239466D48FDF7D0
:10338000EEFF7149A06C884228DDE868FFF7F8FA83
:1033900024E001218907606CFCF776FF0090E06C67
:1033A000FDF722F90099FDF77DF917D201214903B4
:1033B0006048FDF7C7FF012810D1686900280DD1CA
:1033C0000121002249035B48FDF7C9FF01210022CA
:1033D00089035848FDF7C3FF6665A66501214903C7
:1033E0005448FDF7AFFF002831D139465148FDF769
:1033F000A9FF01282BD1A06DFDF702F90022D243CD
:10340000FDF7DCF80022494BFDF760F8002200E0F0
:103410009EE04E4BFDF716F903D20020C043FFF7A4
:10342000AFFAA06DFDF7ECF80022D243FDF7C6F825
:1034300000223E4BFDF74AF8012300229B07FDF7CF
:1034400001F904D2002239463A48FDF788FF68683E
:10345000E16D02460A4309D0002800D16AE501283F
:103460000FD002281DD003282AD04CE03448012177
:103470005522C660D200816006C0816043E0012011
:103480007DE5002900D074E52D4902220A60012063
:1034900088604122D200CE604A6008610EE10220BD
:1034A0006DE5002900D054E52548012181600160C7
:1034B000FF21913141601E21C16011E003205EE5D2
:1034C000002904D01E48806800280ED0F6E01C4871
:1034D0000121816002210160FF219131C6604160BC
:1034E000216E0B2900D142E53FE501214903114836
:1034F000FDF728FF00280AD0FEF748FE002806D076
:1035000002206860E66568680A2802D0D6E00A20D2
:10351000F7E7012149030748FDF714FF012857D1B8
:10352000FEF734FE002853D0022050E000004E4049
:10353000000008400004004800001C400000144047
:10354000E404002000003E400000F0410000F83F8D
:10355000A86801283CD141036448FDF7F3FE002828
:103560000DD00121002249036048FDF7F8FE01213A
:10357000002289035D48FDF7F2FE6665A665A06D31
:10358000FDF73EF80022D243FDF718F80022584B11
:10359000FCF79CFF012300229B07FDF753F804D2A0
:1035A000002239465148FDF7DAFE0020C043FFF7FC
:1035B000E7F9686800287CDB4E4801218160022120
:1035C00001605521C9004160E6650020C043686084
:1035D00074E0012149034548FDF7B4FE002813D0EB
:1035E0000121002249034148FDF7B9FE01210022D3
:1035F00089033E48FDF7B3FE39463C486665FDF752
:10360000A1FE002800D0A66539463848FDF79AFE8D
:10361000002815D0A06DFCF7F3FF0022D243FCF781
:10362000CDFF0022324BFCF751FF012300229B0704
:10363000FDF708F804D2002239462C48FDF78FFE2A
:10364000206B032802D00028AFD037E068680A2832
:1036500001D0002800DA6E60E868FFF791F9686829
:10366000E16D02460A430AD0002800D162E4012835
:1036700000D166E4022814D0032816D01EE01D48AD
:1036800001215522C660D200816006C0816015E02C
:10369000184802220260012141228160D200B5E572
:1036A00007E0002900D054E44EE4002900D060E493
:1036B00055E410488068002800D1E665606A01285A
:1036C00001D0FFF742FB0720FDF7A4FE01214903CB
:1036D0000948FDF737FE002803D100F00FF8FFF787
:1036E000E3F907206662FDF7A5FEEAE7000400485B
:1036F00000004E40E404002000080048F8B5012610
:103700001E4D760331462846FDF71CFE0028F9D0F1
:1037100031462846FDF716FE0028F9D1184C00273F
:10372000A762E76231462846FDF70CFE0028F9D073
:1037300008E0E06A401CE062A068FDF755F9E06A25
:10374000C82805DC31462846FDF7FCFD0028F0D1ED
:10375000E06A0C2805DDA16A01208A000949885029
:1037600003E0A06A810007484750A06A401CA0629D
:103770006028D6DB6068FDF759FCF8BD00080048FA
:1037800000000020DC000020F3B583B00024194EB7
:1037900080276D460A21FCF7BFFC715C2955022C7D
:1037A00006D10499002903D06A4691783943917073
:1037B000641C052CEEDBFFF767F84020FFF782F86A
:1037C000FFF754F8FFF76BF8FFF75EF8C020FFF73C
:1037D00079F8FFF74BF800240426301B285CFFF72C
:1037E00071F8FFF743F8641C052CF6DBFFF757F878
:1037F00005B0F0BDFE380008F3B583B000246D4677
:103800001E4F802603E0022C01DD402004E00A2147
:103810000398FCF781FC785C2855022C06D10498AB
:10382000002803D069468878304388700A210398BD
:10383000FCF772FC641C0390052CE4DBFFF724F812
:103840004020FFF73FF8FFF711F8FFF728F8FFF7E0
:103850001BF8C020FFF736F8FFF708F8002404260D
:10386000301B285CFFF72EF8FFF700F8641C052CCE
:10387000F6DBFFF714F805B0F0BD0000FE380008D5
:1038800010B5164886B04269012189040A43426195
:1038900042690A40059242690A4342614069084010
:1038A000059014216846FCF793FC0120029011203A
:1038B0000190032003904020094C00906946204667
:1038C000FDF788FC8020009069462046FDF782FCC9
:1038D000082000F007F806B010BD000000100240FC
:1038E0000004004810B50446FEF7CEFF8734E0B26E
:1038F000FEF7E8FFFEF7BAFFFEF7D1FF10BD3F0667
:103900005B4F666D7D077F6F777C395E7971000054
:10391000000000000000000102030406070809007F
:103920004039000800000020A8000000E42700083B
:10393000E8390008A8000020E0090000F42700088A
:1039400000000000640000006400000000000000AF
:1039500000E0000800E4000800E8000800000000A3
:103960000000000000000000000000000000000057
:103970000000000000000000000000000000000047
:103980000000000000000000000000000000000037
:103990000000000000000000000000000000000027
:1039A0000000000000000000000000000000000017
:1039B0000000000000000000000000000000000007
:1039C00000000000000000000000000000000000F7
:1039D00000000000000000000100000004000000E2
:0839E0000000000000127A0053
:04000005080000BD32
:00000001FF
