:020000040800F2
:10000000400A0020D1000008B52300080B21000899
:1000100000000000000000000000000000000000E0
:10002000000000000000000000000000B9230008EC
:100030000000000000000000B7230008BB230008F8
:10004000E3000008E3000008E3000008E300000804
:10005000E3000008E3000008E3000008710900085D
:10006000E300000805090008E3000008E3000008B9
:10007000E3000008E3000008E3000008E3000008D4
:1000800035240008E30000080000000025240008D3
:10009000E3000008E3000008E3000008E3000008B4
:1000A000E3000008E3000008E3000008E3000008A4
:1000B000E300000800000000E30000080348854654
:1000C00000F084FB00480047192B0008400A00207C
:1000D0000448804704480047FEE7FEE7FEE7FEE7E6
:1000E000FEE7FEE721240008BD00000830B50B46FE
:1000F000014600202022012409E00D46D5409D4202
:1001000005D31D469540491B254695404019154687
:10011000521E002DF1DC30BD70B5002425460028AC
:1001200001DA01244042002901DA01254942FFF7A2
:10013000DDFFAC4200D04042002C00D0494270BDEF
:10014000F0B51FB40646002082B005464024019158
:1001500000901BE0019922460F46304600F020F83F
:10016000049A059B801A994110D3104619462246DD
:1001700000F068FA361A8F410197224601200021CB
:10018000009F00F05FFA38184D4100902046641E31
:100190000028DFDC019B00982946324607B0F0BDFD
:1001A00010B5202A04DB0846203AD040002110BDBB
:1001B0000B46D340D0402024A21A91400843194650
:1001C00010BDD2B201E00270401C491EFBD2704744
:1001D0000022F6E710B513460A4604461946FFF713
:1001E000F0FF204610BD0000F0B507460846584015
:1001F00087B0C00F049048000E46590040084908D7
:10020000BC1A884105D2384631461E4617460B4671
:1002100002465800400810434CD0300D0390400572
:100220005900400D490D0590401A0290402872DA9D
:1002300018030121000B090508430190049800925E
:10024000002805D001995242002088410092019077
:10025000029840210A1A0199009800F0F3F9054626
:100260000C466B4607CB00F0FDF9C0197141039AAB
:100270000E0D0023D71756401A467A40164344D035
:10028000049A002A2DD0029A012A039A15DC12053D
:10029000C01A914101263605001C7141D20F059EFE
:1002A000D2070093019202962A46234600F03BFAB9
:1002B00007B0F0BD38463146FAE71605224A0F4628
:1002C000B218C01AB74101210905001C4F4100189E
:1002D0007F41114618187941E20F10436D196441AE
:1002E00013E0E2076D0815436408C2071443039A3C
:1002F00001261205C01A91413605001C7141CE0736
:10030000400830434908C01851412A46234600F0AE
:10031000FDF9CDE7FFE7049801224000C117121A4A
:1003200000238B4104983146C417381AA141EEE7E7
:1003300030B40124E407634030BC55E730B40124F5
:10034000E407614030BC4FE70000E0FFF0B51FB4A8
:1003500088B00B990998002448400999C00F4900BA
:1003600049080991C0070B990090490049080B9171
:1003700009990898A64608431CD00B990A98084387
:1003800018D0099801244000420D4800410D0998F9
:1003900024050003000B204309900B980003000B79
:1003A00020430B9050181C4940180022019014461D
:1003B000104605E0002001460DB0F0BD032801DA2B
:1003C000034600E003239C46C11A0AAE0AE05F0020
:1003D00008ADED5B4F00F75B7D430027AA187C4119
:1003E000491C5B1E6145F2DD410004AB5A522104F9
:1003F000120C0A43240C401C0828DFDB01980290F1
:100400000099704601910090059B049A07990698FF
:1004100000F089F9D0E700000DFCFFFFF0B50C46B5
:100420005C4085B0E40FE40703944C0000266408A8
:1004300059009446490802460296224321D062465A
:100440000A431ED06200570D4A000E032303550DC8
:10045000012402462C492405781B1B0B360B40183F
:1004600023432643614600901C46501AB44103D3EF
:100470000098401C009002E0921800985B41002810
:1004800003DA0020014605B0F0BD00200121090576
:100490000746864611E064461D46141BB54106D347
:1004A0006546521BB341744607430C43A646CD072D
:1004B00040084908284392185B4105460D43EAD19C
:1004C0001046184313D06046194650407140084307
:1004D00006D06046101AB34106D20122002306E07E
:1004E00000220123DB0702E00122D24353100098CF
:1004F00074460105381C6141029C039D0019694145
:1005000000F004F9BFE70000FD03000070B54B00E8
:100510005B0803430BD04B005C0D0026334665425D
:10052000B341D417AD1AA34102DB0020014670BDD0
:1005300012053018514170BDC217C10F504010B59F
:100540004018CA079623002100F0A7F810BD00004C
:100550000EB5C217C10F5040CA0740180021054B05
:100560000293019200910A460B4600F0DCF803B0BA
:1005700000BD0000330400000EB5054902910021C2
:1005800000910A460B46019100F0CDF803B000BD82
:100590003304000010B5002904DB0124E4074042C5
:1005A0008C412146002B04DB1C460123DB07524211
:1005B000A3418B4200D1824210BD000010B500293A
:1005C00004DB0124E40740428C412146002B04DB7C
:1005D0001C460123DB075242A341994200D19042BD
:1005E00010BD0000CB0FDB07490010B549080246DB
:1005F0000A4307D00A0D07240903E401090B121B63
:10060000002A01DC002010BDC900440F0C43C100CA
:10061000E018D205801800F038F810BD0122D2078A
:10062000002800DB101A002900DB511A81427047B4
:100630000122D207002800DB101A002900DB511A22
:100640008842704710B5202A04DB0146203A9140C9
:10065000002010BD914020239C1A0346E34019431B
:10066000904010BD10B5202A06DBCB170846203A73
:100670001041C1170B4306E00B461341D040202424
:10068000A21A91400843194610BD002904DA401C03
:10069000490001D140084000704770B40024050CA7
:1006A00005D11024000402D1002921D01124050E07
:1006B00001D100020834050F01D10001241D850F6E
:1006C00001D18000A41C002801DB4000641C00292B
:1006D00008D020252E1B0D46F540A14000D0012159
:1006E0002943084301061B1B000ADB1D02D500201D
:1006F00070BC7047DB05181880180029F8DA401C18
:100700004900F5D170BC40084000704710B5002B7F
:1007100008DA0024401C614192185B411A4301D160
:100720004008400010BDF0B51FB482B005460C0073
:1007300003D0084601F028FF02E001F025FF203039
:100740000246009021462846FFF77CFF049B059A4D
:1007500004460F4618431143084314D0184610436B
:100760001BD0009840210A1A18460599FFF718FD7A
:1007700005460E46009A05990498FFF763FF084363
:1007800005D0012004E02046394607B0F0BD002026
:10079000C11705430E432C43374300990E98630558
:1007A000401A7905E40A00220C43FD0A0A3002D5FA
:1007B00000200146E9E70105101969410C9C0D9DD7
:1007C00000196941FFF7A2FFDFE70000064C012591
:1007D000064E05E0E36807CC2B430C3C98471034E9
:1007E000B442F7D3FFF76EFC4830000868300008C9
:1007F00010B50146406A826B50231A420AD1816BC0
:1008000001225202114381630168CA681205920FE6
:1008100005D020E0006B026B0846904710BD827E39
:10082000002A18D10A68120715D58A6853070122D1
:10083000002B09DB4B680C24A3434B60816B130234
:1008400099431143816306E0816B2023194381633F
:10085000C16B1143C16300F0A1F910BD10B5406A2E
:10086000816B402211438163C16B04221143C16338
:1008700000F096F910BD10B5406A00F090F910BD77
:10088000F8B5044600200090206881688907890F28
:10089000012905D10168C9072CD1C168090429D4EF
:1008A0008168154A102611400125002915D181685B
:1008B00029438160124811490068FFF717FC00E0E6
:1008C000401E00900028FBD100F00CFD07460CE014
:1008D00000F008FDC01B022807D9A06B3043A063BD
:1008E000E06B2843E0630120F8BD20680068C04346
:1008F000C007EDD10020F8BD1700008040420F0076
:100900008800002010B5024800F09EFA10BD0000DB
:100910000405002010B5044600680549401814215C
:10092000FFF7E4FB800020640248E06310BD000094
:10093000F8FFFDBF0000024030B5056C0124AC405B
:10094000C56B6C60046863604368102B036803D058
:1009500099600068C26030BD9A600068C16030BDB7
:100960000022012189074A624A6A8242FCD3704709
:1009700010B50120400300F0DDFB10BD72B6FEE7AC
:1009800006490020C861064801690422114301613B
:1009900001694022114301617047000020060020D8
:1009A00000200240064A0021D16106490A6902235B
:1009B0001A430A6148610869402210430861704780
:1009C000200600200020024010B5054B0022DA610D
:1009D000044A1369012423431361018010BD000000
:1009E000200600200020024010B50B4A0020D168EC
:1009F000CB060A4904D5C86902231843C8611020F0
:100A0000D3685B0705D5CB6901242343CB6104215F
:100A10000843D06010BD00000020024020060020E6
:100A200070B5054600F05EFC0646104C0AE0681CF6
:100A300008D0002D04D000F055FC801BA84201D93D
:100A4000032070BDE068C007F1D1E068800601D5E1
:100A50002020E060E068C00602D4E068400703D5CB
:100A6000FFF7C2FF012070BD002070BD00200240D2
:100A7000F8B50025044620340095227D012A3BD09C
:100A80000122227503689E68760776D43F4F4E6830
:100A9000BE4254D09E6A0F78BA4016439E6201232C
:100AA000C26A1B079A421FD0012A1DD0022A1BD0FE
:100AB000032A19D0042A17D0052A15D0062A13D0E4
:100AC000072A11D002688B6856697607760FB34201
:100AD0000AD05369DB08DB005361006842690B7A76
:100AE0005B075B0F1A4342610868102806D0112883
:100AF00004D0122802D045E00220F8BD244A9368B1
:100B0000102809D011280AD0012000060343936061
:100B10000868102806D035E00120C005F6E701205E
:100B20008005F3E71C481B490068FFF7DFFA0A213C
:100B3000484300E0401E00900028FBD122E0986A64
:100B40000E78B240904398620868102803D01128AC
:100B500001D0122816D10E498A68102807D0112812
:100B600008D00120000682438A600BE005E00120E6
:100B7000C005F8E701208005F5E7816B20221143CD
:100B800081630125002020752846F8BD0110000072
:100B90000027014040420F00880000207047704746
:100BA00070470000F8B500260446002805D0A06B69
:100BB00025462035002802D007E00120F8BD00209E
:100BC000E0632875204600F0A9F8A06B1022C0064B
:100BD000002870DB2068816849076CD4A16B130181
:100BE000994302231943A16381688907890F012969
:100BF00005D10168C9070FD1C16809040CD4C168C7
:100C000018239943A3681943C16020680169636888
:100C100089008908194301612068C1683D4B19406A
:100C2000C160207E617E8003C9030843A17E4B031F
:100C30001843A36A012B02D001231B0300E0002309
:100C40001843E36818432369022B09D00023184393
:100C50002B79E57E5B0018430123012D02D00AE0C9
:100C60000423F4E7002927D0A16B20252943A163A1
:100C7000E16B1943E163E1690D46FF3DC23D02D0DE
:100C8000256A294308432168CD680543CD600125C5
:100C9000E16A2D07A94213D0012911D002290FD0F2
:100CA00003290DD004290BD0052909D0062907D026
:100CB000072905D010E028E0012109040843DAE7FC
:100CC00021684D69ED08ED004D6121684D69A78DE2
:100CD0007F077F0F3D434D612168C9680E4D294054
:100CE000814207D10020E063A06B80088000401C97
:100CF000A06308E0A06B022188431043A063E06B6F
:100D00001843E06301263046F8BDA06B1043A06392
:100D1000F8E700001902FEFFE7FF3F8370B586B0D9
:100D2000054614216846FFF753FA1B492868884294
:100D300030D11A498A69401502438A618A690240A2
:100D400005924A69000202434A614969002601404E
:100D500005911F200090032001900920694602960A
:100D6000C00600F0F3F90E480E4C41C48020266006
:100D700060604000A0608000E0602020666120612B
:100D80000848083C00F0AEF8002801D0FFF7F6FD57
:100D90002C63656206B070BD002401400010024063
:100DA0000800024004050020F7B50446006800254D
:100DB000806840073DD426462036307D01280AD081
:100DC00001273775607E012807D02046FFF758FDC0
:100DD000050002D02EE00220FEBDA06B164908409F
:100DE000FF2101310843A0630020E0633075216BCF
:100DF00012488862216B1248C862216B114808634F
:100E000021681C200860206841681022114341605D
:100E10002068C1683943C1602168206B4031029B62
:100E2000019A00F089F820688168042211438160EA
:100E300000E002252846FEBDFEF1FFFFF107000895
:100E4000770800085D080008F0B4C16B0D68016800
:100E50000C680422066C1346B3402B420DD0630786
:100E60000BD50B689B0602D40B6893430B60016C97
:100E70008A40C16B4A60C16A19E00227B740024646
:100E80002F4001232032002F15D0A70713D50C685F
:100E9000A40604D40C680A25AC430C605370036CA0
:100EA00002219940C36B596000211170816A0029A9
:100EB00016D0F0BC08470827B7402F4210D02407AF
:100EC0000ED50C680E25AC430C60046C1946A1408D
:100ED000C46B61608363537000211170016BE6E79E
:100EE000F0BC704770B5040021D0022120462030AC
:100EF00005464170226811680E48A3680140606889
:100F000026691843E3683343184363691843A369A8
:100F10001843E3691843084310602046FFF7FAFCC2
:100F20000021A163012068702970084670BD01206E
:100F300070BD00000FC0FFFFF8B504468C4620309E
:100F400001780025012909D0012606704178002783
:100F5000012905D0077002252846F8BD0220F8BDFA
:100F600002214170A76320680168490849000160B7
:100F700061462046FFF7E0FCE06A0028206801682F
:100F800002D00E22114306E00A22114301602068BC
:100F900001680422914301602068016831430160C7
:100FA000DAE7000070B5044600F09CF90546601CC5
:100FB00002D004480078241800F094F9401BA042A5
:100FC000FAD370BD7C000020F8B5054623480F46D3
:100FD000017E012601290BD0012101762868204CD1
:100FE000012807D02046FFF71BFD002813D030E072
:100FF0000220F8BD2046FFF713FD002829D1FFF796
:10100000BFFC2046FFF70CFD064616480169042286
:10101000914301611DE00020C04338606C6812E01C
:101020002046FFF7BFFC0E48FFF7FAFC06460D48C6
:10103000026902218A430261002E01D03C6008E06F
:10104000012080022418A868810268680818A0425C
:10105000E6D80248002101763046F8BD200600207F
:1010600050C3000000200240034801698022114360
:10107000016100207047000000200240F0B51FB45D
:1010800007461A480024017E15461E46012907D04E
:10109000012101761648FFF7C3FC002803D020E0A9
:1010A000022005B0F0BD012F02D0022F00D004278E
:1010B000220128463146FFF773F881B20198620099
:1010C0001018FFF781FC0A48FFF7AAFC09490A69D2
:1010D000520852000A61002803D1641CE4B2BC42E9
:1010E000E6D3024900220A76DBE700002006002052
:1010F00050C3000000200240064900200A69120681
:1011000007D5054A4A60054A4A600969090600D5BB
:10111000012070470020024023016745AB89EFCDD5
:1011200001214903884202D101490120C861704769
:101130000000002010B504494A69024202D048610B
:10114000FFF7EEFF10BD000000040140FCB50023D6
:101150000124A1E027462A469F403A4073D04D68BB
:10116000012D05D0022D03D0112D01D0122D16D145
:1011700085680326AC465D00AE46AE406546B54385
:10118000AC46CE687546AE4065462E4386604668DE
:101190000D79BE43ED06ED0F9D4035434560C668B1
:1011A0005F000325BD40AE46AE4335468E68BE4067
:1011B0002E43C6604E68022E01D0122E14D1DE08D6
:1011C000B60036180196366A5D07B446EE0E0F2556
:1011D000B54000966646AE43B4460D69009EB540E4
:1011E00066462E43019D2E6206687546AE430D7914
:1011F000AD07AD0FBD40354305604D68ED004AD5E4
:10120000284DAE692643AE61AD699E08ED07ED0F2E
:101210000095254DB6007519AC46AD689E07360F92
:101220000F27B740BD430927FF06B84201D1002769
:1012300010E01E4FB84201D101270BE01C4FB8420D
:1012400002D1022706E026E01A4FB84201D1032757
:1012500000E00527B7402F436546AF60164E35685E
:101260004F689543FF0300D51543356075684F6897
:101270009543BF0300D515437560B5684F68954326
:10128000FF0200D51543B560F5684F689543BF026E
:1012900000D51543F5605B1C0A681546DA4000D09E
:1012A00058E7FCBD00100240000001400004004867
:1012B00000080048000C0048000401400069084094
:1012C00000D001207047426913460B401B04914334
:1012D0000B4383617047002A01D0816170478162AE
:1012E0007047000001488068704700007C000020C3
:1012F0000248816802788918816070477C0000206C
:1013000010B506480168102211430160002000F06A
:1013100007F800F027F8002010BD00000020024070
:1013200070B504460D4D7D202978C000FEF7DEFE25
:1013300001460B480068FEF7D9FE00F0CFFA0028FE
:1013400009D1042C07D200222146401E00F03AF8B1
:1013500000206C6070BD012070BD00007C0000208A
:101360008800002008B50848816901221143816185
:10137000816911400091C26901040A43C261C069D8
:101380000840009008BD000000100240002809DB62
:10139000C106C90E0120884003490860BFF34F8F82
:1013A000BFF36F8F7047000080E100E0002805DB8D
:1013B000C106C90E0120884001490860704700003D
:1013C00000E100E010B501F00FF910BDF8B50F46CF
:1013D000060059D03A4D2868C007C00FB84209D25C
:1013E000286840084000384328602868C007C00FBC
:1013F000B84249D13068334C81070CD5400704D539
:10140000606807210902084360606068F021884332
:10141000B168084360603078C00726D07068012842
:101420000ED0216802280ED0890700292CDA6168C5
:101430008908890001436160FFF754FF00900DE0C7
:1014400021688903F1E78901EFE7FFF74BFF009976
:10145000411A1D48814201D90320F8BD60680C2162
:101460000840716889008842EFD12868C007C00F22
:10147000B8420BD9286840084000384328602868E3
:10148000C007C00FB84201D00120F8BD3078400736
:1014900006D56068072109028843F1680843606047
:1014A00000F018F86168094A0906090F515CC84044
:1014B000074908600020FFF733FF0020F8BD000057
:1014C000002002400010024088130000373000085E
:1014D0008800002010B514A30FCB88B06C460FC451
:1014E00015A30FCB0FC4184A51680C200B460340BC
:1014F0001648042B16D0082B14D18B021B0F6C46F8
:10150000E45CD26A04AB1207120F9A5CC90305D5DA
:1015100000231946FEF714FE214601E020460C493F
:1015200001F049F808B010BD0203040506070809D8
:101530000A0B0C0D0E0F101001020304050607081C
:10154000090A0B0C0D0E0F100010024000127A0059
:1015500000093D00FEB5040070D02078DC4DC007C6
:101560004AD068680007800F012807D06868000724
:10157000800F022809D16868C00306D52868800357
:101580003AD560680028E7D036E06168012914D0B8
:1015900001208004002901D0052914D02A680121E6
:1015A00009048A432A602968814329606068002809
:1015B00016D0FFF797FE06460EE0286801210904C1
:1015C00008432860F2E7296801432960F5E7FFF73F
:1015D00089FE801B64286ED828688003F7D50BE04D
:1015E000FFF780FE064604E0FFF77CFE801B6428C0
:1015F000F1D828688003F7D42078012680070028D6
:101600003CDA68680007800F07D068680007800F21
:10161000022809D16868C00306D42868800716D557
:10162000E06801280AD112E0E0680028286816D096
:1016300030432860FFF756FE074605E043E1FFF719
:1016400051FEC01B0228C6D828688007F7D5286835
:10165000F82188432169C900084328600EE040084A
:1016600040002860FFF73EFE074604E0FFF73AFE21
:10167000C01B0228AFD828688007F7D4207800075D
:1016800022D5E0690028686A0ED030436862FFF70F
:1016900029FE074604E0FFF725FEC01B02289AD862
:1016A000686A8007F7D50FE0400840006862FFF7DE
:1016B00019FE074605E09DE0FFF714FEC01B022857
:1016C00089D8686A8007F7D4207804274007002863
:1016D00060DA00200190E869C00008D4E969B80622
:1016E0000143E961E96901400120009101907948D5
:1016F0000168C90511D40168821511430160FFF723
:10170000F1FD009005E0FFF7EDFD0099401A642817
:1017100070D870480068C005F5D5A06801280AD0C7
:10172000002801D0052810D0286A4008400028620F
:10173000286AB84301E0286A30432862A06800287C
:1017400012D0FFF7CFFD00900AE0286A38432862E4
:10175000F1E7FFF7C7FD0099411A5F48814249D878
:10176000286A8007F5D50DE0FFF7BCFD009006E084
:10177000FFF7B8FD0099411A574881423AD8286AC4
:101780008007F5D40198002804D0E96901200007FA
:101790008143E9612078C00635D5606901280CD005
:1017A000401D686B23D038436863686B4008400075
:1017B0006863FFF797FD064622E0686B384368636D
:1017C000686B30436863FFF78DFD064604E0FFF762
:1017D00089FD801B02285BD8686B8007F7D5686B92
:1017E000F8218843A169C900084368630BE0B84346
:1017F0006863F4E74CE0FFF775FD801B022847D8CB
:10180000686B8007F7D4206A00285ED069680907F2
:10181000890F022942D0012636060228286805D001
:10182000B0432860FFF75EFD044633E0B043286014
:10183000FFF758FD074604E0FFF754FDC01B0228E0
:1018400026D828688001F7D4E86AE16A0009000117
:101850000843E862616AA06A084369683D2212048D
:10186000914308436860286830432860FFF73AFDD9
:10187000044604E0FFF736FD001B022808D828685C
:101880008001F7D521E0FFF72DFD001B022801D9CB
:101890000320FEBD28688001F5D416E00128F8D0A9
:1018A0006868E96A01221204636A02409A420AD116
:1018B0000907E26A090F914205D10F218904084006
:1018C000A16A884201D00120FEBD0020FEBD0000BB
:1018D000001002400070004088130000094910B554
:1018E000401E884201D9012010BD074C60610321D0
:1018F000081F00F079FE0020A06107202061002071
:1019000010BD0000FFFFFF0000E000E070477047DF
:10191000F0B502462032137F012B21D00125157727
:101920000223537706687468B3687027BC430F6856
:101930002743776000680B4CA04208D0AC07A04258
:1019400005D0094CA04202D0084CA04204D180240A
:101950004968A34319438160557700201077F0BD93
:101960000220F0BD002C0140000400400040014076
:1019700070B5040005D025462035687F002802D0C8
:1019800006E0012070BD00202877204600F014F802
:1019900002206877211D206800F054FD01204034AA
:1019A000A071A877E87720706070A070E070207157
:1019B00060716877002070BD08B501220168920748
:1019C0001748914207D1C16901221143C161C06921
:1019D0001040009008BD134A91420DD1C269022106
:1019E0000A43C261C06900220840009011461020DD
:1019F000FFF7E8FC10200FE00B4A9142EAD1C269E0
:101A000089150A43C261C06900220840009011464E
:101A10001320FFF7D7FC1320FFF7C8FC08BD000018
:101A20000010024000040040002000400146203128
:101A30004A7F012A01D00120704702224A770068BC
:101A40000B4A0121904208D08A07904205D0094AEA
:101A5000904202D0084A904204D182685207520F45
:101A6000062A02D002680A43026000207047000084
:101A7000002C01400004004000400140014620319C
:101A80004A7F012A01D00120704702224A7702686A
:101A9000D36801210B43D36000680B4A904208D001
:101AA0008A07904205D0094A904202D0084A9042E3
:101AB00004D182685207520F062A02D002680A43F4
:101AC0000260002070470000002C0140000400402C
:101AD00000400140F8B5054604462035287F01281E
:101AE00017D001262E770220687722689068772722
:101AF000FF23B8431B02984390600A68502A31D0F4
:101B00000EDC202A4BD006DC002A48D0102A3AD11D
:101B100045E00220F8BD302A41D0402A33D136E0DA
:101B2000602A27D0702A12D001200003121A2AD06E
:101B3000824228D1CB684A688968206800F0CCFCD2
:101B40002068816801229203114381601BE0CB6809
:101B50004A688968206800F0BFFC216888683843BB
:101B6000886010E0CA684968206800F0C8FC50210D
:101B7000206806E0CA684968206800F0D1FC60214E
:101B8000206800F0B4FC6E7700202877F8BDCA68A2
:101B90004968206800F0B3FC40212068F1E7114655
:101BA0002068EEE7704770B50446006801690025BB
:101BB000C9438907002915DBC168C943890711D4C6
:101BC000E91E016101202077206880698007204696
:101BD00002D0FFF7E7FF04E000F096F8204600F09F
:101BE00094F8257720680169C943490717D4C1686B
:101BF000C943490713D40421C94301610220207756
:101C0000206880698005800F204602D0FFF7CAFF58
:101C100004E000F079F8204600F077F82577206896
:101C20000169C943090716D4C168C943090712D419
:101C30000821C9430161042020772068C06980071A
:101C4000204602D0FFF7AEFF04E000F05DF820462A
:101C500000F05BF8257720680169C943C90617D4ED
:101C6000C168C943C90613D41021C94301610820C2
:101C700020772068C0698005800F204602D0FFF7DA
:101C800091FF04E000F040F8204600F03EF8257790
:101C900020680169C943C90708D1C168C943C90798
:101CA00004D1891E0161204600F030F820680169E6
:101CB000C943090609D4C168C943090605D480216E
:101CC000C94301612046FFF721FE20680169C9432D
:101CD000490609D4C168C943490605D44021C9430E
:101CE0000161204600F010FA20680169C9438906A5
:101CF00009D4C168C943890605D42021C9430161BB
:101D00002046FFF704FE70BD70477047F8B50646E1
:101D1000F548F64C0027F64D864220D10121C90234
:101D2000F448FFF7D0FA686C401C6864A86C401C4B
:101D3000A864286F6F67401CAF6728673846014664
:101D40004200A25A401C51180A28F9DB0A46A8672B
:101D50000A211046FEF7E0F9686700F0F1FCE6485A
:101D600086427DD128880A210646FEF7BFF9480041
:101D7000DE49761C0A39098821522E80DF4EE04C5C
:101D8000B06800284AD0F068012847D1306801289F
:101D9000286D03D02040032810D001E080070DD02B
:101DA000002201218902D348FFF795FA3068012803
:101DB000286D05D02040022812D004E00122F0E76F
:101DC000204001280CD000220421CA48FFF783FAE2
:101DD00030680128286D05D02040012811D004E08A
:101DE0000122F1E7204002280BD000220221C14845
:101DF000FFF771FA30680128286D04D080071AD0E7
:101E000004E00122F2E72040032814D0002201213F
:101E1000B848FFF760FA286D401C28657168286D86
:101E2000814202DCF168012907D0F16800292FD036
:101E300002292DD001E10122E9E7B76002202F65D8
:101E4000F0603068401CC10F091849084900401A69
:101E50003060286E0B28EDD1A86D0228EAD100E091
:101E60003FE1E86D012805D0286F002802DA012043
:101E7000E865E2E0286FFEF76BFB0022D243FEF735
:101E800045FB00229F4BFEF799FB00D8EF65D4E09D
:101E9000296E0B2902D0A96D012951D1E96D0129C3
:101EA00002D00A294CD168E03168012903D02040D2
:101EB000032810D001E080070DD000220121890203
:101EC0008C48FFF708FA30680128286D05D02040BB
:101ED000022812D004E00122F0E7204001280CD0B3
:101EE000002204218348FFF7F6F930680128286DA5
:101EF00005D02040012811D004E00122F1E7204064
:101F000002280BD0002202217A48FFF7E4F930685A
:101F10000128286D04D0800713D004E00122F2E7E5
:101F2000204003280DD0002201217248FFF7D3F989
:101F3000286D401C2865F168022904D0002905D0CD
:101F40007BE00122F0E7FF21C33101E0FF2169318D
:101F5000884272DBF7602F653068401CC10F09189A
:101F600049084900401A3060286E0B2803D1A86D3B
:101F7000022800D1EF652F675FE0401CFF21693127
:101F80002865884246DC3168012903D020400328B7
:101F900010D001E080070DD00022012189025548B0
:101FA000FFF799F930680128286D05D020400228F4
:101FB00012D004E00122F0E7204001280CD00022DA
:101FC00004214C48FFF787F930680128286D05D0B7
:101FD0002040012811D004E00122F1E7204002282E
:101FE0000BD0002202214348FFF775F93068012821
:101FF000286D04D080070BD004E00122F2E72040D6
:10200000032805D0002201213A48FFF764F914E0C3
:102010000122F8E7FF21FF31884202DB3068012806
:1020200002D03078C00708D12F653068401CC10F3E
:10203000091849084900401A3060A86E002850D09D
:10204000A86D01284DD1E126E86EB600B04202DA53
:10205000800710D002E0204003280CD0002201218C
:1020600009032448FFF737F9E86EB04205DA20404B
:10207000012812D004E00122F1E7204002280CD010
:10208000002209202021C006FFF725F9E86EB042A2
:1020900005DA2040022812D004E00122F1E72040B6
:1020A00001280CD0002209204021C006FFF713F9B7
:1020B000E86EB04205DA2040032813D003E0012285
:1020C000F1E780070ED0002209208021C006FFF72B
:1020D00002F9E86EE121401CC900E866884200DB95
:1020E000EF66F8BD0122EFE7D8050020960000203A
:1020F000000000200004004890050020B4040020E7
:1021000003000080008041407047FEE7FEB50024D8
:102110002849294800940194029412C008210125FD
:10212000042672C0047044708570C470FF21C231EF
:1021300084604160014608310D7105611838FEF771
:1021400031FD002801D0FEF719FC012000030094A6
:1021500001900324694618480294FEF789FC002880
:1021600001D0FEF70BFC694613480095FEF780FC92
:10217000002801D0FEF702FC0220009069460E48BC
:10218000FEF776FC002801D0FEF7F8FB69460A4806
:102190000094FEF76DFC002801D0FEF7EFFB6946C6
:1021A00005480096FEF764FC002801D0FEF7E6FB28
:1021B000FEBD000000240140C404002008B508480A
:1021C00041690122114341614069104000220090A1
:1021D00011460920FFF7F6F80920FFF7E7F808BDD8
:1021E00000100240F0B587B014216846FDF7F0FFFB
:1021F000284842690121C9040A43426142690A40F0
:1022000005924269C9000A43426142690A40059247
:10221000426949110A43426142690A400592426992
:1022200049000A43426140691B4D08400927FF06E7
:102230000590002229463846FFF74DF8174E002238
:1022400031461748FFF747F8012040030090154832
:1022500000240190694602941348FEF777FF009529
:10226000012502946946384601950394FEF76EFFF6
:10227000029469460A48009601950394FEF766FFAA
:10228000002211460720FFF79DF80720FFF78EF880
:1022900007B0F0BD00100240E0870000C7FC00005E
:1022A00000040048000021100008004810B50A484A
:1022B00008490160094941600021FF228160F5322F
:1022C0000161C2608161FFF753FB002801D0FEF776
:1022D00055FB10BD00200040D805002080BB000049
:1022E00010B586B000240094012116480194029490
:1022F000039404948907059401602F218460416050
:102300000461611E8461C160FFF732FB002801D0C7
:10231000FEF734FB01200003009069460948FFF7EF
:10232000D9FB002801D0FEF729FB049404A9054835
:102330000594FFF7EDFA002801D0FEF71FFB06B069
:1023400010BD00004805002010B586B000240094A0
:10235000164801940294039404941349059401606F
:102360002F2184604160046111498461C160FFF7DD
:10237000FFFA002801D0FEF701FB012000030090C6
:1023800069460A48FFF7A6FB002801D0FEF7F6FAD7
:10239000049404A905480594FFF7BAFA002801D06F
:1023A000FEF7ECFA06B010BD0004004090050020D6
:1023B0001F4E0000FEE77047704710B5FEF798FF0C
:1023C00010BD30B591B030216846FDF701FF002403
:1023D00011200F940090012001900590102006908C
:1023E0000E940003099000010D9402250A900C94AC
:1023F00008950B946846FFF7ADF8002801D072B637
:10240000FEE707200C900E9401210D950F940CA867
:10241000FEF7DCFF002801D072B6FEE711B030BD38
:102420007047000010B50248FFF7BDFB10BD00006B
:10243000D805002010B50248FFF7B5FB10BD00001D
:1024400090050020F0B502681D4B0124A4071D4D26
:10245000984203D0A04201D0A84203D17026B243D3
:102460004E683243184E194F98420DD0A0420BD0FF
:10247000A84209D0164CA04206D0B04204D0B842BF
:1024800002D0144CA04204D103242402A243CC68FD
:1024900022438024A2434C69224302608A68C262BC
:1024A0000A688262984206D0B04204D0B84202D094
:1024B000084A904201D10969016301214161F0BDDF
:1024C000002C014000040040004001400044014055
:1024D000002000400048014030B58468FF252D02EF
:1024E0001B021343AC430B432343836030BD82681C
:1024F00070239A430A4307210A438260704730B52C
:10250000036A046A6408640004628469F025AC43C9
:10251000120122430A24A3430B438261036230BDAC
:1025200030B5036A1024A34303628469036A0F254C
:102530002D031203AC432243A024A34309011943F2
:102540008261016230BD000070B516460D4604463A
:10255000FEF7D2FD0A48002162C00A490C38FEF796
:1025600033FD2246002329460220FEF787FD00287E
:1025700003D10449012014394866FEF775FD70BD8A
:10258000A8040020140000202021020C01D01021FA
:102590001046020A01D010460839020901D010463F
:1025A000091F820801D01046891E420801D0881EEA
:1025B0007047081A7047F8B5040C8BB2264682B2F1
:1025C0005E430D0C1046370C584336048019002129
:1025D000794116466E43370C3604801979412646F8
:1025E0006E438919F8BD00008307FF22DB0E9A4075
:1025F0008907090E9940002808DB830809489B00D9
:102600001B18186890430843186070470007000FB4
:102610000838830804489B001B18D8699043084376
:10262000D861704700E400E000ED00E002E008C877
:10263000121F08C1002AFAD170477047002001E03C
:1026400001C1121F002AFBD17047000010B5012202
:1026500040210248FEF73FFE10BD00000004004884
:1026600010B5002240210248FEF735FE10BD0000E3
:1026700000040048002808D07D23DB001946022210
:10268000521C8A42FCDB401EF8D1704710B5012273
:1026900080210248FEF71FFE10BD00000004004824
:1026A00010B5002280210248FEF715FE10BD000083
:1026B0000004004810B5FFF7D3FF0520FFF7DAFF4D
:1026C000FFF7C4FF0220FFF7D5FFFFF7C9FF10BDDA
:1026D00010B5FFF7BBFFFFF7D9FF0220FFF7CAFFD6
:1026E000FFF7DEFF10BD10B5FFF7BAFF0220FFF7BE
:1026F000C1FFFFF7D5FF0220FFF7BCFFFFF7A6FFE2
:102700000220FFF7B7FFFFF7C1FF10BD70B5044609
:102710000025FFF7A5FFE00702D0FFF7B7FF01E0B4
:10272000FFF7BEFF0320FFF7A5FF6408FFF78EFF4A
:102730000320FFF79FFF6D1C082DEADB70BD000032
:10274000FEB5FDF719FF04460D46184A184BFDF774
:10275000FDFD0191009020462946164A164BFDF7D3
:10276000F5FD22462B46FDF7F1FD06460F462046B5
:102770002946124A124BFDF7E9FD22462B46FDF78A
:10278000E5FD22462B46FDF7E1FD32463B46FDF7CF
:102790002BFD019B009AFDF7CBFD0A4A0A4BFDF782
:1027A00023FDFDF71FFF09498863FEBDDB8AFD6538
:1027B000F7E4D13F21A92AD95658353FD8345DB125
:1027C00079F388BE6666666666665C400000002037
:1027D000F8B50125AD0209246E10AF10E4060028FB
:1027E0005DD001280AD0022824D0032856D13146D2
:1027F0002046FEF763FD00283ED137E029462046FB
:10280000FEF75CFD002805D131462046FEF756FD57
:1028100000280CD0002231462046FEF75CFD002245
:1028200029462046FEF757FDC820FEF7BBFB0122D4
:10283000394630E029462046FEF740FD002805D104
:1028400039462046FEF73AFD00280CD000223946D2
:102850002046FEF740FD002229462046FEF73BFDBC
:10286000C820FEF79FFB0122314614E0394620467E
:10287000FEF724FD00280CD0002239462046FEF742
:102880002AFD002231462046FEF725FDC820FEF72E
:1028900089FB012229462046FEF71DFDF8BD0022D6
:1028A00039462046FEF717FD002231462046FEF746
:1028B00012FD0022EEE70000F8B5944D924C696CD1
:1028C000686EA36A814202D041004018A06255227E
:1028D000A66AD2008E4800270121002E02D0032EC6
:1028E00015D01BE0032B19D10223A3654260226E91
:1028F0000B2A08D003608160C16086482765206785
:102900006E2A02D00AE00160F5E7A76406E0002B1A
:1029100004D1A16506C00160416027657B48803015
:10292000436B42699A4212D08669836BB4469E42D9
:102930000DD0C369C66B9E46B34208D0642672436D
:1029400066460A235E43931972469A182266036804
:10295000026A9A421DD0436A46689E46B34218D026
:10296000866A8368B4469E4213D0C66AC3689E4294
:102970000FD0036B006983420BD0704640001018E3
:1029800062469200F600921980181A0180181030E1
:10299000E0636A6F686D904214D0AB6FAA6D9A4283
:1029A00010D061630A214843801808D0012802D062
:1029B0000A2807D101E0032002E0022000E0012004
:1029C000FFF706FFA96CA86E814207D0EA6EE86C9B
:1029D000904203D00A2251430818E065296F286D00
:1029E000884200D0A066494E803E306A31688646F3
:1029F000884221D0716A706881421DD0B06A00900F
:102A0000B268904218D0F268F06A904214D0336BEA
:102A100032699C4693420FD0F26B49005300D218A2
:102A2000E262724652180099C00089000818111815
:102A30006046000108182064296C286E814202D08B
:102A4000410040182063A06A00282DD0042000F027
:102A5000DDFAE06A002814D07D22216CD2005143B7
:102A6000A26A64235A4389180A2250430818216B2A
:102A700040180021A06100F05FFA7D200001FEF700
:102A800091FA7D21E06BC9004843A16A6422514359
:102A90004118E06A0A2250430818216B40180021AF
:102AA000A06100F049FA02E0002000F0AFFA316EB8
:102AB000306C884201D0012100E00021A26A11425D
:102AC00003D08006000E00F0A1FA0222E168A06A9D
:102AD000FFF73AFD03222169E06BFFF735FD606BDC
:102AE000012810D16763C4030925ED0601222146A0
:102AF0002846FEF7F0FB3220FEF754FA002221466A
:102B00002846FEF7E8FBF8BD000000202C0100205D
:102B1000B4040020F0D8FFFFFEF7F2FBFFF751FCF2
:102B2000FFF760FBFFF74AFBFFF7C0FBFFF7EEFA8A
:102B3000FFF7D6FBFFF708FC00F036FACD4CE06853
:102B40000068A062032837D0002000F05FFACA486E
:102B5000FEF794FFC948FEF791FFC948FEF766FFEC
:102B60000522C849C848FEF71FF901220926D503E6
:102B7000F60629463046FEF7AEFB3220FEF712FA83
:102B8000002229463046FEF7A6FB3220FEF70AFA5D
:102B9000012229463046FEF79EFB3220FEF702FA5C
:102BA000002229463046FEF796FBB84EAF100025AE
:102BB000206E01281BD038E020690068E063042003
:102BC00000F024FA7D21E06BC9004843E16A0A2243
:102BD00051434018216B4018FF302D30A061104642
:102BE000FEF7E0F90021A06900F0A6F9AFE7A06DBB
:102BF000012814D139463046FEF760FB00280BD07F
:102C0000002239463046FEF766FB01210022890387
:102C10003046FEF760FB6564206E012805D1A06D8B
:102C2000022876D10020FFF7D3FD206E0B286FD14C
:102C3000A06D012839D1E06B801CFDF77DFCA16BF4
:102C4000FDF7ECFC1AD2606CFDF782FC0022D24347
:102C5000FDF75CFC00228E4BFDF7E0FB00228D4B64
:102C6000FDF7ACFC1ED2012239463046FEF733FB9D
:102C7000012291033046FEF72EFB13E0E06B801E2D
:102C8000FDF75AFCA16BFDF7D3FC0BD200223946AD
:102C90003046FEF720FB0121002289033046FEF773
:102CA0001AFB6564206E0B2859D1A06D0228B8D19B
:102CB00039463046FEF702FB00280BD00022394689
:102CC0003046FEF708FB0121002289033046FEF75B
:102CD00002FB6564206FFDF73BFC0022D243FDF749
:102CE00015FC00226C4BFDF769FC13D8206FFDF733
:102CF0002FFC0022D243FDF709FC0022674BFDF7B1
:102D000049FC07D80020FFF763FD65490120886072
:102D100025E098E062488068002820D0206FFDF709
:102D200017FC0022D243FDF7F1FB00225B4BFDF7BD
:102D300045FC14D8206FFDF70BFC0022D243FDF7B1
:102D4000E5FB0022574BFDF725FC08D8FF2154482E
:102D500055314160022101600121C1602565206E6D
:102D60006E2870D1A06D01283ED1C10301223046EA
:102D7000FEF7B1FAE06B801EFDF7DEFBA16BFDF7FD
:102D800057FC1AD2606CFDF7E3FB0022D243FDF73B
:102D9000BDFB00223E4BFDF741FB00223D4BFDF702
:102DA0000DFC1ED2012239463046FEF794FA01226C
:102DB00091033046FEF78FFA13E0E06B801CFDF7BD
:102DC000BBFBA16BFDF72AFC0BD200223946304633
:102DD000FEF781FA0121002289033046FEF77BFAD3
:102DE0006564206E6E282ED1A06D02282BD10020A4
:102DF000FFF7EEFC39463046FEF760FA00280BD0AC
:102E0000002239463046FEF766FA01210022890386
:102E10003046FEF760FA6564A06CFDF799FB00226E
:102E2000D243FDF773FB0022194BFDF7F7FA01239C
:102E300000229B07FDF7C2FB05D201210022C90336
:102E40003046FEF748FAE069012800D0B0E60720D6
:102E5000FEF79CFA39461448FEF730FA002803D1F1
:102E600000F024F8FFF728FD0720E561FEF79EFA41
:102E70009EE6000000000020D805002090050020FC
:102E8000480500208C000020C404002000040048F5
:102E900000004E400000084000003E40000040405E
:102EA000B40400200000414000080048F8B50126A5
:102EB0001E4D760331462846FEF700FA0028F9D069
:102EC00031462846FEF7FAF90028F9D1184C0027B8
:102ED0002762676231462846FEF7F0F90028F9D0EC
:102EE00008E0606A401C6062A068FDF739FD606A16
:102EF000C82805DC31462846FEF7E0F90028F0D165
:102F0000606A0C2805DD216A01208A000949885081
:102F100003E0206A810007484750206A401C206275
:102F20006028D6DB6068FEF73DF8F8BD0008004871
:102F300000000020AC000020F3B583B00024194E3F
:102F400080276D460A21FDF7E7F8715C2955022CB0
:102F500006D10499002903D06A46917839439170CB
:102F6000641C052CEEDBFFF7B3FB4020FFF7CEFB24
:102F7000FFF7A0FBFFF7B7FBFFF7AAFBC020FFF7A7
:102F8000C5FBFFF797FB00240426301B285CFFF7E6
:102F9000BDFBFFF78FFB641C052CF6DBFFF7A3FBE3
:102FA00005B0F0BD2630000810B5164886B042695D
:102FB000012189040A43426142690A40059242693B
:102FC0000A43426140690840059014216846FDF7B4
:102FD000FFF801200290112001900320039040206F
:102FE000094C009069462046FEF7B0F8802000901A
:102FF00069462046FEF7AAF8082000F007F806B058
:1030000010BD0000001002400004004810B5044646
:10301000FFF75EFB8734E0B2FFF778FBFFF74AFB70
:10302000FFF761FB10BD3F065B4F666D7D077F6F4D
:10303000777C395E7971000000000000000000011B
:103040000203040607080900683000080000002099
:103050008C0000002C260008F43000088C000020B2
:10306000B40900003C2600080000000064000000D5
:103070006400000000E0000800E800080000000014
:103080000000000000000000000000000000000040
:103090000000000000000000000000000000000030
:1030A0000000000000000000000000000000000020
:1030B0000000000000000000000000000000000010
:1030C0000000000000000000000000000000000000
:1030D00000000000000000000000000000000000F0
:1030E00000000000010000000400000000000000DB
:0430F00000127A0050
:04000005080000BD32
:00000001FF
